{
  "contractName": "NFTMembershipToken",
  "abi": [
    {
      "inputs": [],
      "stateMutability": "nonpayable",
      "type": "constructor"
    },
    {
      "anonymous": false,
      "inputs": [
        {
          "indexed": true,
          "internalType": "address",
          "name": "account",
          "type": "address"
        },
        {
          "indexed": true,
          "internalType": "address",
          "name": "operator",
          "type": "address"
        },
        {
          "indexed": false,
          "internalType": "bool",
          "name": "approved",
          "type": "bool"
        }
      ],
      "name": "ApprovalForAll",
      "type": "event"
    },
    {
      "anonymous": false,
      "inputs": [
        {
          "indexed": true,
          "internalType": "address",
          "name": "owner",
          "type": "address"
        },
        {
          "indexed": true,
          "internalType": "uint256",
          "name": "tokenId",
          "type": "uint256"
        },
        {
          "indexed": false,
          "internalType": "string",
          "name": "metadataURI",
          "type": "string"
        }
      ],
      "name": "NFTMinted",
      "type": "event"
    },
    {
      "anonymous": false,
      "inputs": [
        {
          "indexed": true,
          "internalType": "address",
          "name": "previousOwner",
          "type": "address"
        },
        {
          "indexed": true,
          "internalType": "address",
          "name": "newOwner",
          "type": "address"
        }
      ],
      "name": "OwnershipTransferred",
      "type": "event"
    },
    {
      "anonymous": false,
      "inputs": [
        {
          "indexed": true,
          "internalType": "address",
          "name": "operator",
          "type": "address"
        },
        {
          "indexed": true,
          "internalType": "address",
          "name": "from",
          "type": "address"
        },
        {
          "indexed": true,
          "internalType": "address",
          "name": "to",
          "type": "address"
        },
        {
          "indexed": false,
          "internalType": "uint256[]",
          "name": "ids",
          "type": "uint256[]"
        },
        {
          "indexed": false,
          "internalType": "uint256[]",
          "name": "values",
          "type": "uint256[]"
        }
      ],
      "name": "TransferBatch",
      "type": "event"
    },
    {
      "anonymous": false,
      "inputs": [
        {
          "indexed": true,
          "internalType": "address",
          "name": "operator",
          "type": "address"
        },
        {
          "indexed": true,
          "internalType": "address",
          "name": "from",
          "type": "address"
        },
        {
          "indexed": true,
          "internalType": "address",
          "name": "to",
          "type": "address"
        },
        {
          "indexed": false,
          "internalType": "uint256",
          "name": "id",
          "type": "uint256"
        },
        {
          "indexed": false,
          "internalType": "uint256",
          "name": "value",
          "type": "uint256"
        }
      ],
      "name": "TransferSingle",
      "type": "event"
    },
    {
      "anonymous": false,
      "inputs": [
        {
          "indexed": false,
          "internalType": "string",
          "name": "value",
          "type": "string"
        },
        {
          "indexed": true,
          "internalType": "uint256",
          "name": "id",
          "type": "uint256"
        }
      ],
      "name": "URI",
      "type": "event"
    },
    {
      "inputs": [
        {
          "internalType": "address",
          "name": "account",
          "type": "address"
        },
        {
          "internalType": "uint256",
          "name": "id",
          "type": "uint256"
        }
      ],
      "name": "balanceOf",
      "outputs": [
        {
          "internalType": "uint256",
          "name": "",
          "type": "uint256"
        }
      ],
      "stateMutability": "view",
      "type": "function",
      "constant": true
    },
    {
      "inputs": [
        {
          "internalType": "address[]",
          "name": "accounts",
          "type": "address[]"
        },
        {
          "internalType": "uint256[]",
          "name": "ids",
          "type": "uint256[]"
        }
      ],
      "name": "balanceOfBatch",
      "outputs": [
        {
          "internalType": "uint256[]",
          "name": "",
          "type": "uint256[]"
        }
      ],
      "stateMutability": "view",
      "type": "function",
      "constant": true
    },
    {
      "inputs": [
        {
          "internalType": "address",
          "name": "account",
          "type": "address"
        },
        {
          "internalType": "address",
          "name": "operator",
          "type": "address"
        }
      ],
      "name": "isApprovedForAll",
      "outputs": [
        {
          "internalType": "bool",
          "name": "",
          "type": "bool"
        }
      ],
      "stateMutability": "view",
      "type": "function",
      "constant": true
    },
    {
      "inputs": [],
      "name": "owner",
      "outputs": [
        {
          "internalType": "address",
          "name": "",
          "type": "address"
        }
      ],
      "stateMutability": "view",
      "type": "function",
      "constant": true
    },
    {
      "inputs": [],
      "name": "renounceOwnership",
      "outputs": [],
      "stateMutability": "nonpayable",
      "type": "function"
    },
    {
      "inputs": [
        {
          "internalType": "address",
          "name": "from",
          "type": "address"
        },
        {
          "internalType": "address",
          "name": "to",
          "type": "address"
        },
        {
          "internalType": "uint256[]",
          "name": "ids",
          "type": "uint256[]"
        },
        {
          "internalType": "uint256[]",
          "name": "amounts",
          "type": "uint256[]"
        },
        {
          "internalType": "bytes",
          "name": "data",
          "type": "bytes"
        }
      ],
      "name": "safeBatchTransferFrom",
      "outputs": [],
      "stateMutability": "nonpayable",
      "type": "function"
    },
    {
      "inputs": [
        {
          "internalType": "address",
          "name": "from",
          "type": "address"
        },
        {
          "internalType": "address",
          "name": "to",
          "type": "address"
        },
        {
          "internalType": "uint256",
          "name": "id",
          "type": "uint256"
        },
        {
          "internalType": "uint256",
          "name": "amount",
          "type": "uint256"
        },
        {
          "internalType": "bytes",
          "name": "data",
          "type": "bytes"
        }
      ],
      "name": "safeTransferFrom",
      "outputs": [],
      "stateMutability": "nonpayable",
      "type": "function"
    },
    {
      "inputs": [
        {
          "internalType": "address",
          "name": "operator",
          "type": "address"
        },
        {
          "internalType": "bool",
          "name": "approved",
          "type": "bool"
        }
      ],
      "name": "setApprovalForAll",
      "outputs": [],
      "stateMutability": "nonpayable",
      "type": "function"
    },
    {
      "inputs": [
        {
          "internalType": "bytes4",
          "name": "interfaceId",
          "type": "bytes4"
        }
      ],
      "name": "supportsInterface",
      "outputs": [
        {
          "internalType": "bool",
          "name": "",
          "type": "bool"
        }
      ],
      "stateMutability": "view",
      "type": "function",
      "constant": true
    },
    {
      "inputs": [
        {
          "internalType": "address",
          "name": "newOwner",
          "type": "address"
        }
      ],
      "name": "transferOwnership",
      "outputs": [],
      "stateMutability": "nonpayable",
      "type": "function"
    },
    {
      "inputs": [
        {
          "internalType": "string",
          "name": "_metadataURI",
          "type": "string"
        }
      ],
      "name": "mint",
      "outputs": [],
      "stateMutability": "nonpayable",
      "type": "function"
    },
    {
      "inputs": [
        {
          "internalType": "uint256",
          "name": "_id",
          "type": "uint256"
        }
      ],
      "name": "uri",
      "outputs": [
        {
          "internalType": "string",
          "name": "",
          "type": "string"
        }
      ],
      "stateMutability": "view",
      "type": "function",
      "constant": true
    }
  ],
  "bytecode": "0x608060405260006004553480156200001657600080fd5b506040518060400160405280601481526020017f4e4654204d656d6265727368697020546f6b656e0000000000000000000000008152506200005e816200008560201b60201c565b506200007f62000073620000a160201b60201c565b620000a960201b60201c565b62000284565b80600290805190602001906200009d9291906200016f565b5050565b600033905090565b6000600360009054906101000a900473ffffffffffffffffffffffffffffffffffffffff16905081600360006101000a81548173ffffffffffffffffffffffffffffffffffffffff021916908373ffffffffffffffffffffffffffffffffffffffff1602179055508173ffffffffffffffffffffffffffffffffffffffff168173ffffffffffffffffffffffffffffffffffffffff167f8be0079c531659141344cd1fd0a4f28419497f9722a3daafe3b4186f6b6457e060405160405180910390a35050565b8280546200017d906200021f565b90600052602060002090601f016020900481019282620001a15760008555620001ed565b82601f10620001bc57805160ff1916838001178555620001ed565b82800160010185558215620001ed579182015b82811115620001ec578251825591602001919060010190620001cf565b5b509050620001fc919062000200565b5090565b5b808211156200021b57600081600090555060010162000201565b5090565b600060028204905060018216806200023857607f821691505b602082108114156200024f576200024e62000255565b5b50919050565b7f4e487b7100000000000000000000000000000000000000000000000000000000600052602260045260246000fd5b612f8e80620002946000396000f3fe608060405234801561001057600080fd5b50600436106100b35760003560e01c80638da5cb5b116100715780638da5cb5b1461019e578063a22cb465146101bc578063d85d3d27146101d8578063e985e9c5146101f4578063f242432a14610224578063f2fde38b14610240576100b3565b8062fdd58e146100b857806301ffc9a7146100e85780630e89341c146101185780632eb2c2d6146101485780634e1273f414610164578063715018a614610194575b600080fd5b6100d260048036038101906100cd9190611e43565b61025c565b6040516100df9190612658565b60405180910390f35b61010260048036038101906100fd9190611eeb565b610325565b60405161010f919061245b565b60405180910390f35b610132600480360381019061012d9190611f7e565b610407565b60405161013f9190612476565b60405180910390f35b610162600480360381019061015d9190611cb9565b61047f565b005b61017e60048036038101906101799190611e7f565b610520565b60405161018b9190612402565b60405180910390f35b61019c6106d1565b005b6101a66106e5565b6040516101b39190612325565b60405180910390f35b6101d660048036038101906101d19190611e07565b61070f565b005b6101f260048036038101906101ed9190611f3d565b610725565b005b61020e60048036038101906102099190611c7d565b6107fd565b60405161021b919061245b565b60405180910390f35b61023e60048036038101906102399190611d78565b610891565b005b61025a60048036038101906102559190611c54565b610932565b005b60008073ffffffffffffffffffffffffffffffffffffffff168373ffffffffffffffffffffffffffffffffffffffff1614156102cd576040517f08c379a00000000000000000000000000000000000000000000000000000000081526004016102c4906124d8565b60405180910390fd5b60008083815260200190815260200160002060008473ffffffffffffffffffffffffffffffffffffffff1673ffffffffffffffffffffffffffffffffffffffff16815260200190815260200160002054905092915050565b60007fd9b67a26000000000000000000000000000000000000000000000000000000007bffffffffffffffffffffffffffffffffffffffffffffffffffffffff1916827bffffffffffffffffffffffffffffffffffffffffffffffffffffffff191614806103f057507f0e89341c000000000000000000000000000000000000000000000000000000007bffffffffffffffffffffffffffffffffffffffffffffffffffffffff1916827bffffffffffffffffffffffffffffffffffffffffffffffffffffffff1916145b8061040057506103ff826109b6565b5b9050919050565b6060600454821061044d576040517f08c379a000000000000000000000000000000000000000000000000000000000815260040161044490612518565b60405180910390fd5b6104576000610a20565b826040516020016104699291906122fd565b6040516020818303038152906040529050919050565b610487610ab4565b73ffffffffffffffffffffffffffffffffffffffff168573ffffffffffffffffffffffffffffffffffffffff1614806104cd57506104cc856104c7610ab4565b6107fd565b5b61050c576040517f08c379a0000000000000000000000000000000000000000000000000000000008152600401610503906124f8565b60405180910390fd5b6105198585858585610abc565b5050505050565b60608151835114610566576040517f08c379a000000000000000000000000000000000000000000000000000000000815260040161055d906125d8565b60405180910390fd5b6000835167ffffffffffffffff8111156105a9577f4e487b7100000000000000000000000000000000000000000000000000000000600052604160045260246000fd5b6040519080825280602002602001820160405280156105d75781602001602082028036833780820191505090505b50905060005b84518110156106c657610670858281518110610622577f4e487b7100000000000000000000000000000000000000000000000000000000600052603260045260246000fd5b6020026020010151858381518110610663577f4e487b7100000000000000000000000000000000000000000000000000000000600052603260045260246000fd5b602002602001015161025c565b8282815181106106a9577f4e487b7100000000000000000000000000000000000000000000000000000000600052603260045260246000fd5b602002602001018181525050806106bf90612966565b90506105dd565b508091505092915050565b6106d9610e2a565b6106e36000610ea8565b565b6000600360009054906101000a900473ffffffffffffffffffffffffffffffffffffffff16905090565b61072161071a610ab4565b8383610f6e565b5050565b60006107333360045461025c565b14610773576040517f08c379a000000000000000000000000000000000000000000000000000000000815260040161076a90612598565b60405180910390fd5b6004543373ffffffffffffffffffffffffffffffffffffffff167fd35bb95e09c04b219e35047ce7b7b300e3384264ef84a40456943dbc0fc17c14836040516107bc9190612476565b60405180910390a3600460008154809291906107d790612966565b91905055506107fa336004546001604051806020016040528060008152506110db565b50565b6000600160008473ffffffffffffffffffffffffffffffffffffffff1673ffffffffffffffffffffffffffffffffffffffff16815260200190815260200160002060008373ffffffffffffffffffffffffffffffffffffffff1673ffffffffffffffffffffffffffffffffffffffff16815260200190815260200160002060009054906101000a900460ff16905092915050565b610899610ab4565b73ffffffffffffffffffffffffffffffffffffffff168573ffffffffffffffffffffffffffffffffffffffff1614806108df57506108de856108d9610ab4565b6107fd565b5b61091e576040517f08c379a0000000000000000000000000000000000000000000000000000000008152600401610915906124f8565b60405180910390fd5b61092b858585858561128c565b5050505050565b61093a610e2a565b600073ffffffffffffffffffffffffffffffffffffffff168173ffffffffffffffffffffffffffffffffffffffff1614156109aa576040517f08c379a00000000000000000000000000000000000000000000000000000000081526004016109a1906124b8565b60405180910390fd5b6109b381610ea8565b50565b60007f01ffc9a7000000000000000000000000000000000000000000000000000000007bffffffffffffffffffffffffffffffffffffffffffffffffffffffff1916827bffffffffffffffffffffffffffffffffffffffffffffffffffffffff1916149050919050565b606060028054610a2f90612903565b80601f0160208091040260200160405190810160405280929190818152602001828054610a5b90612903565b8015610aa85780601f10610a7d57610100808354040283529160200191610aa8565b820191906000526020600020905b815481529060010190602001808311610a8b57829003601f168201915b50505050509050919050565b600033905090565b8151835114610b00576040517f08c379a0000000000000000000000000000000000000000000000000000000008152600401610af7906125f8565b60405180910390fd5b600073ffffffffffffffffffffffffffffffffffffffff168473ffffffffffffffffffffffffffffffffffffffff161415610b70576040517f08c379a0000000000000000000000000000000000000000000000000000000008152600401610b6790612538565b60405180910390fd5b6000610b7a610ab4565b9050610b8a818787878787611528565b60005b8451811015610d87576000858281518110610bd1577f4e487b7100000000000000000000000000000000000000000000000000000000600052603260045260246000fd5b602002602001015190506000858381518110610c16577f4e487b7100000000000000000000000000000000000000000000000000000000600052603260045260246000fd5b60200260200101519050600080600084815260200190815260200160002060008b73ffffffffffffffffffffffffffffffffffffffff1673ffffffffffffffffffffffffffffffffffffffff16815260200190815260200160002054905081811015610cb7576040517f08c379a0000000000000000000000000000000000000000000000000000000008152600401610cae90612558565b60405180910390fd5b81810360008085815260200190815260200160002060008c73ffffffffffffffffffffffffffffffffffffffff1673ffffffffffffffffffffffffffffffffffffffff168152602001908152602001600020819055508160008085815260200190815260200160002060008b73ffffffffffffffffffffffffffffffffffffffff1673ffffffffffffffffffffffffffffffffffffffff1681526020019081526020016000206000828254610d6c91906127f7565b9250508190555050505080610d8090612966565b9050610b8d565b508473ffffffffffffffffffffffffffffffffffffffff168673ffffffffffffffffffffffffffffffffffffffff168273ffffffffffffffffffffffffffffffffffffffff167f4a39dc06d4c0dbc64b70af90fd698a233a518aa5d07e595d983b8c0526c8f7fb8787604051610dfe929190612424565b60405180910390a4610e14818787878787611530565b610e22818787878787611538565b505050505050565b610e32610ab4565b73ffffffffffffffffffffffffffffffffffffffff16610e506106e5565b73ffffffffffffffffffffffffffffffffffffffff1614610ea6576040517f08c379a0000000000000000000000000000000000000000000000000000000008152600401610e9d90612578565b60405180910390fd5b565b6000600360009054906101000a900473ffffffffffffffffffffffffffffffffffffffff16905081600360006101000a81548173ffffffffffffffffffffffffffffffffffffffff021916908373ffffffffffffffffffffffffffffffffffffffff1602179055508173ffffffffffffffffffffffffffffffffffffffff168173ffffffffffffffffffffffffffffffffffffffff167f8be0079c531659141344cd1fd0a4f28419497f9722a3daafe3b4186f6b6457e060405160405180910390a35050565b8173ffffffffffffffffffffffffffffffffffffffff168373ffffffffffffffffffffffffffffffffffffffff161415610fdd576040517f08c379a0000000000000000000000000000000000000000000000000000000008152600401610fd4906125b8565b60405180910390fd5b80600160008573ffffffffffffffffffffffffffffffffffffffff1673ffffffffffffffffffffffffffffffffffffffff16815260200190815260200160002060008473ffffffffffffffffffffffffffffffffffffffff1673ffffffffffffffffffffffffffffffffffffffff16815260200190815260200160002060006101000a81548160ff0219169083151502179055508173ffffffffffffffffffffffffffffffffffffffff168373ffffffffffffffffffffffffffffffffffffffff167f17307eab39ab6107e8899845ad3d59bd9653f200f220920489ca2b5937696c31836040516110ce919061245b565b60405180910390a3505050565b600073ffffffffffffffffffffffffffffffffffffffff168473ffffffffffffffffffffffffffffffffffffffff16141561114b576040517f08c379a000000000000000000000000000000000000000000000000000000000815260040161114290612618565b60405180910390fd5b6000611155610ab4565b905060006111628561171f565b9050600061116f8561171f565b905061118083600089858589611528565b8460008088815260200190815260200160002060008973ffffffffffffffffffffffffffffffffffffffff1673ffffffffffffffffffffffffffffffffffffffff16815260200190815260200160002060008282546111df91906127f7565b925050819055508673ffffffffffffffffffffffffffffffffffffffff16600073ffffffffffffffffffffffffffffffffffffffff168473ffffffffffffffffffffffffffffffffffffffff167fc3d58168c5ae7397731d063d5bbf3d657854427343f4c083240f7aacaa2d0f62898960405161125d929190612673565b60405180910390a461127483600089858589611530565b611283836000898989896117e5565b50505050505050565b600073ffffffffffffffffffffffffffffffffffffffff168473ffffffffffffffffffffffffffffffffffffffff1614156112fc576040517f08c379a00000000000000000000000000000000000000000000000000000000081526004016112f390612538565b60405180910390fd5b6000611306610ab4565b905060006113138561171f565b905060006113208561171f565b9050611330838989858589611528565b600080600088815260200190815260200160002060008a73ffffffffffffffffffffffffffffffffffffffff1673ffffffffffffffffffffffffffffffffffffffff168152602001908152602001600020549050858110156113c7576040517f08c379a00000000000000000000000000000000000000000000000000000000081526004016113be90612558565b60405180910390fd5b85810360008089815260200190815260200160002060008b73ffffffffffffffffffffffffffffffffffffffff1673ffffffffffffffffffffffffffffffffffffffff168152602001908152602001600020819055508560008089815260200190815260200160002060008a73ffffffffffffffffffffffffffffffffffffffff1673ffffffffffffffffffffffffffffffffffffffff168152602001908152602001600020600082825461147c91906127f7565b925050819055508773ffffffffffffffffffffffffffffffffffffffff168973ffffffffffffffffffffffffffffffffffffffff168573ffffffffffffffffffffffffffffffffffffffff167fc3d58168c5ae7397731d063d5bbf3d657854427343f4c083240f7aacaa2d0f628a8a6040516114f9929190612673565b60405180910390a461150f848a8a86868a611530565b61151d848a8a8a8a8a6117e5565b505050505050505050565b505050505050565b505050505050565b6115578473ffffffffffffffffffffffffffffffffffffffff166119cc565b15611717578373ffffffffffffffffffffffffffffffffffffffff1663bc197c8187878686866040518663ffffffff1660e01b815260040161159d959493929190612340565b602060405180830381600087803b1580156115b757600080fd5b505af19250505080156115e857506040513d601f19601f820116820180604052508101906115e59190611f14565b60015b61168e576115f4612a46565b806308c379a014156116515750611609612e66565b806116145750611653565b806040517f08c379a00000000000000000000000000000000000000000000000000000000081526004016116489190612476565b60405180910390fd5b505b6040517f08c379a000000000000000000000000000000000000000000000000000000000815260040161168590612638565b60405180910390fd5b63bc197c8160e01b7bffffffffffffffffffffffffffffffffffffffffffffffffffffffff1916817bffffffffffffffffffffffffffffffffffffffffffffffffffffffff191614611715576040517f08c379a000000000000000000000000000000000000000000000000000000000815260040161170c90612498565b60405180910390fd5b505b505050505050565b60606000600167ffffffffffffffff811115611764577f4e487b7100000000000000000000000000000000000000000000000000000000600052604160045260246000fd5b6040519080825280602002602001820160405280156117925781602001602082028036833780820191505090505b50905082816000815181106117d0577f4e487b7100000000000000000000000000000000000000000000000000000000600052603260045260246000fd5b60200260200101818152505080915050919050565b6118048473ffffffffffffffffffffffffffffffffffffffff166119cc565b156119c4578373ffffffffffffffffffffffffffffffffffffffff1663f23a6e6187878686866040518663ffffffff1660e01b815260040161184a9594939291906123a8565b602060405180830381600087803b15801561186457600080fd5b505af192505050801561189557506040513d601f19601f820116820180604052508101906118929190611f14565b60015b61193b576118a1612a46565b806308c379a014156118fe57506118b6612e66565b806118c15750611900565b806040517f08c379a00000000000000000000000000000000000000000000000000000000081526004016118f59190612476565b60405180910390fd5b505b6040517f08c379a000000000000000000000000000000000000000000000000000000000815260040161193290612638565b60405180910390fd5b63f23a6e6160e01b7bffffffffffffffffffffffffffffffffffffffffffffffffffffffff1916817bffffffffffffffffffffffffffffffffffffffffffffffffffffffff1916146119c2576040517f08c379a00000000000000000000000000000000000000000000000000000000081526004016119b990612498565b60405180910390fd5b505b505050505050565b6000808273ffffffffffffffffffffffffffffffffffffffff163b119050919050565b6000611a026119fd846126c1565b61269c565b90508083825260208201905082856020860282011115611a2157600080fd5b60005b85811015611a515781611a378882611b43565b845260208401935060208301925050600181019050611a24565b5050509392505050565b6000611a6e611a69846126ed565b61269c565b90508083825260208201905082856020860282011115611a8d57600080fd5b60005b85811015611abd5781611aa38882611c3f565b845260208401935060208301925050600181019050611a90565b5050509392505050565b6000611ada611ad584612719565b61269c565b905082815260208101848484011115611af257600080fd5b611afd8482856128c1565b509392505050565b6000611b18611b138461274a565b61269c565b905082815260208101848484011115611b3057600080fd5b611b3b8482856128c1565b509392505050565b600081359050611b5281612efc565b92915050565b600082601f830112611b6957600080fd5b8135611b798482602086016119ef565b91505092915050565b600082601f830112611b9357600080fd5b8135611ba3848260208601611a5b565b91505092915050565b600081359050611bbb81612f13565b92915050565b600081359050611bd081612f2a565b92915050565b600081519050611be581612f2a565b92915050565b600082601f830112611bfc57600080fd5b8135611c0c848260208601611ac7565b91505092915050565b600082601f830112611c2657600080fd5b8135611c36848260208601611b05565b91505092915050565b600081359050611c4e81612f41565b92915050565b600060208284031215611c6657600080fd5b6000611c7484828501611b43565b91505092915050565b60008060408385031215611c9057600080fd5b6000611c9e85828601611b43565b9250506020611caf85828601611b43565b9150509250929050565b600080600080600060a08688031215611cd157600080fd5b6000611cdf88828901611b43565b9550506020611cf088828901611b43565b945050604086013567ffffffffffffffff811115611d0d57600080fd5b611d1988828901611b82565b935050606086013567ffffffffffffffff811115611d3657600080fd5b611d4288828901611b82565b925050608086013567ffffffffffffffff811115611d5f57600080fd5b611d6b88828901611beb565b9150509295509295909350565b600080600080600060a08688031215611d9057600080fd5b6000611d9e88828901611b43565b9550506020611daf88828901611b43565b9450506040611dc088828901611c3f565b9350506060611dd188828901611c3f565b925050608086013567ffffffffffffffff811115611dee57600080fd5b611dfa88828901611beb565b9150509295509295909350565b60008060408385031215611e1a57600080fd5b6000611e2885828601611b43565b9250506020611e3985828601611bac565b9150509250929050565b60008060408385031215611e5657600080fd5b6000611e6485828601611b43565b9250506020611e7585828601611c3f565b9150509250929050565b60008060408385031215611e9257600080fd5b600083013567ffffffffffffffff811115611eac57600080fd5b611eb885828601611b58565b925050602083013567ffffffffffffffff811115611ed557600080fd5b611ee185828601611b82565b9150509250929050565b600060208284031215611efd57600080fd5b6000611f0b84828501611bc1565b91505092915050565b600060208284031215611f2657600080fd5b6000611f3484828501611bd6565b91505092915050565b600060208284031215611f4f57600080fd5b600082013567ffffffffffffffff811115611f6957600080fd5b611f7584828501611c15565b91505092915050565b600060208284031215611f9057600080fd5b6000611f9e84828501611c3f565b91505092915050565b6000611fb383836122c8565b60208301905092915050565b611fc88161284d565b82525050565b6000611fd98261278b565b611fe381856127b9565b9350611fee8361277b565b8060005b8381101561201f5781516120068882611fa7565b9750612011836127ac565b925050600181019050611ff2565b5085935050505092915050565b6120358161285f565b82525050565b600061204682612796565b61205081856127ca565b93506120608185602086016128d0565b61206981612a68565b840191505092915050565b600061207f826127a1565b61208981856127db565b93506120998185602086016128d0565b6120a281612a68565b840191505092915050565b60006120b8826127a1565b6120c281856127ec565b93506120d28185602086016128d0565b80840191505092915050565b60006120eb6028836127db565b91506120f682612a86565b604082019050919050565b600061210e6026836127db565b915061211982612ad5565b604082019050919050565b6000612131602a836127db565b915061213c82612b24565b604082019050919050565b6000612154602e836127db565b915061215f82612b73565b604082019050919050565b60006121776017836127db565b915061218282612bc2565b602082019050919050565b600061219a6025836127db565b91506121a582612beb565b604082019050919050565b60006121bd602a836127db565b91506121c882612c3a565b604082019050919050565b60006121e06020836127db565b91506121eb82612c89565b602082019050919050565b6000612203601e836127db565b915061220e82612cb2565b602082019050919050565b60006122266029836127db565b915061223182612cdb565b604082019050919050565b60006122496029836127db565b915061225482612d2a565b604082019050919050565b600061226c6028836127db565b915061227782612d79565b604082019050919050565b600061228f6021836127db565b915061229a82612dc8565b604082019050919050565b60006122b26034836127db565b91506122bd82612e17565b604082019050919050565b6122d1816128b7565b82525050565b6122e0816128b7565b82525050565b6122f76122f2826128b7565b6129af565b82525050565b600061230982856120ad565b915061231582846122e6565b6020820191508190509392505050565b600060208201905061233a6000830184611fbf565b92915050565b600060a0820190506123556000830188611fbf565b6123626020830187611fbf565b81810360408301526123748186611fce565b905081810360608301526123888185611fce565b9050818103608083015261239c818461203b565b90509695505050505050565b600060a0820190506123bd6000830188611fbf565b6123ca6020830187611fbf565b6123d760408301866122d7565b6123e460608301856122d7565b81810360808301526123f6818461203b565b90509695505050505050565b6000602082019050818103600083015261241c8184611fce565b905092915050565b6000604082019050818103600083015261243e8185611fce565b905081810360208301526124528184611fce565b90509392505050565b6000602082019050612470600083018461202c565b92915050565b600060208201905081810360008301526124908184612074565b905092915050565b600060208201905081810360008301526124b1816120de565b9050919050565b600060208201905081810360008301526124d181612101565b9050919050565b600060208201905081810360008301526124f181612124565b9050919050565b6000602082019050818103600083015261251181612147565b9050919050565b600060208201905081810360008301526125318161216a565b9050919050565b600060208201905081810360008301526125518161218d565b9050919050565b60006020820190508181036000830152612571816121b0565b9050919050565b60006020820190508181036000830152612591816121d3565b9050919050565b600060208201905081810360008301526125b1816121f6565b9050919050565b600060208201905081810360008301526125d181612219565b9050919050565b600060208201905081810360008301526125f18161223c565b9050919050565b600060208201905081810360008301526126118161225f565b9050919050565b6000602082019050818103600083015261263181612282565b9050919050565b60006020820190508181036000830152612651816122a5565b9050919050565b600060208201905061266d60008301846122d7565b92915050565b600060408201905061268860008301856122d7565b61269560208301846122d7565b9392505050565b60006126a66126b7565b90506126b28282612935565b919050565b6000604051905090565b600067ffffffffffffffff8211156126dc576126db612a17565b5b602082029050602081019050919050565b600067ffffffffffffffff82111561270857612707612a17565b5b602082029050602081019050919050565b600067ffffffffffffffff82111561273457612733612a17565b5b61273d82612a68565b9050602081019050919050565b600067ffffffffffffffff82111561276557612764612a17565b5b61276e82612a68565b9050602081019050919050565b6000819050602082019050919050565b600081519050919050565b600081519050919050565b600081519050919050565b6000602082019050919050565b600082825260208201905092915050565b600082825260208201905092915050565b600082825260208201905092915050565b600081905092915050565b6000612802826128b7565b915061280d836128b7565b9250827fffffffffffffffffffffffffffffffffffffffffffffffffffffffffffffffff03821115612842576128416129b9565b5b828201905092915050565b600061285882612897565b9050919050565b60008115159050919050565b60007fffffffff0000000000000000000000000000000000000000000000000000000082169050919050565b600073ffffffffffffffffffffffffffffffffffffffff82169050919050565b6000819050919050565b82818337600083830152505050565b60005b838110156128ee5780820151818401526020810190506128d3565b838111156128fd576000848401525b50505050565b6000600282049050600182168061291b57607f821691505b6020821081141561292f5761292e6129e8565b5b50919050565b61293e82612a68565b810181811067ffffffffffffffff8211171561295d5761295c612a17565b5b80604052505050565b6000612971826128b7565b91507fffffffffffffffffffffffffffffffffffffffffffffffffffffffffffffffff8214156129a4576129a36129b9565b5b600182019050919050565b6000819050919050565b7f4e487b7100000000000000000000000000000000000000000000000000000000600052601160045260246000fd5b7f4e487b7100000000000000000000000000000000000000000000000000000000600052602260045260246000fd5b7f4e487b7100000000000000000000000000000000000000000000000000000000600052604160045260246000fd5b600060033d1115612a655760046000803e612a62600051612a79565b90505b90565b6000601f19601f8301169050919050565b60008160e01c9050919050565b7f455243313135353a204552433131353552656365697665722072656a6563746560008201527f6420746f6b656e73000000000000000000000000000000000000000000000000602082015250565b7f4f776e61626c653a206e6577206f776e657220697320746865207a65726f206160008201527f6464726573730000000000000000000000000000000000000000000000000000602082015250565b7f455243313135353a2061646472657373207a65726f206973206e6f742061207660008201527f616c6964206f776e657200000000000000000000000000000000000000000000602082015250565b7f455243313135353a2063616c6c6572206973206e6f7420746f6b656e206f776e60008201527f6572206f7220617070726f766564000000000000000000000000000000000000602082015250565b7f546f6b656e20494420646f6573206e6f74206578697374000000000000000000600082015250565b7f455243313135353a207472616e7366657220746f20746865207a65726f20616460008201527f6472657373000000000000000000000000000000000000000000000000000000602082015250565b7f455243313135353a20696e73756666696369656e742062616c616e636520666f60008201527f72207472616e7366657200000000000000000000000000000000000000000000602082015250565b7f4f776e61626c653a2063616c6c6572206973206e6f7420746865206f776e6572600082015250565b7f557365722068617320616c7265616479206d696e74656420616e204e46540000600082015250565b7f455243313135353a2073657474696e6720617070726f76616c2073746174757360008201527f20666f722073656c660000000000000000000000000000000000000000000000602082015250565b7f455243313135353a206163636f756e747320616e6420696473206c656e67746860008201527f206d69736d617463680000000000000000000000000000000000000000000000602082015250565b7f455243313135353a2069647320616e6420616d6f756e7473206c656e6774682060008201527f6d69736d61746368000000000000000000000000000000000000000000000000602082015250565b7f455243313135353a206d696e7420746f20746865207a65726f2061646472657360008201527f7300000000000000000000000000000000000000000000000000000000000000602082015250565b7f455243313135353a207472616e7366657220746f206e6f6e2d4552433131353560008201527f526563656976657220696d706c656d656e746572000000000000000000000000602082015250565b600060443d1015612e7657612ef9565b612e7e6126b7565b60043d036004823e80513d602482011167ffffffffffffffff82111715612ea6575050612ef9565b808201805167ffffffffffffffff811115612ec45750505050612ef9565b80602083010160043d038501811115612ee1575050505050612ef9565b612ef082602001850186612935565b82955050505050505b90565b612f058161284d565b8114612f1057600080fd5b50565b612f1c8161285f565b8114612f2757600080fd5b50565b612f338161286b565b8114612f3e57600080fd5b50565b612f4a816128b7565b8114612f5557600080fd5b5056fea26469706673582212205746c0da3f9897a9a8e025fee28a1b95fd6291d4f0546a7b2ac94eaa35040f7264736f6c63430008010033",
  "immutableReferences": {},
  "source": "// SPDX-License-Identifier: MIT\r\npragma solidity ^0.8.0;\r\n\r\nimport \"@openzeppelin/contracts/token/ERC1155/ERC1155.sol\";\r\nimport \"@openzeppelin/contracts/access/Ownable.sol\";\r\n\r\ncontract NFTMembershipToken is ERC1155, Ownable {\r\n    uint256 private nextTokenId = 0;\r\n\r\n    event NFTMinted(address indexed owner, uint256 indexed tokenId, string metadataURI);\r\n\r\n    constructor() ERC1155(\"NFT Membership Token\") {} //Should this just be a string instead, string public baseURI = \"\";?\r\n\r\n    function mint(string memory _metadataURI) external {\r\n        require(balanceOf(msg.sender, nextTokenId) == 0, \"User has already minted an NFT\");\r\n        emit NFTMinted(msg.sender, nextTokenId, _metadataURI);\r\n        nextTokenId++;\r\n        _mint(msg.sender, nextTokenId, 1, \"\");\r\n    }\r\n\r\n    function uri(uint256 _id) public view override returns (string memory) { //maybe change to off-chain storage?\r\n        require(_id < nextTokenId, \"Token ID does not exist\");\r\n        return string(abi.encodePacked(super.uri(0), _id));\r\n    }\r\n}\r\n\r\n",
  "sourcePath": "C:\\Users\\i\\Documents\\GitHub\\DSP\\contracts\\contracts\\NFTMembershipToken.sol",
  "compiler": {
    "name": "solc",
    "version": "0.8.1+commit.df193b15.Emscripten.clang"
  },
  "schemaVersion": "3.4.16",
  "updatedAt": "2024-03-18T14:38:54.550Z",
  "networkType": "ethereum",
  "devdoc": {
    "kind": "dev",
    "methods": {
      "balanceOf(address,uint256)": {
        "details": "See {IERC1155-balanceOf}. Requirements: - `account` cannot be the zero address."
      },
      "balanceOfBatch(address[],uint256[])": {
        "details": "See {IERC1155-balanceOfBatch}. Requirements: - `accounts` and `ids` must have the same length."
      },
      "isApprovedForAll(address,address)": {
        "details": "See {IERC1155-isApprovedForAll}."
      },
      "owner()": {
        "details": "Returns the address of the current owner."
      },
      "renounceOwnership()": {
        "details": "Leaves the contract without owner. It will not be possible to call `onlyOwner` functions. Can only be called by the current owner. NOTE: Renouncing ownership will leave the contract without an owner, thereby disabling any functionality that is only available to the owner."
      },
      "safeBatchTransferFrom(address,address,uint256[],uint256[],bytes)": {
        "details": "See {IERC1155-safeBatchTransferFrom}."
      },
      "safeTransferFrom(address,address,uint256,uint256,bytes)": {
        "details": "See {IERC1155-safeTransferFrom}."
      },
      "setApprovalForAll(address,bool)": {
        "details": "See {IERC1155-setApprovalForAll}."
      },
      "supportsInterface(bytes4)": {
        "details": "See {IERC165-supportsInterface}."
      },
      "transferOwnership(address)": {
        "details": "Transfers ownership of the contract to a new account (`newOwner`). Can only be called by the current owner."
      }
    },
    "version": 1
  },
  "userdoc": {
    "kind": "user",
    "methods": {},
    "version": 1
  }
}