{
  "contractName": "SDVDiscountNFT",
  "abi": [
    {
      "inputs": [
        {
          "internalType": "string",
          "name": "_baseURI",
          "type": "string"
        }
      ],
      "stateMutability": "nonpayable",
      "type": "constructor"
    },
    {
      "anonymous": false,
      "inputs": [
        {
          "indexed": true,
          "internalType": "address",
          "name": "account",
          "type": "address"
        },
        {
          "indexed": true,
          "internalType": "address",
          "name": "operator",
          "type": "address"
        },
        {
          "indexed": false,
          "internalType": "bool",
          "name": "approved",
          "type": "bool"
        }
      ],
      "name": "ApprovalForAll",
      "type": "event"
    },
    {
      "anonymous": false,
      "inputs": [
        {
          "indexed": true,
          "internalType": "uint256",
          "name": "tokenId",
          "type": "uint256"
        },
        {
          "indexed": false,
          "internalType": "uint256",
          "name": "initialSupply",
          "type": "uint256"
        },
        {
          "indexed": false,
          "internalType": "uint256",
          "name": "offchainPoints",
          "type": "uint256"
        }
      ],
      "name": "NFTMinted",
      "type": "event"
    },
    {
      "anonymous": false,
      "inputs": [
        {
          "indexed": true,
          "internalType": "address",
          "name": "buyer",
          "type": "address"
        },
        {
          "indexed": true,
          "internalType": "uint256",
          "name": "tokenId",
          "type": "uint256"
        },
        {
          "indexed": false,
          "internalType": "uint256",
          "name": "amount",
          "type": "uint256"
        }
      ],
      "name": "NFTPurchased",
      "type": "event"
    },
    {
      "anonymous": false,
      "inputs": [
        {
          "indexed": true,
          "internalType": "address",
          "name": "previousOwner",
          "type": "address"
        },
        {
          "indexed": true,
          "internalType": "address",
          "name": "newOwner",
          "type": "address"
        }
      ],
      "name": "OwnershipTransferred",
      "type": "event"
    },
    {
      "anonymous": false,
      "inputs": [
        {
          "indexed": true,
          "internalType": "address",
          "name": "operator",
          "type": "address"
        },
        {
          "indexed": true,
          "internalType": "address",
          "name": "from",
          "type": "address"
        },
        {
          "indexed": true,
          "internalType": "address",
          "name": "to",
          "type": "address"
        },
        {
          "indexed": false,
          "internalType": "uint256[]",
          "name": "ids",
          "type": "uint256[]"
        },
        {
          "indexed": false,
          "internalType": "uint256[]",
          "name": "values",
          "type": "uint256[]"
        }
      ],
      "name": "TransferBatch",
      "type": "event"
    },
    {
      "anonymous": false,
      "inputs": [
        {
          "indexed": true,
          "internalType": "address",
          "name": "operator",
          "type": "address"
        },
        {
          "indexed": true,
          "internalType": "address",
          "name": "from",
          "type": "address"
        },
        {
          "indexed": true,
          "internalType": "address",
          "name": "to",
          "type": "address"
        },
        {
          "indexed": false,
          "internalType": "uint256",
          "name": "id",
          "type": "uint256"
        },
        {
          "indexed": false,
          "internalType": "uint256",
          "name": "value",
          "type": "uint256"
        }
      ],
      "name": "TransferSingle",
      "type": "event"
    },
    {
      "anonymous": false,
      "inputs": [
        {
          "indexed": false,
          "internalType": "string",
          "name": "value",
          "type": "string"
        },
        {
          "indexed": true,
          "internalType": "uint256",
          "name": "id",
          "type": "uint256"
        }
      ],
      "name": "URI",
      "type": "event"
    },
    {
      "inputs": [
        {
          "internalType": "address",
          "name": "account",
          "type": "address"
        },
        {
          "internalType": "uint256",
          "name": "id",
          "type": "uint256"
        }
      ],
      "name": "balanceOf",
      "outputs": [
        {
          "internalType": "uint256",
          "name": "",
          "type": "uint256"
        }
      ],
      "stateMutability": "view",
      "type": "function",
      "constant": true
    },
    {
      "inputs": [
        {
          "internalType": "address[]",
          "name": "accounts",
          "type": "address[]"
        },
        {
          "internalType": "uint256[]",
          "name": "ids",
          "type": "uint256[]"
        }
      ],
      "name": "balanceOfBatch",
      "outputs": [
        {
          "internalType": "uint256[]",
          "name": "",
          "type": "uint256[]"
        }
      ],
      "stateMutability": "view",
      "type": "function",
      "constant": true
    },
    {
      "inputs": [],
      "name": "baseURI",
      "outputs": [
        {
          "internalType": "string",
          "name": "",
          "type": "string"
        }
      ],
      "stateMutability": "view",
      "type": "function",
      "constant": true
    },
    {
      "inputs": [
        {
          "internalType": "address",
          "name": "account",
          "type": "address"
        },
        {
          "internalType": "address",
          "name": "operator",
          "type": "address"
        }
      ],
      "name": "isApprovedForAll",
      "outputs": [
        {
          "internalType": "bool",
          "name": "",
          "type": "bool"
        }
      ],
      "stateMutability": "view",
      "type": "function",
      "constant": true
    },
    {
      "inputs": [
        {
          "internalType": "uint256",
          "name": "",
          "type": "uint256"
        }
      ],
      "name": "nfts",
      "outputs": [
        {
          "internalType": "uint256",
          "name": "initialSupply",
          "type": "uint256"
        },
        {
          "internalType": "uint256",
          "name": "offchainPoints",
          "type": "uint256"
        },
        {
          "internalType": "uint256",
          "name": "remainingAmount",
          "type": "uint256"
        }
      ],
      "stateMutability": "view",
      "type": "function",
      "constant": true
    },
    {
      "inputs": [],
      "name": "owner",
      "outputs": [
        {
          "internalType": "address",
          "name": "",
          "type": "address"
        }
      ],
      "stateMutability": "view",
      "type": "function",
      "constant": true
    },
    {
      "inputs": [],
      "name": "renounceOwnership",
      "outputs": [],
      "stateMutability": "nonpayable",
      "type": "function"
    },
    {
      "inputs": [
        {
          "internalType": "address",
          "name": "from",
          "type": "address"
        },
        {
          "internalType": "address",
          "name": "to",
          "type": "address"
        },
        {
          "internalType": "uint256[]",
          "name": "ids",
          "type": "uint256[]"
        },
        {
          "internalType": "uint256[]",
          "name": "amounts",
          "type": "uint256[]"
        },
        {
          "internalType": "bytes",
          "name": "data",
          "type": "bytes"
        }
      ],
      "name": "safeBatchTransferFrom",
      "outputs": [],
      "stateMutability": "nonpayable",
      "type": "function"
    },
    {
      "inputs": [
        {
          "internalType": "address",
          "name": "from",
          "type": "address"
        },
        {
          "internalType": "address",
          "name": "to",
          "type": "address"
        },
        {
          "internalType": "uint256",
          "name": "id",
          "type": "uint256"
        },
        {
          "internalType": "uint256",
          "name": "amount",
          "type": "uint256"
        },
        {
          "internalType": "bytes",
          "name": "data",
          "type": "bytes"
        }
      ],
      "name": "safeTransferFrom",
      "outputs": [],
      "stateMutability": "nonpayable",
      "type": "function"
    },
    {
      "inputs": [
        {
          "internalType": "address",
          "name": "operator",
          "type": "address"
        },
        {
          "internalType": "bool",
          "name": "approved",
          "type": "bool"
        }
      ],
      "name": "setApprovalForAll",
      "outputs": [],
      "stateMutability": "nonpayable",
      "type": "function"
    },
    {
      "inputs": [
        {
          "internalType": "bytes4",
          "name": "interfaceId",
          "type": "bytes4"
        }
      ],
      "name": "supportsInterface",
      "outputs": [
        {
          "internalType": "bool",
          "name": "",
          "type": "bool"
        }
      ],
      "stateMutability": "view",
      "type": "function",
      "constant": true
    },
    {
      "inputs": [
        {
          "internalType": "address",
          "name": "newOwner",
          "type": "address"
        }
      ],
      "name": "transferOwnership",
      "outputs": [],
      "stateMutability": "nonpayable",
      "type": "function"
    },
    {
      "inputs": [
        {
          "internalType": "uint256",
          "name": "initialSupply",
          "type": "uint256"
        },
        {
          "internalType": "uint256",
          "name": "offchainPoints",
          "type": "uint256"
        }
      ],
      "name": "mint",
      "outputs": [],
      "stateMutability": "nonpayable",
      "type": "function"
    },
    {
      "inputs": [
        {
          "internalType": "uint256",
          "name": "tokenId",
          "type": "uint256"
        },
        {
          "internalType": "uint256",
          "name": "amount",
          "type": "uint256"
        }
      ],
      "name": "purchaseNFTWithPoints",
      "outputs": [],
      "stateMutability": "nonpayable",
      "type": "function"
    },
    {
      "inputs": [
        {
          "internalType": "uint256",
          "name": "tokenId",
          "type": "uint256"
        }
      ],
      "name": "uri",
      "outputs": [
        {
          "internalType": "string",
          "name": "",
          "type": "string"
        }
      ],
      "stateMutability": "view",
      "type": "function",
      "constant": true
    }
  ],
  "bytecode": "0x608060405260016005553480156200001657600080fd5b5060405162003a9e38038062003a9e83398181016040528101906200003c9190620002aa565b604051806020016040528060008152506200005d816200009e60201b60201c565b506200007e62000072620000ba60201b60201c565b620000c260201b60201c565b80600690805190602001906200009692919062000188565b50506200045f565b8060029080519060200190620000b692919062000188565b5050565b600033905090565b6000600360009054906101000a900473ffffffffffffffffffffffffffffffffffffffff16905081600360006101000a81548173ffffffffffffffffffffffffffffffffffffffff021916908373ffffffffffffffffffffffffffffffffffffffff1602179055508173ffffffffffffffffffffffffffffffffffffffff168173ffffffffffffffffffffffffffffffffffffffff167f8be0079c531659141344cd1fd0a4f28419497f9722a3daafe3b4186f6b6457e060405160405180910390a35050565b828054620001969062000384565b90600052602060002090601f016020900481019282620001ba576000855562000206565b82601f10620001d557805160ff191683800117855562000206565b8280016001018555821562000206579182015b8281111562000205578251825591602001919060010190620001e8565b5b50905062000215919062000219565b5090565b5b80821115620002345760008160009055506001016200021a565b5090565b60006200024f620002498462000318565b620002ef565b9050828152602081018484840111156200026857600080fd5b620002758482856200034e565b509392505050565b600082601f8301126200028f57600080fd5b8151620002a184826020860162000238565b91505092915050565b600060208284031215620002bd57600080fd5b600082015167ffffffffffffffff811115620002d857600080fd5b620002e6848285016200027d565b91505092915050565b6000620002fb6200030e565b9050620003098282620003ba565b919050565b6000604051905090565b600067ffffffffffffffff8211156200033657620003356200041f565b5b62000341826200044e565b9050602081019050919050565b60005b838110156200036e57808201518184015260208101905062000351565b838111156200037e576000848401525b50505050565b600060028204905060018216806200039d57607f821691505b60208210811415620003b457620003b3620003f0565b5b50919050565b620003c5826200044e565b810181811067ffffffffffffffff82111715620003e757620003e66200041f565b5b80604052505050565b7f4e487b7100000000000000000000000000000000000000000000000000000000600052602260045260246000fd5b7f4e487b7100000000000000000000000000000000000000000000000000000000600052604160045260246000fd5b6000601f19601f8301169050919050565b61362f806200046f6000396000f3fe608060405234801561001057600080fd5b50600436106100f45760003560e01c80636c0360eb11610097578063a22cb46511610066578063a22cb46514610285578063e985e9c5146102a1578063f242432a146102d1578063f2fde38b146102ed576100f4565b80636c0360eb14610223578063715018a614610241578063884261941461024b5780638da5cb5b14610267576100f4565b80631b2ef1ca116100d35780631b2ef1ca14610189578063265aa621146101a55780632eb2c2d6146101d75780634e1273f4146101f3576100f4565b8062fdd58e146100f957806301ffc9a7146101295780630e89341c14610159575b600080fd5b610113600480360381019061010e919061237d565b610309565b6040516101209190612c62565b60405180910390f35b610143600480360381019061013e9190612425565b6103d2565b6040516101509190612a45565b60405180910390f35b610173600480360381019061016e9190612477565b6104b4565b6040516101809190612a60565b60405180910390f35b6101a3600480360381019061019e91906124a0565b61052c565b005b6101bf60048036038101906101ba9190612477565b6105ff565b6040516101ce93929190612ca6565b60405180910390f35b6101f160048036038101906101ec91906121f3565b610629565b005b61020d600480360381019061020891906123b9565b6106ca565b60405161021a91906129ec565b60405180910390f35b61022b61087b565b6040516102389190612a60565b60405180910390f35b610249610909565b005b610265600480360381019061026091906124a0565b61091d565b005b61026f610a98565b60405161027c919061290f565b60405180910390f35b61029f600480360381019061029a9190612341565b610ac2565b005b6102bb60048036038101906102b691906121b7565b610ad8565b6040516102c89190612a45565b60405180910390f35b6102eb60048036038101906102e691906122b2565b610b6c565b005b6103076004803603810190610302919061218e565b610c0d565b005b60008073ffffffffffffffffffffffffffffffffffffffff168373ffffffffffffffffffffffffffffffffffffffff16141561037a576040517f08c379a000000000000000000000000000000000000000000000000000000000815260040161037190612ae2565b60405180910390fd5b60008083815260200190815260200160002060008473ffffffffffffffffffffffffffffffffffffffff1673ffffffffffffffffffffffffffffffffffffffff16815260200190815260200160002054905092915050565b60007fd9b67a26000000000000000000000000000000000000000000000000000000007bffffffffffffffffffffffffffffffffffffffffffffffffffffffff1916827bffffffffffffffffffffffffffffffffffffffffffffffffffffffff1916148061049d57507f0e89341c000000000000000000000000000000000000000000000000000000007bffffffffffffffffffffffffffffffffffffffffffffffffffffffff1916827bffffffffffffffffffffffffffffffffffffffffffffffffffffffff1916145b806104ad57506104ac82610c91565b5b9050919050565b606060055482106104fa576040517f08c379a00000000000000000000000000000000000000000000000000000000081526004016104f190612b22565b60405180910390fd5b600661050583610cfb565b6040516020016105169291906128e0565b6040516020818303038152906040529050919050565b610534610e1f565b60006005600081548092919061054990612fbf565b91905055905060405180606001604052808481526020018381526020018481525060046000838152602001908152602001600020600082015181600001556020820151816001015560408201518160020155905050807fe5177288d661448b7d383a5e5f1be3886695859c8c327562a87df71d65e21ac284846040516105d0929190612c7d565b60405180910390a26105fa6105e3610a98565b828560405180602001604052806000815250610e9d565b505050565b60046020528060005260406000206000915090508060000154908060010154908060020154905083565b61063161104e565b73ffffffffffffffffffffffffffffffffffffffff168573ffffffffffffffffffffffffffffffffffffffff16148061067757506106768561067161104e565b610ad8565b5b6106b6576040517f08c379a00000000000000000000000000000000000000000000000000000000081526004016106ad90612b02565b60405180910390fd5b6106c38585858585611056565b5050505050565b60608151835114610710576040517f08c379a000000000000000000000000000000000000000000000000000000000815260040161070790612bc2565b60405180910390fd5b6000835167ffffffffffffffff811115610753577f4e487b7100000000000000000000000000000000000000000000000000000000600052604160045260246000fd5b6040519080825280602002602001820160405280156107815781602001602082028036833780820191505090505b50905060005b84518110156108705761081a8582815181106107cc577f4e487b7100000000000000000000000000000000000000000000000000000000600052603260045260246000fd5b602002602001015185838151811061080d577f4e487b7100000000000000000000000000000000000000000000000000000000600052603260045260246000fd5b6020026020010151610309565b828281518110610853577f4e487b7100000000000000000000000000000000000000000000000000000000600052603260045260246000fd5b6020026020010181815250508061086990612fbf565b9050610787565b508091505092915050565b6006805461088890612f5c565b80601f01602080910402602001604051908101604052809291908181526020018280546108b490612f5c565b80156109015780601f106108d657610100808354040283529160200191610901565b820191906000526020600020905b8154815290600101906020018083116108e457829003601f168201915b505050505081565b610911610e1f565b61091b60006113c4565b565b6005548210610961576040517f08c379a000000000000000000000000000000000000000000000000000000000815260040161095890612b22565b60405180910390fd5b60046000838152602001908152602001600020600201548111156109ba576040517f08c379a00000000000000000000000000000000000000000000000000000000081526004016109b190612be2565b60405180910390fd5b600081116109fd576040517f08c379a00000000000000000000000000000000000000000000000000000000081526004016109f490612ac2565b60405180910390fd5b813373ffffffffffffffffffffffffffffffffffffffff167fa6d32bfcc7cd31e4d5ee7adeef7edd500cab0e64b4a494de4f832d41fd70f56d83604051610a449190612c62565b60405180910390a380600460008481526020019081526020016000206002016000828254610a729190612e72565b92505081905550610a9433838360405180602001604052806000815250610e9d565b5050565b6000600360009054906101000a900473ffffffffffffffffffffffffffffffffffffffff16905090565b610ad4610acd61104e565b838361148a565b5050565b6000600160008473ffffffffffffffffffffffffffffffffffffffff1673ffffffffffffffffffffffffffffffffffffffff16815260200190815260200160002060008373ffffffffffffffffffffffffffffffffffffffff1673ffffffffffffffffffffffffffffffffffffffff16815260200190815260200160002060009054906101000a900460ff16905092915050565b610b7461104e565b73ffffffffffffffffffffffffffffffffffffffff168573ffffffffffffffffffffffffffffffffffffffff161480610bba5750610bb985610bb461104e565b610ad8565b5b610bf9576040517f08c379a0000000000000000000000000000000000000000000000000000000008152600401610bf090612b02565b60405180910390fd5b610c0685858585856115f7565b5050505050565b610c15610e1f565b600073ffffffffffffffffffffffffffffffffffffffff168173ffffffffffffffffffffffffffffffffffffffff161415610c85576040517f08c379a0000000000000000000000000000000000000000000000000000000008152600401610c7c90612aa2565b60405180910390fd5b610c8e816113c4565b50565b60007f01ffc9a7000000000000000000000000000000000000000000000000000000007bffffffffffffffffffffffffffffffffffffffffffffffffffffffff1916827bffffffffffffffffffffffffffffffffffffffffffffffffffffffff1916149050919050565b606060006001610d0a84611893565b01905060008167ffffffffffffffff811115610d4f577f4e487b7100000000000000000000000000000000000000000000000000000000600052604160045260246000fd5b6040519080825280601f01601f191660200182016040528015610d815781602001600182028036833780820191505090505b509050600082602001820190505b600115610e14578080600190039150507f3031323334353637383961626364656600000000000000000000000000000000600a86061a8153600a8581610dfe577f4e487b7100000000000000000000000000000000000000000000000000000000600052601260045260246000fd5b0494506000851415610e0f57610e14565b610d8f565b819350505050919050565b610e2761104e565b73ffffffffffffffffffffffffffffffffffffffff16610e45610a98565b73ffffffffffffffffffffffffffffffffffffffff1614610e9b576040517f08c379a0000000000000000000000000000000000000000000000000000000008152600401610e9290612b82565b60405180910390fd5b565b600073ffffffffffffffffffffffffffffffffffffffff168473ffffffffffffffffffffffffffffffffffffffff161415610f0d576040517f08c379a0000000000000000000000000000000000000000000000000000000008152600401610f0490612c22565b60405180910390fd5b6000610f1761104e565b90506000610f2485611aca565b90506000610f3185611aca565b9050610f4283600089858589611b90565b8460008088815260200190815260200160002060008973ffffffffffffffffffffffffffffffffffffffff1673ffffffffffffffffffffffffffffffffffffffff1681526020019081526020016000206000828254610fa19190612e1c565b925050819055508673ffffffffffffffffffffffffffffffffffffffff16600073ffffffffffffffffffffffffffffffffffffffff168473ffffffffffffffffffffffffffffffffffffffff167fc3d58168c5ae7397731d063d5bbf3d657854427343f4c083240f7aacaa2d0f62898960405161101f929190612c7d565b60405180910390a461103683600089858589611b98565b61104583600089898989611ba0565b50505050505050565b600033905090565b815183511461109a576040517f08c379a000000000000000000000000000000000000000000000000000000000815260040161109190612c02565b60405180910390fd5b600073ffffffffffffffffffffffffffffffffffffffff168473ffffffffffffffffffffffffffffffffffffffff16141561110a576040517f08c379a000000000000000000000000000000000000000000000000000000000815260040161110190612b42565b60405180910390fd5b600061111461104e565b9050611124818787878787611b90565b60005b845181101561132157600085828151811061116b577f4e487b7100000000000000000000000000000000000000000000000000000000600052603260045260246000fd5b6020026020010151905060008583815181106111b0577f4e487b7100000000000000000000000000000000000000000000000000000000600052603260045260246000fd5b60200260200101519050600080600084815260200190815260200160002060008b73ffffffffffffffffffffffffffffffffffffffff1673ffffffffffffffffffffffffffffffffffffffff16815260200190815260200160002054905081811015611251576040517f08c379a000000000000000000000000000000000000000000000000000000000815260040161124890612b62565b60405180910390fd5b81810360008085815260200190815260200160002060008c73ffffffffffffffffffffffffffffffffffffffff1673ffffffffffffffffffffffffffffffffffffffff168152602001908152602001600020819055508160008085815260200190815260200160002060008b73ffffffffffffffffffffffffffffffffffffffff1673ffffffffffffffffffffffffffffffffffffffff16815260200190815260200160002060008282546113069190612e1c565b925050819055505050508061131a90612fbf565b9050611127565b508473ffffffffffffffffffffffffffffffffffffffff168673ffffffffffffffffffffffffffffffffffffffff168273ffffffffffffffffffffffffffffffffffffffff167f4a39dc06d4c0dbc64b70af90fd698a233a518aa5d07e595d983b8c0526c8f7fb8787604051611398929190612a0e565b60405180910390a46113ae818787878787611b98565b6113bc818787878787611d87565b505050505050565b6000600360009054906101000a900473ffffffffffffffffffffffffffffffffffffffff16905081600360006101000a81548173ffffffffffffffffffffffffffffffffffffffff021916908373ffffffffffffffffffffffffffffffffffffffff1602179055508173ffffffffffffffffffffffffffffffffffffffff168173ffffffffffffffffffffffffffffffffffffffff167f8be0079c531659141344cd1fd0a4f28419497f9722a3daafe3b4186f6b6457e060405160405180910390a35050565b8173ffffffffffffffffffffffffffffffffffffffff168373ffffffffffffffffffffffffffffffffffffffff1614156114f9576040517f08c379a00000000000000000000000000000000000000000000000000000000081526004016114f090612ba2565b60405180910390fd5b80600160008573ffffffffffffffffffffffffffffffffffffffff1673ffffffffffffffffffffffffffffffffffffffff16815260200190815260200160002060008473ffffffffffffffffffffffffffffffffffffffff1673ffffffffffffffffffffffffffffffffffffffff16815260200190815260200160002060006101000a81548160ff0219169083151502179055508173ffffffffffffffffffffffffffffffffffffffff168373ffffffffffffffffffffffffffffffffffffffff167f17307eab39ab6107e8899845ad3d59bd9653f200f220920489ca2b5937696c31836040516115ea9190612a45565b60405180910390a3505050565b600073ffffffffffffffffffffffffffffffffffffffff168473ffffffffffffffffffffffffffffffffffffffff161415611667576040517f08c379a000000000000000000000000000000000000000000000000000000000815260040161165e90612b42565b60405180910390fd5b600061167161104e565b9050600061167e85611aca565b9050600061168b85611aca565b905061169b838989858589611b90565b600080600088815260200190815260200160002060008a73ffffffffffffffffffffffffffffffffffffffff1673ffffffffffffffffffffffffffffffffffffffff16815260200190815260200160002054905085811015611732576040517f08c379a000000000000000000000000000000000000000000000000000000000815260040161172990612b62565b60405180910390fd5b85810360008089815260200190815260200160002060008b73ffffffffffffffffffffffffffffffffffffffff1673ffffffffffffffffffffffffffffffffffffffff168152602001908152602001600020819055508560008089815260200190815260200160002060008a73ffffffffffffffffffffffffffffffffffffffff1673ffffffffffffffffffffffffffffffffffffffff16815260200190815260200160002060008282546117e79190612e1c565b925050819055508773ffffffffffffffffffffffffffffffffffffffff168973ffffffffffffffffffffffffffffffffffffffff168573ffffffffffffffffffffffffffffffffffffffff167fc3d58168c5ae7397731d063d5bbf3d657854427343f4c083240f7aacaa2d0f628a8a604051611864929190612c7d565b60405180910390a461187a848a8a86868a611b98565b611888848a8a8a8a8a611ba0565b505050505050505050565b600080600090507a184f03e93ff9f4daa797ed6e38ed64bf6a1f0100000000000000008310611917577a184f03e93ff9f4daa797ed6e38ed64bf6a1f010000000000000000838161190d577f4e487b7100000000000000000000000000000000000000000000000000000000600052601260045260246000fd5b0492506040810190505b6d04ee2d6d415b85acef8100000000831061197a576d04ee2d6d415b85acef81000000008381611970577f4e487b7100000000000000000000000000000000000000000000000000000000600052601260045260246000fd5b0492506020810190505b662386f26fc1000083106119cf57662386f26fc1000083816119c5577f4e487b7100000000000000000000000000000000000000000000000000000000600052601260045260246000fd5b0492506010810190505b6305f5e1008310611a1e576305f5e1008381611a14577f4e487b7100000000000000000000000000000000000000000000000000000000600052601260045260246000fd5b0492506008810190505b6127108310611a69576127108381611a5f577f4e487b7100000000000000000000000000000000000000000000000000000000600052601260045260246000fd5b0492506004810190505b60648310611ab25760648381611aa8577f4e487b7100000000000000000000000000000000000000000000000000000000600052601260045260246000fd5b0492506002810190505b600a8310611ac1576001810190505b80915050919050565b60606000600167ffffffffffffffff811115611b0f577f4e487b7100000000000000000000000000000000000000000000000000000000600052604160045260246000fd5b604051908082528060200260200182016040528015611b3d5781602001602082028036833780820191505090505b5090508281600081518110611b7b577f4e487b7100000000000000000000000000000000000000000000000000000000600052603260045260246000fd5b60200260200101818152505080915050919050565b505050505050565b505050505050565b611bbf8473ffffffffffffffffffffffffffffffffffffffff16611f6e565b15611d7f578373ffffffffffffffffffffffffffffffffffffffff1663f23a6e6187878686866040518663ffffffff1660e01b8152600401611c05959493929190612992565b602060405180830381600087803b158015611c1f57600080fd5b505af1925050508015611c5057506040513d601f19601f82011682018060405250810190611c4d919061244e565b60015b611cf657611c5c613095565b806308c379a01415611cb95750611c71613507565b80611c7c5750611cbb565b806040517f08c379a0000000000000000000000000000000000000000000000000000000008152600401611cb09190612a60565b60405180910390fd5b505b6040517f08c379a0000000000000000000000000000000000000000000000000000000008152600401611ced90612c42565b60405180910390fd5b63f23a6e6160e01b7bffffffffffffffffffffffffffffffffffffffffffffffffffffffff1916817bffffffffffffffffffffffffffffffffffffffffffffffffffffffff191614611d7d576040517f08c379a0000000000000000000000000000000000000000000000000000000008152600401611d7490612a82565b60405180910390fd5b505b505050505050565b611da68473ffffffffffffffffffffffffffffffffffffffff16611f6e565b15611f66578373ffffffffffffffffffffffffffffffffffffffff1663bc197c8187878686866040518663ffffffff1660e01b8152600401611dec95949392919061292a565b602060405180830381600087803b158015611e0657600080fd5b505af1925050508015611e3757506040513d601f19601f82011682018060405250810190611e34919061244e565b60015b611edd57611e43613095565b806308c379a01415611ea05750611e58613507565b80611e635750611ea2565b806040517f08c379a0000000000000000000000000000000000000000000000000000000008152600401611e979190612a60565b60405180910390fd5b505b6040517f08c379a0000000000000000000000000000000000000000000000000000000008152600401611ed490612c42565b60405180910390fd5b63bc197c8160e01b7bffffffffffffffffffffffffffffffffffffffffffffffffffffffff1916817bffffffffffffffffffffffffffffffffffffffffffffffffffffffff191614611f64576040517f08c379a0000000000000000000000000000000000000000000000000000000008152600401611f5b90612a82565b60405180910390fd5b505b505050505050565b6000808273ffffffffffffffffffffffffffffffffffffffff163b119050919050565b6000611fa4611f9f84612d02565b612cdd565b90508083825260208201905082856020860282011115611fc357600080fd5b60005b85811015611ff35781611fd988826120a7565b845260208401935060208301925050600181019050611fc6565b5050509392505050565b600061201061200b84612d2e565b612cdd565b9050808382526020820190508285602086028201111561202f57600080fd5b60005b8581101561205f57816120458882612179565b845260208401935060208301925050600181019050612032565b5050509392505050565b600061207c61207784612d5a565b612cdd565b90508281526020810184848401111561209457600080fd5b61209f848285612f1a565b509392505050565b6000813590506120b68161359d565b92915050565b600082601f8301126120cd57600080fd5b81356120dd848260208601611f91565b91505092915050565b600082601f8301126120f757600080fd5b8135612107848260208601611ffd565b91505092915050565b60008135905061211f816135b4565b92915050565b600081359050612134816135cb565b92915050565b600081519050612149816135cb565b92915050565b600082601f83011261216057600080fd5b8135612170848260208601612069565b91505092915050565b600081359050612188816135e2565b92915050565b6000602082840312156121a057600080fd5b60006121ae848285016120a7565b91505092915050565b600080604083850312156121ca57600080fd5b60006121d8858286016120a7565b92505060206121e9858286016120a7565b9150509250929050565b600080600080600060a0868803121561220b57600080fd5b6000612219888289016120a7565b955050602061222a888289016120a7565b945050604086013567ffffffffffffffff81111561224757600080fd5b612253888289016120e6565b935050606086013567ffffffffffffffff81111561227057600080fd5b61227c888289016120e6565b925050608086013567ffffffffffffffff81111561229957600080fd5b6122a58882890161214f565b9150509295509295909350565b600080600080600060a086880312156122ca57600080fd5b60006122d8888289016120a7565b95505060206122e9888289016120a7565b94505060406122fa88828901612179565b935050606061230b88828901612179565b925050608086013567ffffffffffffffff81111561232857600080fd5b6123348882890161214f565b9150509295509295909350565b6000806040838503121561235457600080fd5b6000612362858286016120a7565b925050602061237385828601612110565b9150509250929050565b6000806040838503121561239057600080fd5b600061239e858286016120a7565b92505060206123af85828601612179565b9150509250929050565b600080604083850312156123cc57600080fd5b600083013567ffffffffffffffff8111156123e657600080fd5b6123f2858286016120bc565b925050602083013567ffffffffffffffff81111561240f57600080fd5b61241b858286016120e6565b9150509250929050565b60006020828403121561243757600080fd5b600061244584828501612125565b91505092915050565b60006020828403121561246057600080fd5b600061246e8482850161213a565b91505092915050565b60006020828403121561248957600080fd5b600061249784828501612179565b91505092915050565b600080604083850312156124b357600080fd5b60006124c185828601612179565b92505060206124d285828601612179565b9150509250929050565b60006124e883836128c2565b60208301905092915050565b6124fd81612ea6565b82525050565b600061250e82612db0565b6125188185612dde565b935061252383612d8b565b8060005b8381101561255457815161253b88826124dc565b975061254683612dd1565b925050600181019050612527565b5085935050505092915050565b61256a81612eb8565b82525050565b600061257b82612dbb565b6125858185612def565b9350612595818560208601612f29565b61259e816130b7565b840191505092915050565b60006125b482612dc6565b6125be8185612e00565b93506125ce818560208601612f29565b6125d7816130b7565b840191505092915050565b60006125ed82612dc6565b6125f78185612e11565b9350612607818560208601612f29565b80840191505092915050565b6000815461262081612f5c565b61262a8186612e11565b94506001821660008114612645576001811461265657612689565b60ff19831686528186019350612689565b61265f85612d9b565b60005b8381101561268157815481890152600182019150602081019050612662565b838801955050505b50505092915050565b600061269f602883612e00565b91506126aa826130d5565b604082019050919050565b60006126c2602683612e00565b91506126cd82613124565b604082019050919050565b60006126e5600e83612e00565b91506126f082613173565b602082019050919050565b6000612708602a83612e00565b91506127138261319c565b604082019050919050565b600061272b602e83612e00565b9150612736826131eb565b604082019050919050565b600061274e601783612e00565b91506127598261323a565b602082019050919050565b6000612771602583612e00565b915061277c82613263565b604082019050919050565b6000612794602a83612e00565b915061279f826132b2565b604082019050919050565b60006127b7600583612e11565b91506127c282613301565b600582019050919050565b60006127da602083612e00565b91506127e58261332a565b602082019050919050565b60006127fd602983612e00565b915061280882613353565b604082019050919050565b6000612820602983612e00565b915061282b826133a2565b604082019050919050565b6000612843601883612e00565b915061284e826133f1565b602082019050919050565b6000612866602883612e00565b91506128718261341a565b604082019050919050565b6000612889602183612e00565b915061289482613469565b604082019050919050565b60006128ac603483612e00565b91506128b7826134b8565b604082019050919050565b6128cb81612f10565b82525050565b6128da81612f10565b82525050565b60006128ec8285612613565b91506128f882846125e2565b9150612903826127aa565b91508190509392505050565b600060208201905061292460008301846124f4565b92915050565b600060a08201905061293f60008301886124f4565b61294c60208301876124f4565b818103604083015261295e8186612503565b905081810360608301526129728185612503565b905081810360808301526129868184612570565b90509695505050505050565b600060a0820190506129a760008301886124f4565b6129b460208301876124f4565b6129c160408301866128d1565b6129ce60608301856128d1565b81810360808301526129e08184612570565b90509695505050505050565b60006020820190508181036000830152612a068184612503565b905092915050565b60006040820190508181036000830152612a288185612503565b90508181036020830152612a3c8184612503565b90509392505050565b6000602082019050612a5a6000830184612561565b92915050565b60006020820190508181036000830152612a7a81846125a9565b905092915050565b60006020820190508181036000830152612a9b81612692565b9050919050565b60006020820190508181036000830152612abb816126b5565b9050919050565b60006020820190508181036000830152612adb816126d8565b9050919050565b60006020820190508181036000830152612afb816126fb565b9050919050565b60006020820190508181036000830152612b1b8161271e565b9050919050565b60006020820190508181036000830152612b3b81612741565b9050919050565b60006020820190508181036000830152612b5b81612764565b9050919050565b60006020820190508181036000830152612b7b81612787565b9050919050565b60006020820190508181036000830152612b9b816127cd565b9050919050565b60006020820190508181036000830152612bbb816127f0565b9050919050565b60006020820190508181036000830152612bdb81612813565b9050919050565b60006020820190508181036000830152612bfb81612836565b9050919050565b60006020820190508181036000830152612c1b81612859565b9050919050565b60006020820190508181036000830152612c3b8161287c565b9050919050565b60006020820190508181036000830152612c5b8161289f565b9050919050565b6000602082019050612c7760008301846128d1565b92915050565b6000604082019050612c9260008301856128d1565b612c9f60208301846128d1565b9392505050565b6000606082019050612cbb60008301866128d1565b612cc860208301856128d1565b612cd560408301846128d1565b949350505050565b6000612ce7612cf8565b9050612cf38282612f8e565b919050565b6000604051905090565b600067ffffffffffffffff821115612d1d57612d1c613066565b5b602082029050602081019050919050565b600067ffffffffffffffff821115612d4957612d48613066565b5b602082029050602081019050919050565b600067ffffffffffffffff821115612d7557612d74613066565b5b612d7e826130b7565b9050602081019050919050565b6000819050602082019050919050565b60008190508160005260206000209050919050565b600081519050919050565b600081519050919050565b600081519050919050565b6000602082019050919050565b600082825260208201905092915050565b600082825260208201905092915050565b600082825260208201905092915050565b600081905092915050565b6000612e2782612f10565b9150612e3283612f10565b9250827fffffffffffffffffffffffffffffffffffffffffffffffffffffffffffffffff03821115612e6757612e66613008565b5b828201905092915050565b6000612e7d82612f10565b9150612e8883612f10565b925082821015612e9b57612e9a613008565b5b828203905092915050565b6000612eb182612ef0565b9050919050565b60008115159050919050565b60007fffffffff0000000000000000000000000000000000000000000000000000000082169050919050565b600073ffffffffffffffffffffffffffffffffffffffff82169050919050565b6000819050919050565b82818337600083830152505050565b60005b83811015612f47578082015181840152602081019050612f2c565b83811115612f56576000848401525b50505050565b60006002820490506001821680612f7457607f821691505b60208210811415612f8857612f87613037565b5b50919050565b612f97826130b7565b810181811067ffffffffffffffff82111715612fb657612fb5613066565b5b80604052505050565b6000612fca82612f10565b91507fffffffffffffffffffffffffffffffffffffffffffffffffffffffffffffffff821415612ffd57612ffc613008565b5b600182019050919050565b7f4e487b7100000000000000000000000000000000000000000000000000000000600052601160045260246000fd5b7f4e487b7100000000000000000000000000000000000000000000000000000000600052602260045260246000fd5b7f4e487b7100000000000000000000000000000000000000000000000000000000600052604160045260246000fd5b600060033d11156130b45760046000803e6130b16000516130c8565b90505b90565b6000601f19601f8301169050919050565b60008160e01c9050919050565b7f455243313135353a204552433131353552656365697665722072656a6563746560008201527f6420746f6b656e73000000000000000000000000000000000000000000000000602082015250565b7f4f776e61626c653a206e6577206f776e657220697320746865207a65726f206160008201527f6464726573730000000000000000000000000000000000000000000000000000602082015250565b7f496e76616c696420616d6f756e74000000000000000000000000000000000000600082015250565b7f455243313135353a2061646472657373207a65726f206973206e6f742061207660008201527f616c6964206f776e657200000000000000000000000000000000000000000000602082015250565b7f455243313135353a2063616c6c6572206973206e6f7420746f6b656e206f776e60008201527f6572206f7220617070726f766564000000000000000000000000000000000000602082015250565b7f546f6b656e20494420646f6573206e6f74206578697374000000000000000000600082015250565b7f455243313135353a207472616e7366657220746f20746865207a65726f20616460008201527f6472657373000000000000000000000000000000000000000000000000000000602082015250565b7f455243313135353a20696e73756666696369656e742062616c616e636520666f60008201527f72207472616e7366657200000000000000000000000000000000000000000000602082015250565b7f2e6a736f6e000000000000000000000000000000000000000000000000000000600082015250565b7f4f776e61626c653a2063616c6c6572206973206e6f7420746865206f776e6572600082015250565b7f455243313135353a2073657474696e6720617070726f76616c2073746174757360008201527f20666f722073656c660000000000000000000000000000000000000000000000602082015250565b7f455243313135353a206163636f756e747320616e6420696473206c656e67746860008201527f206d69736d617463680000000000000000000000000000000000000000000000602082015250565b7f457863656564732072656d61696e696e6720616d6f756e740000000000000000600082015250565b7f455243313135353a2069647320616e6420616d6f756e7473206c656e6774682060008201527f6d69736d61746368000000000000000000000000000000000000000000000000602082015250565b7f455243313135353a206d696e7420746f20746865207a65726f2061646472657360008201527f7300000000000000000000000000000000000000000000000000000000000000602082015250565b7f455243313135353a207472616e7366657220746f206e6f6e2d4552433131353560008201527f526563656976657220696d706c656d656e746572000000000000000000000000602082015250565b600060443d10156135175761359a565b61351f612cf8565b60043d036004823e80513d602482011167ffffffffffffffff8211171561354757505061359a565b808201805167ffffffffffffffff811115613565575050505061359a565b80602083010160043d03850181111561358257505050505061359a565b61359182602001850186612f8e565b82955050505050505b90565b6135a681612ea6565b81146135b157600080fd5b50565b6135bd81612eb8565b81146135c857600080fd5b50565b6135d481612ec4565b81146135df57600080fd5b50565b6135eb81612f10565b81146135f657600080fd5b5056fea2646970667358221220a3dcac536fe2a4cf60f15a2aa6b914c70f2965009e278af585687a64b5655ddc64736f6c63430008010033",
  "immutableReferences": {},
  "source": "// SPDX-License-Identifier: MIT\r\npragma solidity ^0.8.0;\r\n\r\nimport \"@openzeppelin/contracts/token/ERC1155/ERC1155.sol\";\r\nimport \"@openzeppelin/contracts/access/Ownable.sol\";\r\nimport \"@openzeppelin/contracts/utils/Strings.sol\";\r\n\r\ncontract SDVDiscountNFT is ERC1155, Ownable {\r\n    using Strings for uint256;\r\n\r\n    struct NFT {\r\n        uint256 initialSupply; //change to smaller uint?\r\n        uint256 offchainPoints; //change to smaller uint?\r\n        uint256 remainingAmount; //change to smaller uint?\r\n    } \r\n\r\n    mapping(uint256 => NFT) public nfts;\r\n\r\n    uint256 private nextTokenId = 1; \r\n\r\n    event NFTMinted(uint256 indexed tokenId, uint256 initialSupply, uint256 offchainPoints); \r\n    event NFTPurchased(address indexed buyer, uint256 indexed tokenId, uint256 amount); \r\n\r\n    string public baseURI; \r\n\r\n    constructor(string memory _baseURI) ERC1155(\"\") { //Should I just have string public baseURI = \"\";  instead?\r\n        baseURI = _baseURI; \r\n    }\r\n\r\n    function mint(uint256 initialSupply, uint256 offchainPoints) external onlyOwner {\r\n        uint256 tokenId = nextTokenId++;\r\n        nfts[tokenId] = NFT(initialSupply, offchainPoints, initialSupply);\r\n        emit NFTMinted(tokenId, initialSupply, offchainPoints);\r\n        _mint(owner(), tokenId, initialSupply, \"\");\r\n    }\r\n\r\n    function purchaseNFTWithPoints(uint256 tokenId, uint256 amount) external {\r\n        require(tokenId < nextTokenId, \"Token ID does not exist\");\r\n        require(amount <= nfts[tokenId].remainingAmount, \"Exceeds remaining amount\");\r\n        require(amount > 0, \"Invalid amount\");\r\n\r\n        emit NFTPurchased(msg.sender, tokenId, amount);\r\n\r\n        nfts[tokenId].remainingAmount -= amount;\r\n        _mint(msg.sender, tokenId, amount, \"\"); // had safeTransferFrom here before, but could not have anyone else but owner claim the NFT then\r\n    }\r\n\r\n    function uri(uint256 tokenId) public view override returns (string memory) {\r\n        require(tokenId < nextTokenId, \"Token ID does not exist\");\r\n        return string(abi.encodePacked(baseURI, tokenId.toString(), \".json\"));\r\n    }\r\n\r\n}\r\n",
  "sourcePath": "C:\\Users\\i\\Documents\\GitHub\\DSP\\contracts\\contracts\\SDVDiscountNFT.sol",
  "compiler": {
    "name": "solc",
    "version": "0.8.1+commit.df193b15.Emscripten.clang"
  },
  "schemaVersion": "3.4.16",
  "updatedAt": "2024-03-18T14:38:54.596Z",
  "networkType": "ethereum",
  "devdoc": {
    "kind": "dev",
    "methods": {
      "balanceOf(address,uint256)": {
        "details": "See {IERC1155-balanceOf}. Requirements: - `account` cannot be the zero address."
      },
      "balanceOfBatch(address[],uint256[])": {
        "details": "See {IERC1155-balanceOfBatch}. Requirements: - `accounts` and `ids` must have the same length."
      },
      "isApprovedForAll(address,address)": {
        "details": "See {IERC1155-isApprovedForAll}."
      },
      "owner()": {
        "details": "Returns the address of the current owner."
      },
      "renounceOwnership()": {
        "details": "Leaves the contract without owner. It will not be possible to call `onlyOwner` functions. Can only be called by the current owner. NOTE: Renouncing ownership will leave the contract without an owner, thereby disabling any functionality that is only available to the owner."
      },
      "safeBatchTransferFrom(address,address,uint256[],uint256[],bytes)": {
        "details": "See {IERC1155-safeBatchTransferFrom}."
      },
      "safeTransferFrom(address,address,uint256,uint256,bytes)": {
        "details": "See {IERC1155-safeTransferFrom}."
      },
      "setApprovalForAll(address,bool)": {
        "details": "See {IERC1155-setApprovalForAll}."
      },
      "supportsInterface(bytes4)": {
        "details": "See {IERC165-supportsInterface}."
      },
      "transferOwnership(address)": {
        "details": "Transfers ownership of the contract to a new account (`newOwner`). Can only be called by the current owner."
      }
    },
    "version": 1
  },
  "userdoc": {
    "kind": "user",
    "methods": {},
    "version": 1
  }
}