{
  "contractName": "SDVProductionNFT",
  "abi": [
    {
      "inputs": [],
      "stateMutability": "nonpayable",
      "type": "constructor"
    },
    {
      "anonymous": false,
      "inputs": [
        {
          "indexed": true,
          "internalType": "address",
          "name": "account",
          "type": "address"
        },
        {
          "indexed": true,
          "internalType": "address",
          "name": "operator",
          "type": "address"
        },
        {
          "indexed": false,
          "internalType": "bool",
          "name": "approved",
          "type": "bool"
        }
      ],
      "name": "ApprovalForAll",
      "type": "event"
    },
    {
      "anonymous": false,
      "inputs": [
        {
          "indexed": true,
          "internalType": "uint256",
          "name": "tokenId",
          "type": "uint256"
        },
        {
          "indexed": true,
          "internalType": "address",
          "name": "artist",
          "type": "address"
        }
      ],
      "name": "NFTCreated",
      "type": "event"
    },
    {
      "anonymous": false,
      "inputs": [
        {
          "indexed": true,
          "internalType": "uint256",
          "name": "tokenId",
          "type": "uint256"
        },
        {
          "indexed": false,
          "internalType": "address[]",
          "name": "participants",
          "type": "address[]"
        },
        {
          "indexed": false,
          "internalType": "uint256[]",
          "name": "amounts",
          "type": "uint256[]"
        }
      ],
      "name": "NFTSharesAirdropped",
      "type": "event"
    },
    {
      "anonymous": false,
      "inputs": [
        {
          "indexed": true,
          "internalType": "address",
          "name": "previousOwner",
          "type": "address"
        },
        {
          "indexed": true,
          "internalType": "address",
          "name": "newOwner",
          "type": "address"
        }
      ],
      "name": "OwnershipTransferred",
      "type": "event"
    },
    {
      "anonymous": false,
      "inputs": [
        {
          "indexed": true,
          "internalType": "uint256",
          "name": "tokenId",
          "type": "uint256"
        },
        {
          "indexed": false,
          "internalType": "uint256",
          "name": "totalShares",
          "type": "uint256"
        }
      ],
      "name": "TokensFractionalized",
      "type": "event"
    },
    {
      "anonymous": false,
      "inputs": [
        {
          "indexed": true,
          "internalType": "uint256",
          "name": "tokenId",
          "type": "uint256"
        },
        {
          "indexed": true,
          "internalType": "address",
          "name": "to",
          "type": "address"
        },
        {
          "indexed": false,
          "internalType": "uint256",
          "name": "amount",
          "type": "uint256"
        }
      ],
      "name": "TokensMinted",
      "type": "event"
    },
    {
      "anonymous": false,
      "inputs": [
        {
          "indexed": true,
          "internalType": "address",
          "name": "operator",
          "type": "address"
        },
        {
          "indexed": true,
          "internalType": "address",
          "name": "from",
          "type": "address"
        },
        {
          "indexed": true,
          "internalType": "address",
          "name": "to",
          "type": "address"
        },
        {
          "indexed": false,
          "internalType": "uint256[]",
          "name": "ids",
          "type": "uint256[]"
        },
        {
          "indexed": false,
          "internalType": "uint256[]",
          "name": "values",
          "type": "uint256[]"
        }
      ],
      "name": "TransferBatch",
      "type": "event"
    },
    {
      "anonymous": false,
      "inputs": [
        {
          "indexed": true,
          "internalType": "address",
          "name": "operator",
          "type": "address"
        },
        {
          "indexed": true,
          "internalType": "address",
          "name": "from",
          "type": "address"
        },
        {
          "indexed": true,
          "internalType": "address",
          "name": "to",
          "type": "address"
        },
        {
          "indexed": false,
          "internalType": "uint256",
          "name": "id",
          "type": "uint256"
        },
        {
          "indexed": false,
          "internalType": "uint256",
          "name": "value",
          "type": "uint256"
        }
      ],
      "name": "TransferSingle",
      "type": "event"
    },
    {
      "anonymous": false,
      "inputs": [
        {
          "indexed": false,
          "internalType": "string",
          "name": "value",
          "type": "string"
        },
        {
          "indexed": true,
          "internalType": "uint256",
          "name": "id",
          "type": "uint256"
        }
      ],
      "name": "URI",
      "type": "event"
    },
    {
      "inputs": [],
      "name": "MAX_FRACTIONAL_SHARES",
      "outputs": [
        {
          "internalType": "uint256",
          "name": "",
          "type": "uint256"
        }
      ],
      "stateMutability": "view",
      "type": "function",
      "constant": true
    },
    {
      "inputs": [
        {
          "internalType": "address",
          "name": "",
          "type": "address"
        }
      ],
      "name": "attendees",
      "outputs": [
        {
          "internalType": "bool",
          "name": "",
          "type": "bool"
        }
      ],
      "stateMutability": "view",
      "type": "function",
      "constant": true
    },
    {
      "inputs": [
        {
          "internalType": "address",
          "name": "account",
          "type": "address"
        },
        {
          "internalType": "uint256",
          "name": "id",
          "type": "uint256"
        }
      ],
      "name": "balanceOf",
      "outputs": [
        {
          "internalType": "uint256",
          "name": "",
          "type": "uint256"
        }
      ],
      "stateMutability": "view",
      "type": "function",
      "constant": true
    },
    {
      "inputs": [
        {
          "internalType": "address[]",
          "name": "accounts",
          "type": "address[]"
        },
        {
          "internalType": "uint256[]",
          "name": "ids",
          "type": "uint256[]"
        }
      ],
      "name": "balanceOfBatch",
      "outputs": [
        {
          "internalType": "uint256[]",
          "name": "",
          "type": "uint256[]"
        }
      ],
      "stateMutability": "view",
      "type": "function",
      "constant": true
    },
    {
      "inputs": [
        {
          "internalType": "uint256",
          "name": "",
          "type": "uint256"
        },
        {
          "internalType": "address",
          "name": "",
          "type": "address"
        }
      ],
      "name": "fractionalOwnership",
      "outputs": [
        {
          "internalType": "uint256",
          "name": "",
          "type": "uint256"
        }
      ],
      "stateMutability": "view",
      "type": "function",
      "constant": true
    },
    {
      "inputs": [
        {
          "internalType": "address",
          "name": "account",
          "type": "address"
        },
        {
          "internalType": "address",
          "name": "operator",
          "type": "address"
        }
      ],
      "name": "isApprovedForAll",
      "outputs": [
        {
          "internalType": "bool",
          "name": "",
          "type": "bool"
        }
      ],
      "stateMutability": "view",
      "type": "function",
      "constant": true
    },
    {
      "inputs": [
        {
          "internalType": "uint256",
          "name": "",
          "type": "uint256"
        }
      ],
      "name": "nfts",
      "outputs": [
        {
          "internalType": "uint256",
          "name": "totalShares",
          "type": "uint256"
        },
        {
          "internalType": "uint256",
          "name": "remainingShares",
          "type": "uint256"
        },
        {
          "internalType": "address",
          "name": "artist",
          "type": "address"
        }
      ],
      "stateMutability": "view",
      "type": "function",
      "constant": true
    },
    {
      "inputs": [],
      "name": "owner",
      "outputs": [
        {
          "internalType": "address",
          "name": "",
          "type": "address"
        }
      ],
      "stateMutability": "view",
      "type": "function",
      "constant": true
    },
    {
      "inputs": [],
      "name": "renounceOwnership",
      "outputs": [],
      "stateMutability": "nonpayable",
      "type": "function"
    },
    {
      "inputs": [
        {
          "internalType": "address",
          "name": "from",
          "type": "address"
        },
        {
          "internalType": "address",
          "name": "to",
          "type": "address"
        },
        {
          "internalType": "uint256[]",
          "name": "ids",
          "type": "uint256[]"
        },
        {
          "internalType": "uint256[]",
          "name": "amounts",
          "type": "uint256[]"
        },
        {
          "internalType": "bytes",
          "name": "data",
          "type": "bytes"
        }
      ],
      "name": "safeBatchTransferFrom",
      "outputs": [],
      "stateMutability": "nonpayable",
      "type": "function"
    },
    {
      "inputs": [
        {
          "internalType": "address",
          "name": "from",
          "type": "address"
        },
        {
          "internalType": "address",
          "name": "to",
          "type": "address"
        },
        {
          "internalType": "uint256",
          "name": "id",
          "type": "uint256"
        },
        {
          "internalType": "uint256",
          "name": "amount",
          "type": "uint256"
        },
        {
          "internalType": "bytes",
          "name": "data",
          "type": "bytes"
        }
      ],
      "name": "safeTransferFrom",
      "outputs": [],
      "stateMutability": "nonpayable",
      "type": "function"
    },
    {
      "inputs": [
        {
          "internalType": "address",
          "name": "operator",
          "type": "address"
        },
        {
          "internalType": "bool",
          "name": "approved",
          "type": "bool"
        }
      ],
      "name": "setApprovalForAll",
      "outputs": [],
      "stateMutability": "nonpayable",
      "type": "function"
    },
    {
      "inputs": [
        {
          "internalType": "bytes4",
          "name": "interfaceId",
          "type": "bytes4"
        }
      ],
      "name": "supportsInterface",
      "outputs": [
        {
          "internalType": "bool",
          "name": "",
          "type": "bool"
        }
      ],
      "stateMutability": "view",
      "type": "function",
      "constant": true
    },
    {
      "inputs": [
        {
          "internalType": "address",
          "name": "newOwner",
          "type": "address"
        }
      ],
      "name": "transferOwnership",
      "outputs": [],
      "stateMutability": "nonpayable",
      "type": "function"
    },
    {
      "inputs": [
        {
          "internalType": "uint256",
          "name": "",
          "type": "uint256"
        }
      ],
      "name": "uri",
      "outputs": [
        {
          "internalType": "string",
          "name": "",
          "type": "string"
        }
      ],
      "stateMutability": "view",
      "type": "function",
      "constant": true
    },
    {
      "inputs": [
        {
          "internalType": "string",
          "name": "baseURI",
          "type": "string"
        }
      ],
      "name": "setBaseURI",
      "outputs": [],
      "stateMutability": "nonpayable",
      "type": "function"
    },
    {
      "inputs": [
        {
          "internalType": "address",
          "name": "_artist",
          "type": "address"
        }
      ],
      "name": "createNFT",
      "outputs": [
        {
          "internalType": "uint256",
          "name": "tokenId",
          "type": "uint256"
        }
      ],
      "stateMutability": "nonpayable",
      "type": "function"
    },
    {
      "inputs": [
        {
          "internalType": "uint256",
          "name": "_totalShares",
          "type": "uint256"
        }
      ],
      "name": "fractionalizeNFT",
      "outputs": [],
      "stateMutability": "nonpayable",
      "type": "function"
    },
    {
      "inputs": [
        {
          "internalType": "address",
          "name": "_to",
          "type": "address"
        },
        {
          "internalType": "uint256",
          "name": "_amount",
          "type": "uint256"
        }
      ],
      "name": "mint",
      "outputs": [],
      "stateMutability": "nonpayable",
      "type": "function"
    },
    {
      "inputs": [
        {
          "internalType": "address",
          "name": "_attendee",
          "type": "address"
        }
      ],
      "name": "setAttendee",
      "outputs": [],
      "stateMutability": "nonpayable",
      "type": "function"
    },
    {
      "inputs": [
        {
          "internalType": "address[]",
          "name": "_participants",
          "type": "address[]"
        }
      ],
      "name": "airdropNFTShares",
      "outputs": [],
      "stateMutability": "nonpayable",
      "type": "function"
    },
    {
      "inputs": [
        {
          "internalType": "address",
          "name": "account",
          "type": "address"
        }
      ],
      "name": "getOwnedNFTs",
      "outputs": [
        {
          "internalType": "uint256[]",
          "name": "",
          "type": "uint256[]"
        }
      ],
      "stateMutability": "view",
      "type": "function",
      "constant": true
    },
    {
      "inputs": [
        {
          "internalType": "uint256",
          "name": "tokenId",
          "type": "uint256"
        }
      ],
      "name": "tokenURI",
      "outputs": [
        {
          "internalType": "string",
          "name": "",
          "type": "string"
        }
      ],
      "stateMutability": "view",
      "type": "function",
      "constant": true
    }
  ],
  "bytecode": "0x60806040523480156200001157600080fd5b50604051806020016040528060008152506200003381620000eb60201b60201c565b506000620000466200010760201b60201c565b905080600360006101000a81548173ffffffffffffffffffffffffffffffffffffffff021916908373ffffffffffffffffffffffffffffffffffffffff1602179055508073ffffffffffffffffffffffffffffffffffffffff16600073ffffffffffffffffffffffffffffffffffffffff167f8be0079c531659141344cd1fd0a4f28419497f9722a3daafe3b4186f6b6457e060405160405180910390a35062000224565b8060029080519060200190620001039291906200010f565b5050565b600033905090565b8280546200011d90620001bf565b90600052602060002090601f0160209004810192826200014157600085556200018d565b82601f106200015c57805160ff19168380011785556200018d565b828001600101855582156200018d579182015b828111156200018c5782518255916020019190600101906200016f565b5b5090506200019c9190620001a0565b5090565b5b80821115620001bb576000816000905550600101620001a1565b5090565b60006002820490506001821680620001d857607f821691505b60208210811415620001ef57620001ee620001f5565b5b50919050565b7f4e487b7100000000000000000000000000000000000000000000000000000000600052602260045260246000fd5b61433480620002346000396000f3fe608060405234801561001057600080fd5b506004361061014c5760003560e01c80634e1273f4116100c3578063c38797231161007c578063c3879723146103d3578063c87b56dd146103ef578063e985e9c51461041f578063ea413dac1461044f578063f242432a1461046d578063f2fde38b146104895761014c565b80634e1273f41461032757806355f804b314610357578063715018a6146103735780638da5cb5b1461037d5780639a312b7a1461039b578063a22cb465146103b75761014c565b806318148f1b1161011557806318148f1b146102415780632607733d14610271578063265aa6211461028d5780632eb2c2d6146102bf578063396dc854146102db57806340c10f191461030b5761014c565b8062fdd58e1461015157806301ffc9a7146101815780630e89341c146101b157806317c6ab40146101e157806317e5883c14610211575b600080fd5b61016b60048036038101906101669190612d44565b6104a5565b6040516101789190613d78565b60405180910390f35b61019b60048036038101906101969190612e2d565b61056e565b6040516101a89190613a5b565b60405180910390f35b6101cb60048036038101906101c69190612ec0565b610650565b6040516101d89190613a76565b60405180910390f35b6101fb60048036038101906101f69190612ee9565b6106e4565b6040516102089190613d78565b60405180910390f35b61022b60048036038101906102269190612b55565b610709565b6040516102389190613d78565b60405180910390f35b61025b60048036038101906102569190612b55565b6108bd565b6040516102689190613a02565b60405180910390f35b61028b60048036038101906102869190612ec0565b610a55565b005b6102a760048036038101906102a29190612ec0565b610bcd565b6040516102b693929190613dbc565b60405180910390f35b6102d960048036038101906102d49190612bba565b610c17565b005b6102f560048036038101906102f09190612b55565b61100d565b6040516103029190613a5b565b60405180910390f35b61032560048036038101906103209190612d44565b61102d565b005b610341600480360381019061033c9190612dc1565b6112a9565b60405161034e9190613a02565b60405180910390f35b610371600480360381019061036c9190612e7f565b61145a565b005b61037b6114e2565b005b61038561161f565b60405161039291906138ee565b60405180910390f35b6103b560048036038101906103b09190612d80565b611649565b005b6103d160048036038101906103cc9190612d08565b61192f565b005b6103ed60048036038101906103e89190612b55565b611ab0565b005b61040960048036038101906104049190612ec0565b611b87565b6040516104169190613a76565b60405180910390f35b61043960048036038101906104349190612b7e565b611c4c565b6040516104469190613a5b565b60405180910390f35b610457611ce0565b6040516104649190613d78565b60405180910390f35b61048760048036038101906104829190612c79565b611ce6565b005b6104a3600480360381019061049e9190612b55565b611ffe565b005b60008073ffffffffffffffffffffffffffffffffffffffff168373ffffffffffffffffffffffffffffffffffffffff161415610516576040517f08c379a000000000000000000000000000000000000000000000000000000000815260040161050d90613af8565b60405180910390fd5b60008083815260200190815260200160002060008473ffffffffffffffffffffffffffffffffffffffff1673ffffffffffffffffffffffffffffffffffffffff16815260200190815260200160002054905092915050565b60007fd9b67a26000000000000000000000000000000000000000000000000000000007bffffffffffffffffffffffffffffffffffffffffffffffffffffffff1916827bffffffffffffffffffffffffffffffffffffffffffffffffffffffff1916148061063957507f0e89341c000000000000000000000000000000000000000000000000000000007bffffffffffffffffffffffffffffffffffffffffffffffffffffffff1916827bffffffffffffffffffffffffffffffffffffffffffffffffffffffff1916145b806106495750610648826121aa565b5b9050919050565b60606002805461065f906140c6565b80601f016020809104026020016040519081016040528092919081815260200182805461068b906140c6565b80156106d85780601f106106ad576101008083540402835291602001916106d8565b820191906000526020600020905b8154815290600101906020018083116106bb57829003601f168201915b50505050509050919050565b6006602052816000526040600020602052806000526040600020600091509150505481565b6000610713612214565b73ffffffffffffffffffffffffffffffffffffffff1661073161161f565b73ffffffffffffffffffffffffffffffffffffffff1614610787576040517f08c379a000000000000000000000000000000000000000000000000000000000815260040161077e90613c78565b60405180910390fd5b6000600454146107cc576040517f08c379a00000000000000000000000000000000000000000000000000000000081526004016107c390613b98565b60405180910390fd5b60009050604051806060016040528060008152602001600081526020018373ffffffffffffffffffffffffffffffffffffffff1681525060056000838152602001908152602001600020600082015181600001556020820151816001015560408201518160020160006101000a81548173ffffffffffffffffffffffffffffffffffffffff021916908373ffffffffffffffffffffffffffffffffffffffff1602179055509050508173ffffffffffffffffffffffffffffffffffffffff16817fbe4d5028ecb11dfb1cbc0c1dd7eed270db43c11a50da18fceb823c9af57a2a7860405160405180910390a3919050565b606060006006600080815260200190815260200160002060008473ffffffffffffffffffffffffffffffffffffffff1673ffffffffffffffffffffffffffffffffffffffff1681526020019081526020016000205411156109dd576000600167ffffffffffffffff81111561095b577f4e487b7100000000000000000000000000000000000000000000000000000000600052604160045260246000fd5b6040519080825280602002602001820160405280156109895781602001602082028036833780820191505090505b5090506000816000815181106109c8577f4e487b7100000000000000000000000000000000000000000000000000000000600052603260045260246000fd5b60200260200101818152505080915050610a50565b600067ffffffffffffffff811115610a1e577f4e487b7100000000000000000000000000000000000000000000000000000000600052604160045260246000fd5b604051908082528060200260200182016040528015610a4c5781602001602082028036833780820191505090505b5090505b919050565b610a5d612214565b73ffffffffffffffffffffffffffffffffffffffff16610a7b61161f565b73ffffffffffffffffffffffffffffffffffffffff1614610ad1576040517f08c379a0000000000000000000000000000000000000000000000000000000008152600401610ac890613c78565b60405180910390fd5b600060045414610b16576040517f08c379a0000000000000000000000000000000000000000000000000000000008152600401610b0d90613bd8565b60405180910390fd5b61012c811115610b5b576040517f08c379a0000000000000000000000000000000000000000000000000000000008152600401610b5290613b38565b60405180910390fd5b80600560008081526020019081526020016000206000018190555080600560008081526020019081526020016000206001018190555060007ff6224f6bc2c8c598a28ae48924ce7d0764c0708be49e087392896ded012db0bf82604051610bc29190613d78565b60405180910390a250565b60056020528060005260406000206000915090508060000154908060010154908060020160009054906101000a900473ffffffffffffffffffffffffffffffffffffffff16905083565b8151835114610c5b576040517f08c379a0000000000000000000000000000000000000000000000000000000008152600401610c5290613d38565b60405180910390fd5b600073ffffffffffffffffffffffffffffffffffffffff168473ffffffffffffffffffffffffffffffffffffffff161415610ccb576040517f08c379a0000000000000000000000000000000000000000000000000000000008152600401610cc290613bb8565b60405180910390fd5b610cd3612214565b73ffffffffffffffffffffffffffffffffffffffff168573ffffffffffffffffffffffffffffffffffffffff161480610d195750610d1885610d13612214565b611c4c565b5b610d58576040517f08c379a0000000000000000000000000000000000000000000000000000000008152600401610d4f90613bf8565b60405180910390fd5b6000610d62612214565b9050610d7281878787878761221c565b60005b8451811015610f78576000858281518110610db9577f4e487b7100000000000000000000000000000000000000000000000000000000600052603260045260246000fd5b602002602001015190506000858381518110610dfe577f4e487b7100000000000000000000000000000000000000000000000000000000600052603260045260246000fd5b60200260200101519050600080600084815260200190815260200160002060008b73ffffffffffffffffffffffffffffffffffffffff1673ffffffffffffffffffffffffffffffffffffffff16815260200190815260200160002054905081811015610e9f576040517f08c379a0000000000000000000000000000000000000000000000000000000008152600401610e9690613c58565b60405180910390fd5b8181610eab9190613fdc565b60008085815260200190815260200160002060008c73ffffffffffffffffffffffffffffffffffffffff1673ffffffffffffffffffffffffffffffffffffffff168152602001908152602001600020819055508160008085815260200190815260200160002060008b73ffffffffffffffffffffffffffffffffffffffff1673ffffffffffffffffffffffffffffffffffffffff1681526020019081526020016000206000828254610f5d9190613f86565b9250508190555050505080610f71906140f8565b9050610d75565b508473ffffffffffffffffffffffffffffffffffffffff168673ffffffffffffffffffffffffffffffffffffffff168273ffffffffffffffffffffffffffffffffffffffff167f4a39dc06d4c0dbc64b70af90fd698a233a518aa5d07e595d983b8c0526c8f7fb8787604051610fef929190613a24565b60405180910390a4611005818787878787612224565b505050505050565b60076020528060005260406000206000915054906101000a900460ff1681565b600760003373ffffffffffffffffffffffffffffffffffffffff1673ffffffffffffffffffffffffffffffffffffffff16815260200190815260200160002060009054906101000a900460ff166110b9576040517f08c379a00000000000000000000000000000000000000000000000000000000081526004016110b090613b78565b60405180910390fd5b60006006600080815260200190815260200160002060008473ffffffffffffffffffffffffffffffffffffffff1673ffffffffffffffffffffffffffffffffffffffff168152602001908152602001600020541461114c576040517f08c379a000000000000000000000000000000000000000000000000000000000815260040161114390613cd8565b60405180910390fd5b60056000808152602001908152602001600020600101548111156111a5576040517f08c379a000000000000000000000000000000000000000000000000000000000815260040161119c90613c18565b60405180910390fd5b6111c182600083604051806020016040528060008152506123f4565b806006600080815260200190815260200160002060008473ffffffffffffffffffffffffffffffffffffffff1673ffffffffffffffffffffffffffffffffffffffff16815260200190815260200160002060008282546112219190613f86565b925050819055508060056000808152602001908152602001600020600101600082825461124e9190613fdc565b925050819055508173ffffffffffffffffffffffffffffffffffffffff1660007f5c8e94c72da12a6d6a1213edafd788896df5fd2d6527a9adeb11f8e5d0be1c4c8360405161129d9190613d78565b60405180910390a35050565b606081518351146112ef576040517f08c379a00000000000000000000000000000000000000000000000000000000081526004016112e690613cf8565b60405180910390fd5b6000835167ffffffffffffffff811115611332577f4e487b7100000000000000000000000000000000000000000000000000000000600052604160045260246000fd5b6040519080825280602002602001820160405280156113605781602001602082028036833780820191505090505b50905060005b845181101561144f576113f98582815181106113ab577f4e487b7100000000000000000000000000000000000000000000000000000000600052603260045260246000fd5b60200260200101518583815181106113ec577f4e487b7100000000000000000000000000000000000000000000000000000000600052603260045260246000fd5b60200260200101516104a5565b828281518110611432577f4e487b7100000000000000000000000000000000000000000000000000000000600052603260045260246000fd5b60200260200101818152505080611448906140f8565b9050611366565b508091505092915050565b611462612214565b73ffffffffffffffffffffffffffffffffffffffff1661148061161f565b73ffffffffffffffffffffffffffffffffffffffff16146114d6576040517f08c379a00000000000000000000000000000000000000000000000000000000081526004016114cd90613c78565b60405180910390fd5b6114df8161258a565b50565b6114ea612214565b73ffffffffffffffffffffffffffffffffffffffff1661150861161f565b73ffffffffffffffffffffffffffffffffffffffff161461155e576040517f08c379a000000000000000000000000000000000000000000000000000000000815260040161155590613c78565b60405180910390fd5b600073ffffffffffffffffffffffffffffffffffffffff16600360009054906101000a900473ffffffffffffffffffffffffffffffffffffffff1673ffffffffffffffffffffffffffffffffffffffff167f8be0079c531659141344cd1fd0a4f28419497f9722a3daafe3b4186f6b6457e060405160405180910390a36000600360006101000a81548173ffffffffffffffffffffffffffffffffffffffff021916908373ffffffffffffffffffffffffffffffffffffffff160217905550565b6000600360009054906101000a900473ffffffffffffffffffffffffffffffffffffffff16905090565b611651612214565b73ffffffffffffffffffffffffffffffffffffffff1661166f61161f565b73ffffffffffffffffffffffffffffffffffffffff16146116c5576040517f08c379a00000000000000000000000000000000000000000000000000000000081526004016116bc90613c78565b60405180910390fd5b6000815111611709576040517f08c379a000000000000000000000000000000000000000000000000000000000815260040161170090613c38565b60405180910390fd5b6000815190506005600080815260200190815260200160002060010154811115611768576040517f08c379a000000000000000000000000000000000000000000000000000000000815260040161175f90613c18565b60405180910390fd5b60005b82518110156118805760008382815181106117af577f4e487b7100000000000000000000000000000000000000000000000000000000600052603260045260246000fd5b602002602001015190506117d68160006001604051806020016040528060008152506123f4565b60016006600080815260200190815260200160002060008373ffffffffffffffffffffffffffffffffffffffff1673ffffffffffffffffffffffffffffffffffffffff16815260200190815260200160002060008282546118379190613f86565b9250508190555060016005600080815260200190815260200160002060010160008282546118659190613fdc565b92505081905550508080611878906140f8565b91505061176b565b5060007f033d586f2c89604f48d367286e19165149c515d15959974e7e63db906a5f463383845167ffffffffffffffff8111156118e6577f4e487b7100000000000000000000000000000000000000000000000000000000600052604160045260246000fd5b6040519080825280602002602001820160405280156119145781602001602082028036833780820191505090505b506040516119239291906139cb565b60405180910390a25050565b8173ffffffffffffffffffffffffffffffffffffffff1661194e612214565b73ffffffffffffffffffffffffffffffffffffffff1614156119a5576040517f08c379a000000000000000000000000000000000000000000000000000000000815260040161199c90613cb8565b60405180910390fd5b80600160006119b2612214565b73ffffffffffffffffffffffffffffffffffffffff1673ffffffffffffffffffffffffffffffffffffffff16815260200190815260200160002060008473ffffffffffffffffffffffffffffffffffffffff1673ffffffffffffffffffffffffffffffffffffffff16815260200190815260200160002060006101000a81548160ff0219169083151502179055508173ffffffffffffffffffffffffffffffffffffffff16611a5f612214565b73ffffffffffffffffffffffffffffffffffffffff167f17307eab39ab6107e8899845ad3d59bd9653f200f220920489ca2b5937696c3183604051611aa49190613a5b565b60405180910390a35050565b611ab8612214565b73ffffffffffffffffffffffffffffffffffffffff16611ad661161f565b73ffffffffffffffffffffffffffffffffffffffff1614611b2c576040517f08c379a0000000000000000000000000000000000000000000000000000000008152600401611b2390613c78565b60405180910390fd5b6001600760008373ffffffffffffffffffffffffffffffffffffffff1673ffffffffffffffffffffffffffffffffffffffff16815260200190815260200160002060006101000a81548160ff02191690831515021790555050565b606060008214611bcc576040517f08c379a0000000000000000000000000000000000000000000000000000000008152600401611bc390613c98565b60405180910390fd5b600060045411611c11576040517f08c379a0000000000000000000000000000000000000000000000000000000008152600401611c0890613d18565b60405180910390fd5b6040517f08c379a0000000000000000000000000000000000000000000000000000000008152600401611c4390613ad8565b60405180910390fd5b6000600160008473ffffffffffffffffffffffffffffffffffffffff1673ffffffffffffffffffffffffffffffffffffffff16815260200190815260200160002060008373ffffffffffffffffffffffffffffffffffffffff1673ffffffffffffffffffffffffffffffffffffffff16815260200190815260200160002060009054906101000a900460ff16905092915050565b61012c81565b600073ffffffffffffffffffffffffffffffffffffffff168473ffffffffffffffffffffffffffffffffffffffff161415611d56576040517f08c379a0000000000000000000000000000000000000000000000000000000008152600401611d4d90613bb8565b60405180910390fd5b611d5e612214565b73ffffffffffffffffffffffffffffffffffffffff168573ffffffffffffffffffffffffffffffffffffffff161480611da45750611da385611d9e612214565b611c4c565b5b611de3576040517f08c379a0000000000000000000000000000000000000000000000000000000008152600401611dda90613b58565b60405180910390fd5b6000611ded612214565b9050611e0d818787611dfe886125a4565b611e07886125a4565b8761221c565b600080600086815260200190815260200160002060008873ffffffffffffffffffffffffffffffffffffffff1673ffffffffffffffffffffffffffffffffffffffff16815260200190815260200160002054905083811015611ea4576040517f08c379a0000000000000000000000000000000000000000000000000000000008152600401611e9b90613c58565b60405180910390fd5b8381611eb09190613fdc565b60008087815260200190815260200160002060008973ffffffffffffffffffffffffffffffffffffffff1673ffffffffffffffffffffffffffffffffffffffff168152602001908152602001600020819055508360008087815260200190815260200160002060008873ffffffffffffffffffffffffffffffffffffffff1673ffffffffffffffffffffffffffffffffffffffff1681526020019081526020016000206000828254611f629190613f86565b925050819055508573ffffffffffffffffffffffffffffffffffffffff168773ffffffffffffffffffffffffffffffffffffffff168373ffffffffffffffffffffffffffffffffffffffff167fc3d58168c5ae7397731d063d5bbf3d657854427343f4c083240f7aacaa2d0f628888604051611fdf929190613d93565b60405180910390a4611ff582888888888861266a565b50505050505050565b612006612214565b73ffffffffffffffffffffffffffffffffffffffff1661202461161f565b73ffffffffffffffffffffffffffffffffffffffff161461207a576040517f08c379a000000000000000000000000000000000000000000000000000000000815260040161207190613c78565b60405180910390fd5b600073ffffffffffffffffffffffffffffffffffffffff168173ffffffffffffffffffffffffffffffffffffffff1614156120ea576040517f08c379a00000000000000000000000000000000000000000000000000000000081526004016120e190613b18565b60405180910390fd5b8073ffffffffffffffffffffffffffffffffffffffff16600360009054906101000a900473ffffffffffffffffffffffffffffffffffffffff1673ffffffffffffffffffffffffffffffffffffffff167f8be0079c531659141344cd1fd0a4f28419497f9722a3daafe3b4186f6b6457e060405160405180910390a380600360006101000a81548173ffffffffffffffffffffffffffffffffffffffff021916908373ffffffffffffffffffffffffffffffffffffffff16021790555050565b60007f01ffc9a7000000000000000000000000000000000000000000000000000000007bffffffffffffffffffffffffffffffffffffffffffffffffffffffff1916827bffffffffffffffffffffffffffffffffffffffffffffffffffffffff1916149050919050565b600033905090565b505050505050565b6122438473ffffffffffffffffffffffffffffffffffffffff1661283a565b156123ec578373ffffffffffffffffffffffffffffffffffffffff1663bc197c8187878686866040518663ffffffff1660e01b8152600401612289959493929190613909565b602060405180830381600087803b1580156122a357600080fd5b505af19250505080156122d457506040513d601f19601f820116820180604052508101906122d19190612e56565b60015b612363576122e06141ec565b806122eb5750612328565b806040517f08c379a000000000000000000000000000000000000000000000000000000000815260040161231f9190613a76565b60405180910390fd5b6040517f08c379a000000000000000000000000000000000000000000000000000000000815260040161235a90613a98565b60405180910390fd5b63bc197c8160e01b7bffffffffffffffffffffffffffffffffffffffffffffffffffffffff1916817bffffffffffffffffffffffffffffffffffffffffffffffffffffffff1916146123ea576040517f08c379a00000000000000000000000000000000000000000000000000000000081526004016123e190613ab8565b60405180910390fd5b505b505050505050565b600073ffffffffffffffffffffffffffffffffffffffff168473ffffffffffffffffffffffffffffffffffffffff161415612464576040517f08c379a000000000000000000000000000000000000000000000000000000000815260040161245b90613d58565b60405180910390fd5b600061246e612214565b905061248f81600087612480886125a4565b612489886125a4565b8761221c565b8260008086815260200190815260200160002060008773ffffffffffffffffffffffffffffffffffffffff1673ffffffffffffffffffffffffffffffffffffffff16815260200190815260200160002060008282546124ee9190613f86565b925050819055508473ffffffffffffffffffffffffffffffffffffffff16600073ffffffffffffffffffffffffffffffffffffffff168273ffffffffffffffffffffffffffffffffffffffff167fc3d58168c5ae7397731d063d5bbf3d657854427343f4c083240f7aacaa2d0f62878760405161256c929190613d93565b60405180910390a46125838160008787878761266a565b5050505050565b80600290805190602001906125a092919061284d565b5050565b60606000600167ffffffffffffffff8111156125e9577f4e487b7100000000000000000000000000000000000000000000000000000000600052604160045260246000fd5b6040519080825280602002602001820160405280156126175781602001602082028036833780820191505090505b5090508281600081518110612655577f4e487b7100000000000000000000000000000000000000000000000000000000600052603260045260246000fd5b60200260200101818152505080915050919050565b6126898473ffffffffffffffffffffffffffffffffffffffff1661283a565b15612832578373ffffffffffffffffffffffffffffffffffffffff1663f23a6e6187878686866040518663ffffffff1660e01b81526004016126cf959493929190613971565b602060405180830381600087803b1580156126e957600080fd5b505af192505050801561271a57506040513d601f19601f820116820180604052508101906127179190612e56565b60015b6127a9576127266141ec565b80612731575061276e565b806040517f08c379a00000000000000000000000000000000000000000000000000000000081526004016127659190613a76565b60405180910390fd5b6040517f08c379a00000000000000000000000000000000000000000000000000000000081526004016127a090613a98565b60405180910390fd5b63f23a6e6160e01b7bffffffffffffffffffffffffffffffffffffffffffffffffffffffff1916817bffffffffffffffffffffffffffffffffffffffffffffffffffffffff191614612830576040517f08c379a000000000000000000000000000000000000000000000000000000000815260040161282790613ab8565b60405180910390fd5b505b505050505050565b600080823b905060008111915050919050565b828054612859906140c6565b90600052602060002090601f01602090048101928261287b57600085556128c2565b82601f1061289457805160ff19168380011785556128c2565b828001600101855582156128c2579182015b828111156128c15782518255916020019190600101906128a6565b5b5090506128cf91906128d3565b5090565b5b808211156128ec5760008160009055506001016128d4565b5090565b60006129036128fe84613e24565b613df3565b9050808382526020820190508285602086028201111561292257600080fd5b60005b8581101561295257816129388882612a44565b845260208401935060208301925050600181019050612925565b5050509392505050565b600061296f61296a84613e50565b613df3565b9050808382526020820190508285602086028201111561298e57600080fd5b60005b858110156129be57816129a48882612b40565b845260208401935060208301925050600181019050612991565b5050509392505050565b60006129db6129d684613e7c565b613df3565b9050828152602081018484840111156129f357600080fd5b6129fe848285614084565b509392505050565b6000612a19612a1484613eac565b613df3565b905082815260208101848484011115612a3157600080fd5b612a3c848285614084565b509392505050565b600081359050612a53816142a2565b92915050565b600082601f830112612a6a57600080fd5b8135612a7a8482602086016128f0565b91505092915050565b600082601f830112612a9457600080fd5b8135612aa484826020860161295c565b91505092915050565b600081359050612abc816142b9565b92915050565b600081359050612ad1816142d0565b92915050565b600081519050612ae6816142d0565b92915050565b600082601f830112612afd57600080fd5b8135612b0d8482602086016129c8565b91505092915050565b600082601f830112612b2757600080fd5b8135612b37848260208601612a06565b91505092915050565b600081359050612b4f816142e7565b92915050565b600060208284031215612b6757600080fd5b6000612b7584828501612a44565b91505092915050565b60008060408385031215612b9157600080fd5b6000612b9f85828601612a44565b9250506020612bb085828601612a44565b9150509250929050565b600080600080600060a08688031215612bd257600080fd5b6000612be088828901612a44565b9550506020612bf188828901612a44565b945050604086013567ffffffffffffffff811115612c0e57600080fd5b612c1a88828901612a83565b935050606086013567ffffffffffffffff811115612c3757600080fd5b612c4388828901612a83565b925050608086013567ffffffffffffffff811115612c6057600080fd5b612c6c88828901612aec565b9150509295509295909350565b600080600080600060a08688031215612c9157600080fd5b6000612c9f88828901612a44565b9550506020612cb088828901612a44565b9450506040612cc188828901612b40565b9350506060612cd288828901612b40565b925050608086013567ffffffffffffffff811115612cef57600080fd5b612cfb88828901612aec565b9150509295509295909350565b60008060408385031215612d1b57600080fd5b6000612d2985828601612a44565b9250506020612d3a85828601612aad565b9150509250929050565b60008060408385031215612d5757600080fd5b6000612d6585828601612a44565b9250506020612d7685828601612b40565b9150509250929050565b600060208284031215612d9257600080fd5b600082013567ffffffffffffffff811115612dac57600080fd5b612db884828501612a59565b91505092915050565b60008060408385031215612dd457600080fd5b600083013567ffffffffffffffff811115612dee57600080fd5b612dfa85828601612a59565b925050602083013567ffffffffffffffff811115612e1757600080fd5b612e2385828601612a83565b9150509250929050565b600060208284031215612e3f57600080fd5b6000612e4d84828501612ac2565b91505092915050565b600060208284031215612e6857600080fd5b6000612e7684828501612ad7565b91505092915050565b600060208284031215612e9157600080fd5b600082013567ffffffffffffffff811115612eab57600080fd5b612eb784828501612b16565b91505092915050565b600060208284031215612ed257600080fd5b6000612ee084828501612b40565b91505092915050565b60008060408385031215612efc57600080fd5b6000612f0a85828601612b40565b9250506020612f1b85828601612a44565b9150509250929050565b6000612f318383612f55565b60208301905092915050565b6000612f4983836138d0565b60208301905092915050565b612f5e81614010565b82525050565b612f6d81614010565b82525050565b6000612f7e82613efc565b612f888185613f42565b9350612f9383613edc565b8060005b83811015612fc4578151612fab8882612f25565b9750612fb683613f28565b925050600181019050612f97565b5085935050505092915050565b6000612fdc82613f07565b612fe68185613f53565b9350612ff183613eec565b8060005b838110156130225781516130098882612f3d565b975061301483613f35565b925050600181019050612ff5565b5085935050505092915050565b61303881614022565b82525050565b600061304982613f12565b6130538185613f64565b9350613063818560208601614093565b61306c816141ce565b840191505092915050565b600061308282613f1d565b61308c8185613f75565b935061309c818560208601614093565b6130a5816141ce565b840191505092915050565b60006130bd603483613f75565b91507f455243313135353a207472616e7366657220746f206e6f6e204552433131353560008301527f526563656976657220696d706c656d656e7465720000000000000000000000006020830152604082019050919050565b6000613123602883613f75565b91507f455243313135353a204552433131353552656365697665722072656a6563746560008301527f6420746f6b656e730000000000000000000000000000000000000000000000006020830152604082019050919050565b6000613189601083613f75565b91507f4261736520555249206e6f7420736574000000000000000000000000000000006000830152602082019050919050565b60006131c9602b83613f75565b91507f455243313135353a2062616c616e636520717565727920666f7220746865207a60008301527f65726f20616464726573730000000000000000000000000000000000000000006020830152604082019050919050565b600061322f602683613f75565b91507f4f776e61626c653a206e6577206f776e657220697320746865207a65726f206160008301527f64647265737300000000000000000000000000000000000000000000000000006020830152604082019050919050565b6000613295602183613f75565b91507f45786365656473206d6178696d756d206672616374696f6e616c20736861726560008301527f73000000000000000000000000000000000000000000000000000000000000006020830152604082019050919050565b60006132fb602983613f75565b91507f455243313135353a2063616c6c6572206973206e6f74206f776e6572206e6f7260008301527f20617070726f76656400000000000000000000000000000000000000000000006020830152604082019050919050565b6000613361602a83613f75565b91507f4f6e6c7920617474656e64656573206f66207468652073686f772063616e206d60008301527f696e7420746f6b656e73000000000000000000000000000000000000000000006020830152604082019050919050565b60006133c7601c83613f75565b91507f4e46542068617320616c7265616479206265656e2063726561746564000000006000830152602082019050919050565b6000613407602583613f75565b91507f455243313135353a207472616e7366657220746f20746865207a65726f20616460008301527f64726573730000000000000000000000000000000000000000000000000000006020830152604082019050919050565b600061346d602383613f75565b91507f4e46542068617320616c7265616479206265656e206672616374696f6e616c6960008301527f7a656400000000000000000000000000000000000000000000000000000000006020830152604082019050919050565b60006134d3603283613f75565b91507f455243313135353a207472616e736665722063616c6c6572206973206e6f742060008301527f6f776e6572206e6f7220617070726f76656400000000000000000000000000006020830152604082019050919050565b6000613539601883613f75565b91507f457863656564732072656d61696e696e672073686172657300000000000000006000830152602082019050919050565b6000613579601983613f75565b91507f4e6f207061727469636970616e747320737065636966696564000000000000006000830152602082019050919050565b60006135b9602a83613f75565b91507f455243313135353a20696e73756666696369656e742062616c616e636520666f60008301527f72207472616e73666572000000000000000000000000000000000000000000006020830152604082019050919050565b600061361f602083613f75565b91507f4f776e61626c653a2063616c6c6572206973206e6f7420746865206f776e65726000830152602082019050919050565b600061365f601083613f75565b91507f496e76616c696420746f6b656e204944000000000000000000000000000000006000830152602082019050919050565b600061369f602983613f75565b91507f455243313135353a2073657474696e6720617070726f76616c2073746174757360008301527f20666f722073656c6600000000000000000000000000000000000000000000006020830152604082019050919050565b6000613705602883613f75565b91507f596f7520616c7265616479206f776e2061206672616374696f6e206f6620746860008301527f697320746f6b656e0000000000000000000000000000000000000000000000006020830152604082019050919050565b600061376b602983613f75565b91507f455243313135353a206163636f756e747320616e6420696473206c656e67746860008301527f206d69736d6174636800000000000000000000000000000000000000000000006020830152604082019050919050565b60006137d1601283613f75565b91507f4e465420646f6573206e6f7420657869737400000000000000000000000000006000830152602082019050919050565b6000613811602883613f75565b91507f455243313135353a2069647320616e6420616d6f756e7473206c656e6774682060008301527f6d69736d617463680000000000000000000000000000000000000000000000006020830152604082019050919050565b6000613877602183613f75565b91507f455243313135353a206d696e7420746f20746865207a65726f2061646472657360008301527f73000000000000000000000000000000000000000000000000000000000000006020830152604082019050919050565b6138d98161407a565b82525050565b6138e88161407a565b82525050565b60006020820190506139036000830184612f64565b92915050565b600060a08201905061391e6000830188612f64565b61392b6020830187612f64565b818103604083015261393d8186612fd1565b905081810360608301526139518185612fd1565b90508181036080830152613965818461303e565b90509695505050505050565b600060a0820190506139866000830188612f64565b6139936020830187612f64565b6139a060408301866138df565b6139ad60608301856138df565b81810360808301526139bf818461303e565b90509695505050505050565b600060408201905081810360008301526139e58185612f73565b905081810360208301526139f98184612fd1565b90509392505050565b60006020820190508181036000830152613a1c8184612fd1565b905092915050565b60006040820190508181036000830152613a3e8185612fd1565b90508181036020830152613a528184612fd1565b90509392505050565b6000602082019050613a70600083018461302f565b92915050565b60006020820190508181036000830152613a908184613077565b905092915050565b60006020820190508181036000830152613ab1816130b0565b9050919050565b60006020820190508181036000830152613ad181613116565b9050919050565b60006020820190508181036000830152613af18161317c565b9050919050565b60006020820190508181036000830152613b11816131bc565b9050919050565b60006020820190508181036000830152613b3181613222565b9050919050565b60006020820190508181036000830152613b5181613288565b9050919050565b60006020820190508181036000830152613b71816132ee565b9050919050565b60006020820190508181036000830152613b9181613354565b9050919050565b60006020820190508181036000830152613bb1816133ba565b9050919050565b60006020820190508181036000830152613bd1816133fa565b9050919050565b60006020820190508181036000830152613bf181613460565b9050919050565b60006020820190508181036000830152613c11816134c6565b9050919050565b60006020820190508181036000830152613c318161352c565b9050919050565b60006020820190508181036000830152613c518161356c565b9050919050565b60006020820190508181036000830152613c71816135ac565b9050919050565b60006020820190508181036000830152613c9181613612565b9050919050565b60006020820190508181036000830152613cb181613652565b9050919050565b60006020820190508181036000830152613cd181613692565b9050919050565b60006020820190508181036000830152613cf1816136f8565b9050919050565b60006020820190508181036000830152613d118161375e565b9050919050565b60006020820190508181036000830152613d31816137c4565b9050919050565b60006020820190508181036000830152613d5181613804565b9050919050565b60006020820190508181036000830152613d718161386a565b9050919050565b6000602082019050613d8d60008301846138df565b92915050565b6000604082019050613da860008301856138df565b613db560208301846138df565b9392505050565b6000606082019050613dd160008301866138df565b613dde60208301856138df565b613deb6040830184612f64565b949350505050565b6000604051905081810181811067ffffffffffffffff82111715613e1a57613e1961419f565b5b8060405250919050565b600067ffffffffffffffff821115613e3f57613e3e61419f565b5b602082029050602081019050919050565b600067ffffffffffffffff821115613e6b57613e6a61419f565b5b602082029050602081019050919050565b600067ffffffffffffffff821115613e9757613e9661419f565b5b601f19601f8301169050602081019050919050565b600067ffffffffffffffff821115613ec757613ec661419f565b5b601f19601f8301169050602081019050919050565b6000819050602082019050919050565b6000819050602082019050919050565b600081519050919050565b600081519050919050565b600081519050919050565b600081519050919050565b6000602082019050919050565b6000602082019050919050565b600082825260208201905092915050565b600082825260208201905092915050565b600082825260208201905092915050565b600082825260208201905092915050565b6000613f918261407a565b9150613f9c8361407a565b9250827fffffffffffffffffffffffffffffffffffffffffffffffffffffffffffffffff03821115613fd157613fd0614141565b5b828201905092915050565b6000613fe78261407a565b9150613ff28361407a565b92508282101561400557614004614141565b5b828203905092915050565b600061401b8261405a565b9050919050565b60008115159050919050565b60007fffffffff0000000000000000000000000000000000000000000000000000000082169050919050565b600073ffffffffffffffffffffffffffffffffffffffff82169050919050565b6000819050919050565b82818337600083830152505050565b60005b838110156140b1578082015181840152602081019050614096565b838111156140c0576000848401525b50505050565b600060028204905060018216806140de57607f821691505b602082108114156140f2576140f1614170565b5b50919050565b60006141038261407a565b91507fffffffffffffffffffffffffffffffffffffffffffffffffffffffffffffffff82141561413657614135614141565b5b600182019050919050565b7f4e487b7100000000000000000000000000000000000000000000000000000000600052601160045260246000fd5b7f4e487b7100000000000000000000000000000000000000000000000000000000600052602260045260246000fd5b7f4e487b7100000000000000000000000000000000000000000000000000000000600052604160045260246000fd5b6000601f19601f8301169050919050565b60008160e01c9050919050565b600060443d10156141fc5761429f565b60046000803e61420d6000516141df565b6308c379a0811461421e575061429f565b60405160043d036004823e80513d602482011167ffffffffffffffff8211171561424a5750505061429f565b808201805167ffffffffffffffff81111561426957505050505061429f565b8060208301013d85018111156142845750505050505061429f565b61428d826141ce565b60208401016040528296505050505050505b90565b6142ab81614010565b81146142b657600080fd5b50565b6142c281614022565b81146142cd57600080fd5b50565b6142d98161402e565b81146142e457600080fd5b50565b6142f08161407a565b81146142fb57600080fd5b5056fea26469706673582212206fcddf455a08e028509f738686b73603081647f885dac080ce9dfe77aa57c56b64736f6c63430008000033",
  "immutableReferences": {},
  "source": "// SPDX-License-Identifier: MIT\r\npragma solidity ^0.8.0;\r\n\r\nimport \"@openzeppelin/contracts/token/ERC1155/ERC1155.sol\";\r\nimport \"@openzeppelin/contracts/access/Ownable.sol\";\r\nimport \"@openzeppelin/contracts/utils/Strings.sol\";\r\n\r\ncontract SDVProductionNFT is ERC1155, Ownable {\r\n    using Strings for uint256;\r\n\r\n    uint256 private _totalTokens;\r\n    uint256 public constant MAX_FRACTIONAL_SHARES = 300; \r\n\r\n    struct NFT {\r\n        uint256 totalShares;\r\n        uint256 remainingShares;\r\n        address artist;\r\n    }\r\n\r\n    mapping(uint256 => NFT) public nfts;\r\n    mapping(uint256 => mapping(address => uint256)) public fractionalOwnership;\r\n    mapping(address => bool) public attendees;\r\n\r\n    constructor() ERC1155(\"\") {}\r\n\r\n    function setBaseURI(string memory baseURI) external onlyOwner {\r\n        _setURI(baseURI);\r\n    }\r\n\r\n    function createNFT(address _artist) external onlyOwner returns (uint256 tokenId) {\r\n        require(_totalTokens == 0, \"NFT has already been created\");\r\n        tokenId = 0;\r\n        nfts[tokenId] = NFT(0, 0, _artist);\r\n        emit NFTCreated(tokenId, _artist);\r\n    }\r\n\r\n    function fractionalizeNFT(uint256 _totalShares) external onlyOwner {\r\n        require(_totalTokens == 0, \"NFT has already been fractionalized\");\r\n        require(_totalShares <= MAX_FRACTIONAL_SHARES, \"Exceeds maximum fractional shares\");\r\n\r\n        nfts[0].totalShares = _totalShares;\r\n        nfts[0].remainingShares = _totalShares;\r\n        emit TokensFractionalized(0, _totalShares);\r\n    }\r\n\r\n    function mint(address _to, uint256 _amount) external {\r\n        require(attendees[msg.sender], \"Only attendees of the show can mint tokens\");\r\n        require(fractionalOwnership[0][_to] == 0, \"You already own a fraction of this token\");\r\n        require(_amount <= nfts[0].remainingShares, \"Exceeds remaining shares\");\r\n        _mint(_to, 0, _amount, \"\");\r\n        fractionalOwnership[0][_to] += _amount;\r\n        nfts[0].remainingShares -= _amount;\r\n        emit TokensMinted(0, _to, _amount);\r\n    }\r\n\r\n    function setAttendee(address _attendee) external onlyOwner {\r\n        attendees[_attendee] = true;\r\n    }\r\n\r\n    function airdropNFTShares(address[] memory _participants) external onlyOwner {\r\n        require(_participants.length > 0, \"No participants specified\");\r\n\r\n        uint256 totalSharesToAirdrop = _participants.length;\r\n\r\n        require(totalSharesToAirdrop <= nfts[0].remainingShares, \"Exceeds remaining shares\");\r\n\r\n        for (uint256 i = 0; i < _participants.length; i++) {\r\n            address participant = _participants[i];\r\n            _mint(participant, 0, 1, \"\"); \r\n            fractionalOwnership[0][participant] += 1;\r\n            nfts[0].remainingShares -= 1;\r\n        }\r\n\r\n        emit NFTSharesAirdropped(0, _participants, new uint256[](_participants.length)); \r\n    }\r\n\r\n    function getOwnedNFTs(address account) external view returns (uint256[] memory) {\r\n        if (fractionalOwnership[0][account] > 0) {\r\n            uint256[] memory ownedNFTs = new uint256[](1);\r\n            ownedNFTs[0] = 0;\r\n            return ownedNFTs;\r\n        } else {\r\n            return new uint256[](0);\r\n        }\r\n    }\r\n\r\n    function tokenURI(uint256 tokenId) public view returns (string memory) {\r\n        require(tokenId == 0, \"Invalid token ID\");\r\n        require(_totalTokens > 0, \"NFT does not exist\");\r\n        revert(\"Base URI not set\");\r\n    }\r\n\r\n    event NFTCreated(uint256 indexed tokenId, address indexed artist);\r\n    event TokensFractionalized(uint256 indexed tokenId, uint256 totalShares);\r\n    event TokensMinted(uint256 indexed tokenId, address indexed to, uint256 amount);\r\n    event NFTSharesAirdropped(uint256 indexed tokenId, address[] participants, uint256[] amounts);\r\n}\r\n",
  "sourcePath": "C:\\Users\\i\\Documents\\GitHub\\DSP-old\\contracts\\contracts\\SDVProductionNFT.sol",
  "compiler": {
    "name": "solc",
    "version": "0.8.0+commit.c7dfd78e.Emscripten.clang"
  },
  "schemaVersion": "3.4.16",
  "updatedAt": "2024-03-12T17:17:37.137Z",
  "networkType": "ethereum",
  "devdoc": {
    "kind": "dev",
    "methods": {
      "balanceOf(address,uint256)": {
        "details": "See {IERC1155-balanceOf}. Requirements: - `account` cannot be the zero address."
      },
      "balanceOfBatch(address[],uint256[])": {
        "details": "See {IERC1155-balanceOfBatch}. Requirements: - `accounts` and `ids` must have the same length."
      },
      "isApprovedForAll(address,address)": {
        "details": "See {IERC1155-isApprovedForAll}."
      },
      "owner()": {
        "details": "Returns the address of the current owner."
      },
      "renounceOwnership()": {
        "details": "Leaves the contract without owner. It will not be possible to call `onlyOwner` functions anymore. Can only be called by the current owner. NOTE: Renouncing ownership will leave the contract without an owner, thereby removing any functionality that is only available to the owner."
      },
      "safeBatchTransferFrom(address,address,uint256[],uint256[],bytes)": {
        "details": "See {IERC1155-safeBatchTransferFrom}."
      },
      "safeTransferFrom(address,address,uint256,uint256,bytes)": {
        "details": "See {IERC1155-safeTransferFrom}."
      },
      "setApprovalForAll(address,bool)": {
        "details": "See {IERC1155-setApprovalForAll}."
      },
      "supportsInterface(bytes4)": {
        "details": "See {IERC165-supportsInterface}."
      },
      "transferOwnership(address)": {
        "details": "Transfers ownership of the contract to a new account (`newOwner`). Can only be called by the current owner."
      },
      "uri(uint256)": {
        "details": "See {IERC1155MetadataURI-uri}. This implementation returns the same URI for *all* token types. It relies on the token type ID substitution mechanism https://eips.ethereum.org/EIPS/eip-1155#metadata[defined in the EIP]. Clients calling this function must replace the `\\{id\\}` substring with the actual token type ID."
      }
    },
    "version": 1
  },
  "userdoc": {
    "kind": "user",
    "methods": {},
    "version": 1
  }
}