{
  "contractName": "SDVPerformanceNFT",
  "abi": [
    {
      "inputs": [],
      "stateMutability": "nonpayable",
      "type": "constructor"
    },
    {
      "anonymous": false,
      "inputs": [
        {
          "indexed": true,
          "internalType": "address",
          "name": "account",
          "type": "address"
        },
        {
          "indexed": true,
          "internalType": "address",
          "name": "operator",
          "type": "address"
        },
        {
          "indexed": false,
          "internalType": "bool",
          "name": "approved",
          "type": "bool"
        }
      ],
      "name": "ApprovalForAll",
      "type": "event"
    },
    {
      "anonymous": false,
      "inputs": [
        {
          "indexed": true,
          "internalType": "uint256",
          "name": "tokenId",
          "type": "uint256"
        },
        {
          "indexed": true,
          "internalType": "address",
          "name": "artist",
          "type": "address"
        }
      ],
      "name": "NFTCreated",
      "type": "event"
    },
    {
      "anonymous": false,
      "inputs": [
        {
          "indexed": true,
          "internalType": "uint256",
          "name": "tokenId",
          "type": "uint256"
        },
        {
          "indexed": false,
          "internalType": "address[]",
          "name": "participants",
          "type": "address[]"
        },
        {
          "indexed": false,
          "internalType": "uint256[]",
          "name": "amounts",
          "type": "uint256[]"
        }
      ],
      "name": "NFTSharesAirdropped",
      "type": "event"
    },
    {
      "anonymous": false,
      "inputs": [
        {
          "indexed": true,
          "internalType": "address",
          "name": "previousOwner",
          "type": "address"
        },
        {
          "indexed": true,
          "internalType": "address",
          "name": "newOwner",
          "type": "address"
        }
      ],
      "name": "OwnershipTransferred",
      "type": "event"
    },
    {
      "anonymous": false,
      "inputs": [
        {
          "indexed": true,
          "internalType": "uint256",
          "name": "tokenId",
          "type": "uint256"
        },
        {
          "indexed": false,
          "internalType": "uint256",
          "name": "totalShares",
          "type": "uint256"
        }
      ],
      "name": "TokensFractionalized",
      "type": "event"
    },
    {
      "anonymous": false,
      "inputs": [
        {
          "indexed": true,
          "internalType": "uint256",
          "name": "tokenId",
          "type": "uint256"
        },
        {
          "indexed": true,
          "internalType": "address",
          "name": "to",
          "type": "address"
        },
        {
          "indexed": false,
          "internalType": "uint256",
          "name": "amount",
          "type": "uint256"
        }
      ],
      "name": "TokensMinted",
      "type": "event"
    },
    {
      "anonymous": false,
      "inputs": [
        {
          "indexed": true,
          "internalType": "address",
          "name": "operator",
          "type": "address"
        },
        {
          "indexed": true,
          "internalType": "address",
          "name": "from",
          "type": "address"
        },
        {
          "indexed": true,
          "internalType": "address",
          "name": "to",
          "type": "address"
        },
        {
          "indexed": false,
          "internalType": "uint256[]",
          "name": "ids",
          "type": "uint256[]"
        },
        {
          "indexed": false,
          "internalType": "uint256[]",
          "name": "values",
          "type": "uint256[]"
        }
      ],
      "name": "TransferBatch",
      "type": "event"
    },
    {
      "anonymous": false,
      "inputs": [
        {
          "indexed": true,
          "internalType": "address",
          "name": "operator",
          "type": "address"
        },
        {
          "indexed": true,
          "internalType": "address",
          "name": "from",
          "type": "address"
        },
        {
          "indexed": true,
          "internalType": "address",
          "name": "to",
          "type": "address"
        },
        {
          "indexed": false,
          "internalType": "uint256",
          "name": "id",
          "type": "uint256"
        },
        {
          "indexed": false,
          "internalType": "uint256",
          "name": "value",
          "type": "uint256"
        }
      ],
      "name": "TransferSingle",
      "type": "event"
    },
    {
      "anonymous": false,
      "inputs": [
        {
          "indexed": false,
          "internalType": "string",
          "name": "value",
          "type": "string"
        },
        {
          "indexed": true,
          "internalType": "uint256",
          "name": "id",
          "type": "uint256"
        }
      ],
      "name": "URI",
      "type": "event"
    },
    {
      "inputs": [],
      "name": "MAX_FRACTIONAL_SHARES",
      "outputs": [
        {
          "internalType": "uint256",
          "name": "",
          "type": "uint256"
        }
      ],
      "stateMutability": "view",
      "type": "function",
      "constant": true
    },
    {
      "inputs": [
        {
          "internalType": "address",
          "name": "",
          "type": "address"
        }
      ],
      "name": "attendees",
      "outputs": [
        {
          "internalType": "bool",
          "name": "",
          "type": "bool"
        }
      ],
      "stateMutability": "view",
      "type": "function",
      "constant": true
    },
    {
      "inputs": [
        {
          "internalType": "address",
          "name": "account",
          "type": "address"
        },
        {
          "internalType": "uint256",
          "name": "id",
          "type": "uint256"
        }
      ],
      "name": "balanceOf",
      "outputs": [
        {
          "internalType": "uint256",
          "name": "",
          "type": "uint256"
        }
      ],
      "stateMutability": "view",
      "type": "function",
      "constant": true
    },
    {
      "inputs": [
        {
          "internalType": "address[]",
          "name": "accounts",
          "type": "address[]"
        },
        {
          "internalType": "uint256[]",
          "name": "ids",
          "type": "uint256[]"
        }
      ],
      "name": "balanceOfBatch",
      "outputs": [
        {
          "internalType": "uint256[]",
          "name": "",
          "type": "uint256[]"
        }
      ],
      "stateMutability": "view",
      "type": "function",
      "constant": true
    },
    {
      "inputs": [
        {
          "internalType": "uint256",
          "name": "",
          "type": "uint256"
        },
        {
          "internalType": "address",
          "name": "",
          "type": "address"
        }
      ],
      "name": "fractionalOwnership",
      "outputs": [
        {
          "internalType": "uint256",
          "name": "",
          "type": "uint256"
        }
      ],
      "stateMutability": "view",
      "type": "function",
      "constant": true
    },
    {
      "inputs": [
        {
          "internalType": "address",
          "name": "account",
          "type": "address"
        },
        {
          "internalType": "address",
          "name": "operator",
          "type": "address"
        }
      ],
      "name": "isApprovedForAll",
      "outputs": [
        {
          "internalType": "bool",
          "name": "",
          "type": "bool"
        }
      ],
      "stateMutability": "view",
      "type": "function",
      "constant": true
    },
    {
      "inputs": [
        {
          "internalType": "uint256",
          "name": "",
          "type": "uint256"
        }
      ],
      "name": "nfts",
      "outputs": [
        {
          "internalType": "uint256",
          "name": "totalShares",
          "type": "uint256"
        },
        {
          "internalType": "uint256",
          "name": "remainingShares",
          "type": "uint256"
        },
        {
          "internalType": "address",
          "name": "artist",
          "type": "address"
        }
      ],
      "stateMutability": "view",
      "type": "function",
      "constant": true
    },
    {
      "inputs": [],
      "name": "owner",
      "outputs": [
        {
          "internalType": "address",
          "name": "",
          "type": "address"
        }
      ],
      "stateMutability": "view",
      "type": "function",
      "constant": true
    },
    {
      "inputs": [],
      "name": "renounceOwnership",
      "outputs": [],
      "stateMutability": "nonpayable",
      "type": "function"
    },
    {
      "inputs": [
        {
          "internalType": "address",
          "name": "from",
          "type": "address"
        },
        {
          "internalType": "address",
          "name": "to",
          "type": "address"
        },
        {
          "internalType": "uint256[]",
          "name": "ids",
          "type": "uint256[]"
        },
        {
          "internalType": "uint256[]",
          "name": "amounts",
          "type": "uint256[]"
        },
        {
          "internalType": "bytes",
          "name": "data",
          "type": "bytes"
        }
      ],
      "name": "safeBatchTransferFrom",
      "outputs": [],
      "stateMutability": "nonpayable",
      "type": "function"
    },
    {
      "inputs": [
        {
          "internalType": "address",
          "name": "from",
          "type": "address"
        },
        {
          "internalType": "address",
          "name": "to",
          "type": "address"
        },
        {
          "internalType": "uint256",
          "name": "id",
          "type": "uint256"
        },
        {
          "internalType": "uint256",
          "name": "amount",
          "type": "uint256"
        },
        {
          "internalType": "bytes",
          "name": "data",
          "type": "bytes"
        }
      ],
      "name": "safeTransferFrom",
      "outputs": [],
      "stateMutability": "nonpayable",
      "type": "function"
    },
    {
      "inputs": [
        {
          "internalType": "address",
          "name": "operator",
          "type": "address"
        },
        {
          "internalType": "bool",
          "name": "approved",
          "type": "bool"
        }
      ],
      "name": "setApprovalForAll",
      "outputs": [],
      "stateMutability": "nonpayable",
      "type": "function"
    },
    {
      "inputs": [
        {
          "internalType": "bytes4",
          "name": "interfaceId",
          "type": "bytes4"
        }
      ],
      "name": "supportsInterface",
      "outputs": [
        {
          "internalType": "bool",
          "name": "",
          "type": "bool"
        }
      ],
      "stateMutability": "view",
      "type": "function",
      "constant": true
    },
    {
      "inputs": [
        {
          "internalType": "address",
          "name": "newOwner",
          "type": "address"
        }
      ],
      "name": "transferOwnership",
      "outputs": [],
      "stateMutability": "nonpayable",
      "type": "function"
    },
    {
      "inputs": [
        {
          "internalType": "uint256",
          "name": "",
          "type": "uint256"
        }
      ],
      "name": "uri",
      "outputs": [
        {
          "internalType": "string",
          "name": "",
          "type": "string"
        }
      ],
      "stateMutability": "view",
      "type": "function",
      "constant": true
    },
    {
      "inputs": [
        {
          "internalType": "address",
          "name": "_artist",
          "type": "address"
        }
      ],
      "name": "createNFT",
      "outputs": [
        {
          "internalType": "uint256",
          "name": "tokenId",
          "type": "uint256"
        }
      ],
      "stateMutability": "nonpayable",
      "type": "function"
    },
    {
      "inputs": [
        {
          "internalType": "uint256",
          "name": "_totalShares",
          "type": "uint256"
        }
      ],
      "name": "fractionalizeNFT",
      "outputs": [],
      "stateMutability": "nonpayable",
      "type": "function"
    },
    {
      "inputs": [
        {
          "internalType": "address",
          "name": "_to",
          "type": "address"
        },
        {
          "internalType": "uint256",
          "name": "_amount",
          "type": "uint256"
        }
      ],
      "name": "mint",
      "outputs": [],
      "stateMutability": "nonpayable",
      "type": "function"
    },
    {
      "inputs": [
        {
          "internalType": "address",
          "name": "_attendee",
          "type": "address"
        }
      ],
      "name": "setAttendee",
      "outputs": [],
      "stateMutability": "nonpayable",
      "type": "function"
    },
    {
      "inputs": [
        {
          "internalType": "address[]",
          "name": "_participants",
          "type": "address[]"
        }
      ],
      "name": "airdropNFTShares",
      "outputs": [],
      "stateMutability": "nonpayable",
      "type": "function"
    },
    {
      "inputs": [
        {
          "internalType": "address",
          "name": "account",
          "type": "address"
        }
      ],
      "name": "getOwnedNFTs",
      "outputs": [
        {
          "internalType": "uint256[]",
          "name": "",
          "type": "uint256[]"
        }
      ],
      "stateMutability": "view",
      "type": "function",
      "constant": true
    }
  ],
  "bytecode": "0x60806040523480156200001157600080fd5b5060405180606001604052806021815260200162004135602191396200003d81620000f560201b60201c565b506000620000506200011160201b60201c565b905080600360006101000a81548173ffffffffffffffffffffffffffffffffffffffff021916908373ffffffffffffffffffffffffffffffffffffffff1602179055508073ffffffffffffffffffffffffffffffffffffffff16600073ffffffffffffffffffffffffffffffffffffffff167f8be0079c531659141344cd1fd0a4f28419497f9722a3daafe3b4186f6b6457e060405160405180910390a3506200022e565b80600290805190602001906200010d92919062000119565b5050565b600033905090565b8280546200012790620001c9565b90600052602060002090601f0160209004810192826200014b576000855562000197565b82601f106200016657805160ff191683800117855562000197565b8280016001018555821562000197579182015b828111156200019657825182559160200191906001019062000179565b5b509050620001a69190620001aa565b5090565b5b80821115620001c5576000816000905550600101620001ab565b5090565b60006002820490506001821680620001e257607f821691505b60208210811415620001f957620001f8620001ff565b5b50919050565b7f4e487b7100000000000000000000000000000000000000000000000000000000600052602260045260246000fd5b613ef7806200023e6000396000f3fe608060405234801561001057600080fd5b50600436106101365760003560e01c806340c10f19116100b8578063a22cb4651161007c578063a22cb46514610385578063c3879723146103a1578063e985e9c5146103bd578063ea413dac146103ed578063f242432a1461040b578063f2fde38b1461042757610136565b806340c10f19146102f55780634e1273f414610311578063715018a6146103415780638da5cb5b1461034b5780639a312b7a1461036957610136565b806318148f1b116100ff57806318148f1b1461022b5780632607733d1461025b578063265aa621146102775780632eb2c2d6146102a9578063396dc854146102c557610136565b8062fdd58e1461013b57806301ffc9a71461016b5780630e89341c1461019b57806317c6ab40146101cb57806317e5883c146101fb575b600080fd5b61015560048036038101906101509190612a98565b610443565b604051610162919061396b565b60405180910390f35b61018560048036038101906101809190612b81565b61050c565b60405161019291906136ae565b60405180910390f35b6101b560048036038101906101b09190612bd3565b6105ee565b6040516101c291906136c9565b60405180910390f35b6101e560048036038101906101e09190612bfc565b610682565b6040516101f2919061396b565b60405180910390f35b610215600480360381019061021091906128a9565b6106a7565b604051610222919061396b565b60405180910390f35b610245600480360381019061024091906128a9565b61086f565b6040516102529190613655565b60405180910390f35b61027560048036038101906102709190612bd3565b610a07565b005b610291600480360381019061028c9190612bd3565b610b93565b6040516102a0939291906139af565b60405180910390f35b6102c360048036038101906102be919061290e565b610bdd565b005b6102df60048036038101906102da91906128a9565b610fd3565b6040516102ec91906136ae565b60405180910390f35b61030f600480360381019061030a9190612a98565b610ff3565b005b61032b60048036038101906103269190612b15565b61126f565b6040516103389190613655565b60405180910390f35b610349611420565b005b61035361155d565b6040516103609190613541565b60405180910390f35b610383600480360381019061037e9190612ad4565b611587565b005b61039f600480360381019061039a9190612a5c565b61186d565b005b6103bb60048036038101906103b691906128a9565b6119ee565b005b6103d760048036038101906103d291906128d2565b611ac5565b6040516103e491906136ae565b60405180910390f35b6103f5611b59565b604051610402919061396b565b60405180910390f35b610425600480360381019061042091906129cd565b611b5f565b005b610441600480360381019061043c91906128a9565b611e77565b005b60008073ffffffffffffffffffffffffffffffffffffffff168373ffffffffffffffffffffffffffffffffffffffff1614156104b4576040517f08c379a00000000000000000000000000000000000000000000000000000000081526004016104ab9061372b565b60405180910390fd5b60008083815260200190815260200160002060008473ffffffffffffffffffffffffffffffffffffffff1673ffffffffffffffffffffffffffffffffffffffff16815260200190815260200160002054905092915050565b60007fd9b67a26000000000000000000000000000000000000000000000000000000007bffffffffffffffffffffffffffffffffffffffffffffffffffffffff1916827bffffffffffffffffffffffffffffffffffffffffffffffffffffffff191614806105d757507f0e89341c000000000000000000000000000000000000000000000000000000007bffffffffffffffffffffffffffffffffffffffffffffffffffffffff1916827bffffffffffffffffffffffffffffffffffffffffffffffffffffffff1916145b806105e757506105e682612023565b5b9050919050565b6060600280546105fd90613c89565b80601f016020809104026020016040519081016040528092919081815260200182805461062990613c89565b80156106765780601f1061064b57610100808354040283529160200191610676565b820191906000526020600020905b81548152906001019060200180831161065957829003601f168201915b50505050509050919050565b6005602052816000526040600020602052806000526040600020600091509150505481565b60006106b161208d565b73ffffffffffffffffffffffffffffffffffffffff166106cf61155d565b73ffffffffffffffffffffffffffffffffffffffff1614610725576040517f08c379a000000000000000000000000000000000000000000000000000000000815260040161071c906138ab565b60405180910390fd5b600060046000808152602001908152602001600020600001541461077e576040517f08c379a0000000000000000000000000000000000000000000000000000000008152600401610775906137cb565b60405180910390fd5b60009050604051806060016040528060008152602001600081526020018373ffffffffffffffffffffffffffffffffffffffff1681525060046000838152602001908152602001600020600082015181600001556020820151816001015560408201518160020160006101000a81548173ffffffffffffffffffffffffffffffffffffffff021916908373ffffffffffffffffffffffffffffffffffffffff1602179055509050508173ffffffffffffffffffffffffffffffffffffffff16817fbe4d5028ecb11dfb1cbc0c1dd7eed270db43c11a50da18fceb823c9af57a2a7860405160405180910390a3919050565b606060006005600080815260200190815260200160002060008473ffffffffffffffffffffffffffffffffffffffff1673ffffffffffffffffffffffffffffffffffffffff16815260200190815260200160002054111561098f576000600167ffffffffffffffff81111561090d577f4e487b7100000000000000000000000000000000000000000000000000000000600052604160045260246000fd5b60405190808252806020026020018201604052801561093b5781602001602082028036833780820191505090505b50905060008160008151811061097a577f4e487b7100000000000000000000000000000000000000000000000000000000600052603260045260246000fd5b60200260200101818152505080915050610a02565b600067ffffffffffffffff8111156109d0577f4e487b7100000000000000000000000000000000000000000000000000000000600052604160045260246000fd5b6040519080825280602002602001820160405280156109fe5781602001602082028036833780820191505090505b5090505b919050565b610a0f61208d565b73ffffffffffffffffffffffffffffffffffffffff16610a2d61155d565b73ffffffffffffffffffffffffffffffffffffffff1614610a83576040517f08c379a0000000000000000000000000000000000000000000000000000000008152600401610a7a906138ab565b60405180910390fd5b6000600460008081526020019081526020016000206000015414610adc576040517f08c379a0000000000000000000000000000000000000000000000000000000008152600401610ad39061380b565b60405180910390fd5b61012c811115610b21576040517f08c379a0000000000000000000000000000000000000000000000000000000008152600401610b189061376b565b60405180910390fd5b80600460008081526020019081526020016000206000018190555080600460008081526020019081526020016000206001018190555060007ff6224f6bc2c8c598a28ae48924ce7d0764c0708be49e087392896ded012db0bf82604051610b88919061396b565b60405180910390a250565b60046020528060005260406000206000915090508060000154908060010154908060020160009054906101000a900473ffffffffffffffffffffffffffffffffffffffff16905083565b8151835114610c21576040517f08c379a0000000000000000000000000000000000000000000000000000000008152600401610c189061392b565b60405180910390fd5b600073ffffffffffffffffffffffffffffffffffffffff168473ffffffffffffffffffffffffffffffffffffffff161415610c91576040517f08c379a0000000000000000000000000000000000000000000000000000000008152600401610c88906137eb565b60405180910390fd5b610c9961208d565b73ffffffffffffffffffffffffffffffffffffffff168573ffffffffffffffffffffffffffffffffffffffff161480610cdf5750610cde85610cd961208d565b611ac5565b5b610d1e576040517f08c379a0000000000000000000000000000000000000000000000000000000008152600401610d159061382b565b60405180910390fd5b6000610d2861208d565b9050610d38818787878787612095565b60005b8451811015610f3e576000858281518110610d7f577f4e487b7100000000000000000000000000000000000000000000000000000000600052603260045260246000fd5b602002602001015190506000858381518110610dc4577f4e487b7100000000000000000000000000000000000000000000000000000000600052603260045260246000fd5b60200260200101519050600080600084815260200190815260200160002060008b73ffffffffffffffffffffffffffffffffffffffff1673ffffffffffffffffffffffffffffffffffffffff16815260200190815260200160002054905081811015610e65576040517f08c379a0000000000000000000000000000000000000000000000000000000008152600401610e5c9061388b565b60405180910390fd5b8181610e719190613b9f565b60008085815260200190815260200160002060008c73ffffffffffffffffffffffffffffffffffffffff1673ffffffffffffffffffffffffffffffffffffffff168152602001908152602001600020819055508160008085815260200190815260200160002060008b73ffffffffffffffffffffffffffffffffffffffff1673ffffffffffffffffffffffffffffffffffffffff1681526020019081526020016000206000828254610f239190613b49565b9250508190555050505080610f3790613cbb565b9050610d3b565b508473ffffffffffffffffffffffffffffffffffffffff168673ffffffffffffffffffffffffffffffffffffffff168273ffffffffffffffffffffffffffffffffffffffff167f4a39dc06d4c0dbc64b70af90fd698a233a518aa5d07e595d983b8c0526c8f7fb8787604051610fb5929190613677565b60405180910390a4610fcb81878787878761209d565b505050505050565b60066020528060005260406000206000915054906101000a900460ff1681565b600660003373ffffffffffffffffffffffffffffffffffffffff1673ffffffffffffffffffffffffffffffffffffffff16815260200190815260200160002060009054906101000a900460ff1661107f576040517f08c379a0000000000000000000000000000000000000000000000000000000008152600401611076906137ab565b60405180910390fd5b60006005600080815260200190815260200160002060008473ffffffffffffffffffffffffffffffffffffffff1673ffffffffffffffffffffffffffffffffffffffff1681526020019081526020016000205414611112576040517f08c379a0000000000000000000000000000000000000000000000000000000008152600401611109906138eb565b60405180910390fd5b600460008081526020019081526020016000206001015481111561116b576040517f08c379a00000000000000000000000000000000000000000000000000000000081526004016111629061384b565b60405180910390fd5b611187826000836040518060200160405280600081525061226d565b806005600080815260200190815260200160002060008473ffffffffffffffffffffffffffffffffffffffff1673ffffffffffffffffffffffffffffffffffffffff16815260200190815260200160002060008282546111e79190613b49565b92505081905550806004600080815260200190815260200160002060010160008282546112149190613b9f565b925050819055508173ffffffffffffffffffffffffffffffffffffffff1660007f5c8e94c72da12a6d6a1213edafd788896df5fd2d6527a9adeb11f8e5d0be1c4c83604051611263919061396b565b60405180910390a35050565b606081518351146112b5576040517f08c379a00000000000000000000000000000000000000000000000000000000081526004016112ac9061390b565b60405180910390fd5b6000835167ffffffffffffffff8111156112f8577f4e487b7100000000000000000000000000000000000000000000000000000000600052604160045260246000fd5b6040519080825280602002602001820160405280156113265781602001602082028036833780820191505090505b50905060005b8451811015611415576113bf858281518110611371577f4e487b7100000000000000000000000000000000000000000000000000000000600052603260045260246000fd5b60200260200101518583815181106113b2577f4e487b7100000000000000000000000000000000000000000000000000000000600052603260045260246000fd5b6020026020010151610443565b8282815181106113f8577f4e487b7100000000000000000000000000000000000000000000000000000000600052603260045260246000fd5b6020026020010181815250508061140e90613cbb565b905061132c565b508091505092915050565b61142861208d565b73ffffffffffffffffffffffffffffffffffffffff1661144661155d565b73ffffffffffffffffffffffffffffffffffffffff161461149c576040517f08c379a0000000000000000000000000000000000000000000000000000000008152600401611493906138ab565b60405180910390fd5b600073ffffffffffffffffffffffffffffffffffffffff16600360009054906101000a900473ffffffffffffffffffffffffffffffffffffffff1673ffffffffffffffffffffffffffffffffffffffff167f8be0079c531659141344cd1fd0a4f28419497f9722a3daafe3b4186f6b6457e060405160405180910390a36000600360006101000a81548173ffffffffffffffffffffffffffffffffffffffff021916908373ffffffffffffffffffffffffffffffffffffffff160217905550565b6000600360009054906101000a900473ffffffffffffffffffffffffffffffffffffffff16905090565b61158f61208d565b73ffffffffffffffffffffffffffffffffffffffff166115ad61155d565b73ffffffffffffffffffffffffffffffffffffffff1614611603576040517f08c379a00000000000000000000000000000000000000000000000000000000081526004016115fa906138ab565b60405180910390fd5b6000815111611647576040517f08c379a000000000000000000000000000000000000000000000000000000000815260040161163e9061386b565b60405180910390fd5b60008151905060046000808152602001908152602001600020600101548111156116a6576040517f08c379a000000000000000000000000000000000000000000000000000000000815260040161169d9061384b565b60405180910390fd5b60005b82518110156117be5760008382815181106116ed577f4e487b7100000000000000000000000000000000000000000000000000000000600052603260045260246000fd5b6020026020010151905061171481600060016040518060200160405280600081525061226d565b60016005600080815260200190815260200160002060008373ffffffffffffffffffffffffffffffffffffffff1673ffffffffffffffffffffffffffffffffffffffff16815260200190815260200160002060008282546117759190613b49565b9250508190555060016004600080815260200190815260200160002060010160008282546117a39190613b9f565b925050819055505080806117b690613cbb565b9150506116a9565b5060007f033d586f2c89604f48d367286e19165149c515d15959974e7e63db906a5f463383845167ffffffffffffffff811115611824577f4e487b7100000000000000000000000000000000000000000000000000000000600052604160045260246000fd5b6040519080825280602002602001820160405280156118525781602001602082028036833780820191505090505b5060405161186192919061361e565b60405180910390a25050565b8173ffffffffffffffffffffffffffffffffffffffff1661188c61208d565b73ffffffffffffffffffffffffffffffffffffffff1614156118e3576040517f08c379a00000000000000000000000000000000000000000000000000000000081526004016118da906138cb565b60405180910390fd5b80600160006118f061208d565b73ffffffffffffffffffffffffffffffffffffffff1673ffffffffffffffffffffffffffffffffffffffff16815260200190815260200160002060008473ffffffffffffffffffffffffffffffffffffffff1673ffffffffffffffffffffffffffffffffffffffff16815260200190815260200160002060006101000a81548160ff0219169083151502179055508173ffffffffffffffffffffffffffffffffffffffff1661199d61208d565b73ffffffffffffffffffffffffffffffffffffffff167f17307eab39ab6107e8899845ad3d59bd9653f200f220920489ca2b5937696c31836040516119e291906136ae565b60405180910390a35050565b6119f661208d565b73ffffffffffffffffffffffffffffffffffffffff16611a1461155d565b73ffffffffffffffffffffffffffffffffffffffff1614611a6a576040517f08c379a0000000000000000000000000000000000000000000000000000000008152600401611a61906138ab565b60405180910390fd5b6001600660008373ffffffffffffffffffffffffffffffffffffffff1673ffffffffffffffffffffffffffffffffffffffff16815260200190815260200160002060006101000a81548160ff02191690831515021790555050565b6000600160008473ffffffffffffffffffffffffffffffffffffffff1673ffffffffffffffffffffffffffffffffffffffff16815260200190815260200160002060008373ffffffffffffffffffffffffffffffffffffffff1673ffffffffffffffffffffffffffffffffffffffff16815260200190815260200160002060009054906101000a900460ff16905092915050565b61012c81565b600073ffffffffffffffffffffffffffffffffffffffff168473ffffffffffffffffffffffffffffffffffffffff161415611bcf576040517f08c379a0000000000000000000000000000000000000000000000000000000008152600401611bc6906137eb565b60405180910390fd5b611bd761208d565b73ffffffffffffffffffffffffffffffffffffffff168573ffffffffffffffffffffffffffffffffffffffff161480611c1d5750611c1c85611c1761208d565b611ac5565b5b611c5c576040517f08c379a0000000000000000000000000000000000000000000000000000000008152600401611c539061378b565b60405180910390fd5b6000611c6661208d565b9050611c86818787611c7788612403565b611c8088612403565b87612095565b600080600086815260200190815260200160002060008873ffffffffffffffffffffffffffffffffffffffff1673ffffffffffffffffffffffffffffffffffffffff16815260200190815260200160002054905083811015611d1d576040517f08c379a0000000000000000000000000000000000000000000000000000000008152600401611d149061388b565b60405180910390fd5b8381611d299190613b9f565b60008087815260200190815260200160002060008973ffffffffffffffffffffffffffffffffffffffff1673ffffffffffffffffffffffffffffffffffffffff168152602001908152602001600020819055508360008087815260200190815260200160002060008873ffffffffffffffffffffffffffffffffffffffff1673ffffffffffffffffffffffffffffffffffffffff1681526020019081526020016000206000828254611ddb9190613b49565b925050819055508573ffffffffffffffffffffffffffffffffffffffff168773ffffffffffffffffffffffffffffffffffffffff168373ffffffffffffffffffffffffffffffffffffffff167fc3d58168c5ae7397731d063d5bbf3d657854427343f4c083240f7aacaa2d0f628888604051611e58929190613986565b60405180910390a4611e6e8288888888886124c9565b50505050505050565b611e7f61208d565b73ffffffffffffffffffffffffffffffffffffffff16611e9d61155d565b73ffffffffffffffffffffffffffffffffffffffff1614611ef3576040517f08c379a0000000000000000000000000000000000000000000000000000000008152600401611eea906138ab565b60405180910390fd5b600073ffffffffffffffffffffffffffffffffffffffff168173ffffffffffffffffffffffffffffffffffffffff161415611f63576040517f08c379a0000000000000000000000000000000000000000000000000000000008152600401611f5a9061374b565b60405180910390fd5b8073ffffffffffffffffffffffffffffffffffffffff16600360009054906101000a900473ffffffffffffffffffffffffffffffffffffffff1673ffffffffffffffffffffffffffffffffffffffff167f8be0079c531659141344cd1fd0a4f28419497f9722a3daafe3b4186f6b6457e060405160405180910390a380600360006101000a81548173ffffffffffffffffffffffffffffffffffffffff021916908373ffffffffffffffffffffffffffffffffffffffff16021790555050565b60007f01ffc9a7000000000000000000000000000000000000000000000000000000007bffffffffffffffffffffffffffffffffffffffffffffffffffffffff1916827bffffffffffffffffffffffffffffffffffffffffffffffffffffffff1916149050919050565b600033905090565b505050505050565b6120bc8473ffffffffffffffffffffffffffffffffffffffff16612699565b15612265578373ffffffffffffffffffffffffffffffffffffffff1663bc197c8187878686866040518663ffffffff1660e01b815260040161210295949392919061355c565b602060405180830381600087803b15801561211c57600080fd5b505af192505050801561214d57506040513d601f19601f8201168201806040525081019061214a9190612baa565b60015b6121dc57612159613daf565b8061216457506121a1565b806040517f08c379a000000000000000000000000000000000000000000000000000000000815260040161219891906136c9565b60405180910390fd5b6040517f08c379a00000000000000000000000000000000000000000000000000000000081526004016121d3906136eb565b60405180910390fd5b63bc197c8160e01b7bffffffffffffffffffffffffffffffffffffffffffffffffffffffff1916817bffffffffffffffffffffffffffffffffffffffffffffffffffffffff191614612263576040517f08c379a000000000000000000000000000000000000000000000000000000000815260040161225a9061370b565b60405180910390fd5b505b505050505050565b600073ffffffffffffffffffffffffffffffffffffffff168473ffffffffffffffffffffffffffffffffffffffff1614156122dd576040517f08c379a00000000000000000000000000000000000000000000000000000000081526004016122d49061394b565b60405180910390fd5b60006122e761208d565b9050612308816000876122f988612403565b61230288612403565b87612095565b8260008086815260200190815260200160002060008773ffffffffffffffffffffffffffffffffffffffff1673ffffffffffffffffffffffffffffffffffffffff16815260200190815260200160002060008282546123679190613b49565b925050819055508473ffffffffffffffffffffffffffffffffffffffff16600073ffffffffffffffffffffffffffffffffffffffff168273ffffffffffffffffffffffffffffffffffffffff167fc3d58168c5ae7397731d063d5bbf3d657854427343f4c083240f7aacaa2d0f6287876040516123e5929190613986565b60405180910390a46123fc816000878787876124c9565b5050505050565b60606000600167ffffffffffffffff811115612448577f4e487b7100000000000000000000000000000000000000000000000000000000600052604160045260246000fd5b6040519080825280602002602001820160405280156124765781602001602082028036833780820191505090505b50905082816000815181106124b4577f4e487b7100000000000000000000000000000000000000000000000000000000600052603260045260246000fd5b60200260200101818152505080915050919050565b6124e88473ffffffffffffffffffffffffffffffffffffffff16612699565b15612691578373ffffffffffffffffffffffffffffffffffffffff1663f23a6e6187878686866040518663ffffffff1660e01b815260040161252e9594939291906135c4565b602060405180830381600087803b15801561254857600080fd5b505af192505050801561257957506040513d601f19601f820116820180604052508101906125769190612baa565b60015b61260857612585613daf565b8061259057506125cd565b806040517f08c379a00000000000000000000000000000000000000000000000000000000081526004016125c491906136c9565b60405180910390fd5b6040517f08c379a00000000000000000000000000000000000000000000000000000000081526004016125ff906136eb565b60405180910390fd5b63f23a6e6160e01b7bffffffffffffffffffffffffffffffffffffffffffffffffffffffff1916817bffffffffffffffffffffffffffffffffffffffffffffffffffffffff19161461268f576040517f08c379a00000000000000000000000000000000000000000000000000000000081526004016126869061370b565b60405180910390fd5b505b505050505050565b600080823b905060008111915050919050565b60006126bf6126ba84613a17565b6139e6565b905080838252602082019050828560208602820111156126de57600080fd5b60005b8581101561270e57816126f488826127c2565b8452602084019350602083019250506001810190506126e1565b5050509392505050565b600061272b61272684613a43565b6139e6565b9050808382526020820190508285602086028201111561274a57600080fd5b60005b8581101561277a57816127608882612894565b84526020840193506020830192505060018101905061274d565b5050509392505050565b600061279761279284613a6f565b6139e6565b9050828152602081018484840111156127af57600080fd5b6127ba848285613c47565b509392505050565b6000813590506127d181613e65565b92915050565b600082601f8301126127e857600080fd5b81356127f88482602086016126ac565b91505092915050565b600082601f83011261281257600080fd5b8135612822848260208601612718565b91505092915050565b60008135905061283a81613e7c565b92915050565b60008135905061284f81613e93565b92915050565b60008151905061286481613e93565b92915050565b600082601f83011261287b57600080fd5b813561288b848260208601612784565b91505092915050565b6000813590506128a381613eaa565b92915050565b6000602082840312156128bb57600080fd5b60006128c9848285016127c2565b91505092915050565b600080604083850312156128e557600080fd5b60006128f3858286016127c2565b9250506020612904858286016127c2565b9150509250929050565b600080600080600060a0868803121561292657600080fd5b6000612934888289016127c2565b9550506020612945888289016127c2565b945050604086013567ffffffffffffffff81111561296257600080fd5b61296e88828901612801565b935050606086013567ffffffffffffffff81111561298b57600080fd5b61299788828901612801565b925050608086013567ffffffffffffffff8111156129b457600080fd5b6129c08882890161286a565b9150509295509295909350565b600080600080600060a086880312156129e557600080fd5b60006129f3888289016127c2565b9550506020612a04888289016127c2565b9450506040612a1588828901612894565b9350506060612a2688828901612894565b925050608086013567ffffffffffffffff811115612a4357600080fd5b612a4f8882890161286a565b9150509295509295909350565b60008060408385031215612a6f57600080fd5b6000612a7d858286016127c2565b9250506020612a8e8582860161282b565b9150509250929050565b60008060408385031215612aab57600080fd5b6000612ab9858286016127c2565b9250506020612aca85828601612894565b9150509250929050565b600060208284031215612ae657600080fd5b600082013567ffffffffffffffff811115612b0057600080fd5b612b0c848285016127d7565b91505092915050565b60008060408385031215612b2857600080fd5b600083013567ffffffffffffffff811115612b4257600080fd5b612b4e858286016127d7565b925050602083013567ffffffffffffffff811115612b6b57600080fd5b612b7785828601612801565b9150509250929050565b600060208284031215612b9357600080fd5b6000612ba184828501612840565b91505092915050565b600060208284031215612bbc57600080fd5b6000612bca84828501612855565b91505092915050565b600060208284031215612be557600080fd5b6000612bf384828501612894565b91505092915050565b60008060408385031215612c0f57600080fd5b6000612c1d85828601612894565b9250506020612c2e858286016127c2565b9150509250929050565b6000612c448383612c68565b60208301905092915050565b6000612c5c8383613523565b60208301905092915050565b612c7181613bd3565b82525050565b612c8081613bd3565b82525050565b6000612c9182613abf565b612c9b8185613b05565b9350612ca683613a9f565b8060005b83811015612cd7578151612cbe8882612c38565b9750612cc983613aeb565b925050600181019050612caa565b5085935050505092915050565b6000612cef82613aca565b612cf98185613b16565b9350612d0483613aaf565b8060005b83811015612d35578151612d1c8882612c50565b9750612d2783613af8565b925050600181019050612d08565b5085935050505092915050565b612d4b81613be5565b82525050565b6000612d5c82613ad5565b612d668185613b27565b9350612d76818560208601613c56565b612d7f81613d91565b840191505092915050565b6000612d9582613ae0565b612d9f8185613b38565b9350612daf818560208601613c56565b612db881613d91565b840191505092915050565b6000612dd0603483613b38565b91507f455243313135353a207472616e7366657220746f206e6f6e204552433131353560008301527f526563656976657220696d706c656d656e7465720000000000000000000000006020830152604082019050919050565b6000612e36602883613b38565b91507f455243313135353a204552433131353552656365697665722072656a6563746560008301527f6420746f6b656e730000000000000000000000000000000000000000000000006020830152604082019050919050565b6000612e9c602b83613b38565b91507f455243313135353a2062616c616e636520717565727920666f7220746865207a60008301527f65726f20616464726573730000000000000000000000000000000000000000006020830152604082019050919050565b6000612f02602683613b38565b91507f4f776e61626c653a206e6577206f776e657220697320746865207a65726f206160008301527f64647265737300000000000000000000000000000000000000000000000000006020830152604082019050919050565b6000612f68602183613b38565b91507f45786365656473206d6178696d756d206672616374696f6e616c20736861726560008301527f73000000000000000000000000000000000000000000000000000000000000006020830152604082019050919050565b6000612fce602983613b38565b91507f455243313135353a2063616c6c6572206973206e6f74206f776e6572206e6f7260008301527f20617070726f76656400000000000000000000000000000000000000000000006020830152604082019050919050565b6000613034602a83613b38565b91507f4f6e6c7920617474656e64656573206f66207468652073686f772063616e206d60008301527f696e7420746f6b656e73000000000000000000000000000000000000000000006020830152604082019050919050565b600061309a601c83613b38565b91507f4e46542068617320616c7265616479206265656e2063726561746564000000006000830152602082019050919050565b60006130da602583613b38565b91507f455243313135353a207472616e7366657220746f20746865207a65726f20616460008301527f64726573730000000000000000000000000000000000000000000000000000006020830152604082019050919050565b6000613140602383613b38565b91507f4e46542068617320616c7265616479206265656e206672616374696f6e616c6960008301527f7a656400000000000000000000000000000000000000000000000000000000006020830152604082019050919050565b60006131a6603283613b38565b91507f455243313135353a207472616e736665722063616c6c6572206973206e6f742060008301527f6f776e6572206e6f7220617070726f76656400000000000000000000000000006020830152604082019050919050565b600061320c601883613b38565b91507f457863656564732072656d61696e696e672073686172657300000000000000006000830152602082019050919050565b600061324c601983613b38565b91507f4e6f207061727469636970616e747320737065636966696564000000000000006000830152602082019050919050565b600061328c602a83613b38565b91507f455243313135353a20696e73756666696369656e742062616c616e636520666f60008301527f72207472616e73666572000000000000000000000000000000000000000000006020830152604082019050919050565b60006132f2602083613b38565b91507f4f776e61626c653a2063616c6c6572206973206e6f7420746865206f776e65726000830152602082019050919050565b6000613332602983613b38565b91507f455243313135353a2073657474696e6720617070726f76616c2073746174757360008301527f20666f722073656c6600000000000000000000000000000000000000000000006020830152604082019050919050565b6000613398602883613b38565b91507f596f7520616c7265616479206f776e2061206672616374696f6e206f6620746860008301527f697320746f6b656e0000000000000000000000000000000000000000000000006020830152604082019050919050565b60006133fe602983613b38565b91507f455243313135353a206163636f756e747320616e6420696473206c656e67746860008301527f206d69736d6174636800000000000000000000000000000000000000000000006020830152604082019050919050565b6000613464602883613b38565b91507f455243313135353a2069647320616e6420616d6f756e7473206c656e6774682060008301527f6d69736d617463680000000000000000000000000000000000000000000000006020830152604082019050919050565b60006134ca602183613b38565b91507f455243313135353a206d696e7420746f20746865207a65726f2061646472657360008301527f73000000000000000000000000000000000000000000000000000000000000006020830152604082019050919050565b61352c81613c3d565b82525050565b61353b81613c3d565b82525050565b60006020820190506135566000830184612c77565b92915050565b600060a0820190506135716000830188612c77565b61357e6020830187612c77565b81810360408301526135908186612ce4565b905081810360608301526135a48185612ce4565b905081810360808301526135b88184612d51565b90509695505050505050565b600060a0820190506135d96000830188612c77565b6135e66020830187612c77565b6135f36040830186613532565b6136006060830185613532565b81810360808301526136128184612d51565b90509695505050505050565b600060408201905081810360008301526136388185612c86565b9050818103602083015261364c8184612ce4565b90509392505050565b6000602082019050818103600083015261366f8184612ce4565b905092915050565b600060408201905081810360008301526136918185612ce4565b905081810360208301526136a58184612ce4565b90509392505050565b60006020820190506136c36000830184612d42565b92915050565b600060208201905081810360008301526136e38184612d8a565b905092915050565b6000602082019050818103600083015261370481612dc3565b9050919050565b6000602082019050818103600083015261372481612e29565b9050919050565b6000602082019050818103600083015261374481612e8f565b9050919050565b6000602082019050818103600083015261376481612ef5565b9050919050565b6000602082019050818103600083015261378481612f5b565b9050919050565b600060208201905081810360008301526137a481612fc1565b9050919050565b600060208201905081810360008301526137c481613027565b9050919050565b600060208201905081810360008301526137e48161308d565b9050919050565b60006020820190508181036000830152613804816130cd565b9050919050565b6000602082019050818103600083015261382481613133565b9050919050565b6000602082019050818103600083015261384481613199565b9050919050565b60006020820190508181036000830152613864816131ff565b9050919050565b600060208201905081810360008301526138848161323f565b9050919050565b600060208201905081810360008301526138a48161327f565b9050919050565b600060208201905081810360008301526138c4816132e5565b9050919050565b600060208201905081810360008301526138e481613325565b9050919050565b600060208201905081810360008301526139048161338b565b9050919050565b60006020820190508181036000830152613924816133f1565b9050919050565b6000602082019050818103600083015261394481613457565b9050919050565b60006020820190508181036000830152613964816134bd565b9050919050565b60006020820190506139806000830184613532565b92915050565b600060408201905061399b6000830185613532565b6139a86020830184613532565b9392505050565b60006060820190506139c46000830186613532565b6139d16020830185613532565b6139de6040830184612c77565b949350505050565b6000604051905081810181811067ffffffffffffffff82111715613a0d57613a0c613d62565b5b8060405250919050565b600067ffffffffffffffff821115613a3257613a31613d62565b5b602082029050602081019050919050565b600067ffffffffffffffff821115613a5e57613a5d613d62565b5b602082029050602081019050919050565b600067ffffffffffffffff821115613a8a57613a89613d62565b5b601f19601f8301169050602081019050919050565b6000819050602082019050919050565b6000819050602082019050919050565b600081519050919050565b600081519050919050565b600081519050919050565b600081519050919050565b6000602082019050919050565b6000602082019050919050565b600082825260208201905092915050565b600082825260208201905092915050565b600082825260208201905092915050565b600082825260208201905092915050565b6000613b5482613c3d565b9150613b5f83613c3d565b9250827fffffffffffffffffffffffffffffffffffffffffffffffffffffffffffffffff03821115613b9457613b93613d04565b5b828201905092915050565b6000613baa82613c3d565b9150613bb583613c3d565b925082821015613bc857613bc7613d04565b5b828203905092915050565b6000613bde82613c1d565b9050919050565b60008115159050919050565b60007fffffffff0000000000000000000000000000000000000000000000000000000082169050919050565b600073ffffffffffffffffffffffffffffffffffffffff82169050919050565b6000819050919050565b82818337600083830152505050565b60005b83811015613c74578082015181840152602081019050613c59565b83811115613c83576000848401525b50505050565b60006002820490506001821680613ca157607f821691505b60208210811415613cb557613cb4613d33565b5b50919050565b6000613cc682613c3d565b91507fffffffffffffffffffffffffffffffffffffffffffffffffffffffffffffffff821415613cf957613cf8613d04565b5b600182019050919050565b7f4e487b7100000000000000000000000000000000000000000000000000000000600052601160045260246000fd5b7f4e487b7100000000000000000000000000000000000000000000000000000000600052602260045260246000fd5b7f4e487b7100000000000000000000000000000000000000000000000000000000600052604160045260246000fd5b6000601f19601f8301169050919050565b60008160e01c9050919050565b600060443d1015613dbf57613e62565b60046000803e613dd0600051613da2565b6308c379a08114613de15750613e62565b60405160043d036004823e80513d602482011167ffffffffffffffff82111715613e0d57505050613e62565b808201805167ffffffffffffffff811115613e2c575050505050613e62565b8060208301013d8501811115613e4757505050505050613e62565b613e5082613d91565b60208401016040528296505050505050505b90565b613e6e81613bd3565b8114613e7957600080fd5b50565b613e8581613be5565b8114613e9057600080fd5b50565b613e9c81613bf1565b8114613ea757600080fd5b50565b613eb381613c3d565b8114613ebe57600080fd5b5056fea2646970667358221220fef784ab4682165e379248c1138a30460b7fbf9a6680f8fea041e27979dd563164736f6c6343000800003366696c653a2f2f2f7075626c69632f6d657461646174612f7b69647d2e6a736f6e",
  "immutableReferences": {},
  "source": "// SPDX-License-Identifier: MIT\r\npragma solidity ^0.8.0;\r\n\r\nimport \"@openzeppelin/contracts/token/ERC1155/ERC1155.sol\";\r\nimport \"@openzeppelin/contracts/access/Ownable.sol\";\r\n\r\ncontract SDVPerformanceNFT is ERC1155, Ownable {\r\n    uint256 public constant MAX_FRACTIONAL_SHARES = 300;\r\n\r\n    struct NFT {\r\n        uint256 totalShares;\r\n        uint256 remainingShares;\r\n        address artist;\r\n    }\r\n\r\n    mapping(uint256 => NFT) public nfts;\r\n    mapping(uint256 => mapping(address => uint256)) public fractionalOwnership;\r\n    mapping(address => bool) public attendees;\r\n\r\n    event NFTCreated(uint256 indexed tokenId, address indexed artist);\r\n    event TokensFractionalized(uint256 indexed tokenId, uint256 totalShares);\r\n    event TokensMinted(uint256 indexed tokenId, address indexed to, uint256 amount);\r\n    event NFTSharesAirdropped(uint256 indexed tokenId, address[] participants, uint256[] amounts);\r\n    \r\n    constructor() ERC1155(\"file:///public/metadata/{id}.json\") {}\r\n\r\n\r\n    function createNFT(address _artist) external onlyOwner returns (uint256 tokenId) {\r\n        require(nfts[0].totalShares == 0, \"NFT has already been created\");\r\n        tokenId = 0;\r\n        nfts[tokenId] = NFT(0, 0, _artist);\r\n        emit NFTCreated(tokenId, _artist);\r\n    }\r\n\r\n    function fractionalizeNFT(uint256 _totalShares) external onlyOwner {\r\n        require(nfts[0].totalShares == 0, \"NFT has already been fractionalized\");\r\n        require(_totalShares <= MAX_FRACTIONAL_SHARES, \"Exceeds maximum fractional shares\");\r\n\r\n        nfts[0].totalShares = _totalShares;\r\n        nfts[0].remainingShares = _totalShares;\r\n        emit TokensFractionalized(0, _totalShares);\r\n    }\r\n\r\n    function mint(address _to, uint256 _amount) external {\r\n        require(attendees[msg.sender], \"Only attendees of the show can mint tokens\");\r\n        require(fractionalOwnership[0][_to] == 0, \"You already own a fraction of this token\");\r\n        require(_amount <= nfts[0].remainingShares, \"Exceeds remaining shares\");\r\n        _mint(_to, 0, _amount, \"\");\r\n        fractionalOwnership[0][_to] += _amount;\r\n        nfts[0].remainingShares -= _amount;\r\n        emit TokensMinted(0, _to, _amount);\r\n    }\r\n\r\n    function setAttendee(address _attendee) external onlyOwner {\r\n        attendees[_attendee] = true;\r\n    }\r\n\r\n    function airdropNFTShares(address[] memory _participants) external onlyOwner {\r\n        require(_participants.length > 0, \"No participants specified\");\r\n\r\n        uint256 totalSharesToAirdrop = _participants.length;\r\n\r\n        require(totalSharesToAirdrop <= nfts[0].remainingShares, \"Exceeds remaining shares\");\r\n\r\n        for (uint256 i = 0; i < _participants.length; i++) {\r\n            address participant = _participants[i];\r\n            _mint(participant, 0, 1, \"\"); \r\n            fractionalOwnership[0][participant] += 1;\r\n            nfts[0].remainingShares -= 1;\r\n        }\r\n\r\n        emit NFTSharesAirdropped(0, _participants, new uint256[](_participants.length)); \r\n    }\r\n\r\n\r\n    function getOwnedNFTs(address account) external view returns (uint256[] memory) {\r\n        if (fractionalOwnership[0][account] > 0) {\r\n            uint256[] memory ownedNFTs = new uint256[](1);\r\n            ownedNFTs[0] = 0;\r\n            return ownedNFTs;\r\n        } else {\r\n            return new uint256[](0);\r\n        }\r\n    }\r\n}\r\n",
  "sourcePath": "C:\\Users\\i\\Documents\\GitHub\\DSP\\contracts\\contracts\\SDVPerformanceNFT.sol",
  "compiler": {
    "name": "solc",
    "version": "0.8.0+commit.c7dfd78e.Emscripten.clang"
  },
  "schemaVersion": "3.4.16",
  "updatedAt": "2024-02-28T15:04:54.699Z",
  "networkType": "ethereum",
  "devdoc": {
    "kind": "dev",
    "methods": {
      "balanceOf(address,uint256)": {
        "details": "See {IERC1155-balanceOf}. Requirements: - `account` cannot be the zero address."
      },
      "balanceOfBatch(address[],uint256[])": {
        "details": "See {IERC1155-balanceOfBatch}. Requirements: - `accounts` and `ids` must have the same length."
      },
      "isApprovedForAll(address,address)": {
        "details": "See {IERC1155-isApprovedForAll}."
      },
      "owner()": {
        "details": "Returns the address of the current owner."
      },
      "renounceOwnership()": {
        "details": "Leaves the contract without owner. It will not be possible to call `onlyOwner` functions anymore. Can only be called by the current owner. NOTE: Renouncing ownership will leave the contract without an owner, thereby removing any functionality that is only available to the owner."
      },
      "safeBatchTransferFrom(address,address,uint256[],uint256[],bytes)": {
        "details": "See {IERC1155-safeBatchTransferFrom}."
      },
      "safeTransferFrom(address,address,uint256,uint256,bytes)": {
        "details": "See {IERC1155-safeTransferFrom}."
      },
      "setApprovalForAll(address,bool)": {
        "details": "See {IERC1155-setApprovalForAll}."
      },
      "supportsInterface(bytes4)": {
        "details": "See {IERC165-supportsInterface}."
      },
      "transferOwnership(address)": {
        "details": "Transfers ownership of the contract to a new account (`newOwner`). Can only be called by the current owner."
      },
      "uri(uint256)": {
        "details": "See {IERC1155MetadataURI-uri}. This implementation returns the same URI for *all* token types. It relies on the token type ID substitution mechanism https://eips.ethereum.org/EIPS/eip-1155#metadata[defined in the EIP]. Clients calling this function must replace the `\\{id\\}` substring with the actual token type ID."
      }
    },
    "version": 1
  },
  "userdoc": {
    "kind": "user",
    "methods": {},
    "version": 1
  }
}