{
  "contractName": "SDVToken",
  "abi": [
    {
      "inputs": [],
      "stateMutability": "nonpayable",
      "type": "constructor"
    },
    {
      "anonymous": false,
      "inputs": [
        {
          "indexed": true,
          "internalType": "address",
          "name": "owner",
          "type": "address"
        },
        {
          "indexed": true,
          "internalType": "address",
          "name": "spender",
          "type": "address"
        },
        {
          "indexed": false,
          "internalType": "uint256",
          "name": "value",
          "type": "uint256"
        }
      ],
      "name": "Approval",
      "type": "event"
    },
    {
      "anonymous": false,
      "inputs": [
        {
          "indexed": true,
          "internalType": "address",
          "name": "previousOwner",
          "type": "address"
        },
        {
          "indexed": true,
          "internalType": "address",
          "name": "newOwner",
          "type": "address"
        }
      ],
      "name": "OwnershipTransferred",
      "type": "event"
    },
    {
      "anonymous": false,
      "inputs": [
        {
          "indexed": true,
          "internalType": "address",
          "name": "user",
          "type": "address"
        },
        {
          "indexed": false,
          "internalType": "uint256",
          "name": "points",
          "type": "uint256"
        },
        {
          "indexed": false,
          "internalType": "uint256",
          "name": "tokens",
          "type": "uint256"
        }
      ],
      "name": "PointsExchanged",
      "type": "event"
    },
    {
      "anonymous": false,
      "inputs": [
        {
          "indexed": true,
          "internalType": "address",
          "name": "user",
          "type": "address"
        },
        {
          "indexed": false,
          "internalType": "uint256",
          "name": "amount",
          "type": "uint256"
        }
      ],
      "name": "TokensAirdropped",
      "type": "event"
    },
    {
      "anonymous": false,
      "inputs": [
        {
          "indexed": true,
          "internalType": "address",
          "name": "from",
          "type": "address"
        },
        {
          "indexed": true,
          "internalType": "address",
          "name": "to",
          "type": "address"
        },
        {
          "indexed": false,
          "internalType": "uint256",
          "name": "value",
          "type": "uint256"
        }
      ],
      "name": "Transfer",
      "type": "event"
    },
    {
      "inputs": [],
      "name": "TOTAL_SUPPLY",
      "outputs": [
        {
          "internalType": "uint256",
          "name": "",
          "type": "uint256"
        }
      ],
      "stateMutability": "view",
      "type": "function",
      "constant": true
    },
    {
      "inputs": [
        {
          "internalType": "address",
          "name": "owner",
          "type": "address"
        },
        {
          "internalType": "address",
          "name": "spender",
          "type": "address"
        }
      ],
      "name": "allowance",
      "outputs": [
        {
          "internalType": "uint256",
          "name": "",
          "type": "uint256"
        }
      ],
      "stateMutability": "view",
      "type": "function",
      "constant": true
    },
    {
      "inputs": [
        {
          "internalType": "address",
          "name": "spender",
          "type": "address"
        },
        {
          "internalType": "uint256",
          "name": "amount",
          "type": "uint256"
        }
      ],
      "name": "approve",
      "outputs": [
        {
          "internalType": "bool",
          "name": "",
          "type": "bool"
        }
      ],
      "stateMutability": "nonpayable",
      "type": "function"
    },
    {
      "inputs": [
        {
          "internalType": "address",
          "name": "account",
          "type": "address"
        }
      ],
      "name": "balanceOf",
      "outputs": [
        {
          "internalType": "uint256",
          "name": "",
          "type": "uint256"
        }
      ],
      "stateMutability": "view",
      "type": "function",
      "constant": true
    },
    {
      "inputs": [],
      "name": "decimals",
      "outputs": [
        {
          "internalType": "uint8",
          "name": "",
          "type": "uint8"
        }
      ],
      "stateMutability": "view",
      "type": "function",
      "constant": true
    },
    {
      "inputs": [
        {
          "internalType": "address",
          "name": "spender",
          "type": "address"
        },
        {
          "internalType": "uint256",
          "name": "subtractedValue",
          "type": "uint256"
        }
      ],
      "name": "decreaseAllowance",
      "outputs": [
        {
          "internalType": "bool",
          "name": "",
          "type": "bool"
        }
      ],
      "stateMutability": "nonpayable",
      "type": "function"
    },
    {
      "inputs": [
        {
          "internalType": "address",
          "name": "spender",
          "type": "address"
        },
        {
          "internalType": "uint256",
          "name": "addedValue",
          "type": "uint256"
        }
      ],
      "name": "increaseAllowance",
      "outputs": [
        {
          "internalType": "bool",
          "name": "",
          "type": "bool"
        }
      ],
      "stateMutability": "nonpayable",
      "type": "function"
    },
    {
      "inputs": [],
      "name": "name",
      "outputs": [
        {
          "internalType": "string",
          "name": "",
          "type": "string"
        }
      ],
      "stateMutability": "view",
      "type": "function",
      "constant": true
    },
    {
      "inputs": [],
      "name": "owner",
      "outputs": [
        {
          "internalType": "address",
          "name": "",
          "type": "address"
        }
      ],
      "stateMutability": "view",
      "type": "function",
      "constant": true
    },
    {
      "inputs": [],
      "name": "renounceOwnership",
      "outputs": [],
      "stateMutability": "nonpayable",
      "type": "function"
    },
    {
      "inputs": [],
      "name": "symbol",
      "outputs": [
        {
          "internalType": "string",
          "name": "",
          "type": "string"
        }
      ],
      "stateMutability": "view",
      "type": "function",
      "constant": true
    },
    {
      "inputs": [],
      "name": "totalSupply",
      "outputs": [
        {
          "internalType": "uint256",
          "name": "",
          "type": "uint256"
        }
      ],
      "stateMutability": "view",
      "type": "function",
      "constant": true
    },
    {
      "inputs": [
        {
          "internalType": "address",
          "name": "to",
          "type": "address"
        },
        {
          "internalType": "uint256",
          "name": "amount",
          "type": "uint256"
        }
      ],
      "name": "transfer",
      "outputs": [
        {
          "internalType": "bool",
          "name": "",
          "type": "bool"
        }
      ],
      "stateMutability": "nonpayable",
      "type": "function"
    },
    {
      "inputs": [
        {
          "internalType": "address",
          "name": "from",
          "type": "address"
        },
        {
          "internalType": "address",
          "name": "to",
          "type": "address"
        },
        {
          "internalType": "uint256",
          "name": "amount",
          "type": "uint256"
        }
      ],
      "name": "transferFrom",
      "outputs": [
        {
          "internalType": "bool",
          "name": "",
          "type": "bool"
        }
      ],
      "stateMutability": "nonpayable",
      "type": "function"
    },
    {
      "inputs": [
        {
          "internalType": "address",
          "name": "newOwner",
          "type": "address"
        }
      ],
      "name": "transferOwnership",
      "outputs": [],
      "stateMutability": "nonpayable",
      "type": "function"
    },
    {
      "inputs": [
        {
          "internalType": "address[]",
          "name": "_users",
          "type": "address[]"
        },
        {
          "internalType": "uint256[]",
          "name": "_amounts",
          "type": "uint256[]"
        }
      ],
      "name": "airdropTokens",
      "outputs": [],
      "stateMutability": "nonpayable",
      "type": "function"
    },
    {
      "inputs": [
        {
          "internalType": "uint256",
          "name": "_pointsToExchange",
          "type": "uint256"
        }
      ],
      "name": "exchangePointsForTokens",
      "outputs": [],
      "stateMutability": "nonpayable",
      "type": "function"
    }
  ],
  "bytecode": "0x60806040523480156200001157600080fd5b506040518060400160405280600881526020017f534456546f6b656e0000000000000000000000000000000000000000000000008152506040518060400160405280600381526020017f534456000000000000000000000000000000000000000000000000000000000081525081600390805190602001906200009692919062000333565b508060049080519060200190620000af92919062000333565b505050620000d2620000c6620000ed60201b60201c565b620000f560201b60201c565b620000e733620186a0620001bb60201b60201c565b6200058f565b600033905090565b6000600560009054906101000a900473ffffffffffffffffffffffffffffffffffffffff16905081600560006101000a81548173ffffffffffffffffffffffffffffffffffffffff021916908373ffffffffffffffffffffffffffffffffffffffff1602179055508173ffffffffffffffffffffffffffffffffffffffff168173ffffffffffffffffffffffffffffffffffffffff167f8be0079c531659141344cd1fd0a4f28419497f9722a3daafe3b4186f6b6457e060405160405180910390a35050565b600073ffffffffffffffffffffffffffffffffffffffff168273ffffffffffffffffffffffffffffffffffffffff1614156200022e576040517f08c379a000000000000000000000000000000000000000000000000000000000815260040162000225906200041b565b60405180910390fd5b62000242600083836200032960201b60201c565b80600260008282546200025691906200046b565b92505081905550806000808473ffffffffffffffffffffffffffffffffffffffff1673ffffffffffffffffffffffffffffffffffffffff168152602001908152602001600020600082825401925050819055508173ffffffffffffffffffffffffffffffffffffffff16600073ffffffffffffffffffffffffffffffffffffffff167fddf252ad1be2c89b69c2b068fc378daa952ba7f163c4a11628f55a4df523b3ef836040516200030991906200043d565b60405180910390a362000325600083836200032e60201b60201c565b5050565b505050565b505050565b8280546200034190620004d2565b90600052602060002090601f016020900481019282620003655760008555620003b1565b82601f106200038057805160ff1916838001178555620003b1565b82800160010185558215620003b1579182015b82811115620003b057825182559160200191906001019062000393565b5b509050620003c09190620003c4565b5090565b5b80821115620003df576000816000905550600101620003c5565b5090565b6000620003f2601f836200045a565b9150620003ff8262000566565b602082019050919050565b6200041581620004c8565b82525050565b600060208201905081810360008301526200043681620003e3565b9050919050565b60006020820190506200045460008301846200040a565b92915050565b600082825260208201905092915050565b60006200047882620004c8565b91506200048583620004c8565b9250827fffffffffffffffffffffffffffffffffffffffffffffffffffffffffffffffff03821115620004bd57620004bc62000508565b5b828201905092915050565b6000819050919050565b60006002820490506001821680620004eb57607f821691505b6020821081141562000502576200050162000537565b5b50919050565b7f4e487b7100000000000000000000000000000000000000000000000000000000600052601160045260246000fd5b7f4e487b7100000000000000000000000000000000000000000000000000000000600052602260045260246000fd5b7f45524332303a206d696e7420746f20746865207a65726f206164647265737300600082015250565b611e5a806200059f6000396000f3fe608060405234801561001057600080fd5b506004361061010b5760003560e01c806370a08231116100a257806395d89b411161007157806395d89b41146102a8578063a457c2d7146102c6578063a9059cbb146102f6578063dd62ed3e14610326578063f2fde38b146103565761010b565b806370a0823114610232578063715018a6146102625780638da5cb5b1461026c578063902d55a51461028a5761010b565b806323f857b8116100de57806323f857b8146101ac578063313ce567146101c857806339509351146101e6578063706f6937146102165761010b565b806306fdde0314610110578063095ea7b31461012e57806318160ddd1461015e57806323b872dd1461017c575b600080fd5b610118610372565b6040516101259190611627565b60405180910390f35b6101486004803603810190610143919061132a565b610404565b604051610155919061160c565b60405180910390f35b610166610427565b60405161017391906117a9565b60405180910390f35b610196600480360381019061019191906112db565b610431565b6040516101a3919061160c565b60405180910390f35b6101c660048036038101906101c191906113d2565b610460565b005b6101d06104d0565b6040516101dd91906117ed565b60405180910390f35b61020060048036038101906101fb919061132a565b6104d9565b60405161020d919061160c565b60405180910390f35b610230600480360381019061022b9190611366565b610510565b005b61024c60048036038101906102479190611276565b6106e0565b60405161025991906117a9565b60405180910390f35b61026a610728565b005b61027461073c565b60405161028191906115f1565b60405180910390f35b610292610766565b60405161029f91906117a9565b60405180910390f35b6102b061076d565b6040516102bd9190611627565b60405180910390f35b6102e060048036038101906102db919061132a565b6107ff565b6040516102ed919061160c565b60405180910390f35b610310600480360381019061030b919061132a565b610876565b60405161031d919061160c565b60405180910390f35b610340600480360381019061033b919061129f565b610899565b60405161034d91906117a9565b60405180910390f35b610370600480360381019061036b9190611276565b610920565b005b606060038054610381906119b0565b80601f01602080910402602001604051908101604052809291908181526020018280546103ad906119b0565b80156103fa5780601f106103cf576101008083540402835291602001916103fa565b820191906000526020600020905b8154815290600101906020018083116103dd57829003601f168201915b5050505050905090565b60008061040f6109a4565b905061041c8185856109ac565b600191505092915050565b6000600254905090565b60008061043c6109a4565b9050610449858285610b77565b610454858585610c03565b60019150509392505050565b60006103e88261047091906118f7565b905061047c3382610e7b565b3373ffffffffffffffffffffffffffffffffffffffff167ffe5afbc6767cd9a9d720adc8f98d515579c8eba66ad45e4f42f88324fb260d6583836040516104c49291906117c4565b60405180910390a25050565b60006012905090565b6000806104e46109a4565b90506105058185856104f68589610899565b61050091906118a1565b6109ac565b600191505092915050565b610518610fd2565b805182511461055c576040517f08c379a0000000000000000000000000000000000000000000000000000000008152600401610553906116e9565b60405180910390fd5b60005b82518110156106db576105fa61057361073c565b8483815181106105ac577f4e487b7100000000000000000000000000000000000000000000000000000000600052603260045260246000fd5b60200260200101518484815181106105ed577f4e487b7100000000000000000000000000000000000000000000000000000000600052603260045260246000fd5b6020026020010151610c03565b828181518110610633577f4e487b7100000000000000000000000000000000000000000000000000000000600052603260045260246000fd5b602002602001015173ffffffffffffffffffffffffffffffffffffffff167fb82d2a7de6e3c04c554cd659f5f2b8d49c0131c0363c91a4ccef6756d16029908383815181106106ab577f4e487b7100000000000000000000000000000000000000000000000000000000600052603260045260246000fd5b60200260200101516040516106c091906117a9565b60405180910390a280806106d390611a13565b91505061055f565b505050565b60008060008373ffffffffffffffffffffffffffffffffffffffff1673ffffffffffffffffffffffffffffffffffffffff168152602001908152602001600020549050919050565b610730610fd2565b61073a6000611050565b565b6000600560009054906101000a900473ffffffffffffffffffffffffffffffffffffffff16905090565b620186a081565b60606004805461077c906119b0565b80601f01602080910402602001604051908101604052809291908181526020018280546107a8906119b0565b80156107f55780601f106107ca576101008083540402835291602001916107f5565b820191906000526020600020905b8154815290600101906020018083116107d857829003601f168201915b5050505050905090565b60008061080a6109a4565b905060006108188286610899565b90508381101561085d576040517f08c379a000000000000000000000000000000000000000000000000000000000815260040161085490611769565b60405180910390fd5b61086a82868684036109ac565b60019250505092915050565b6000806108816109a4565b905061088e818585610c03565b600191505092915050565b6000600160008473ffffffffffffffffffffffffffffffffffffffff1673ffffffffffffffffffffffffffffffffffffffff16815260200190815260200160002060008373ffffffffffffffffffffffffffffffffffffffff1673ffffffffffffffffffffffffffffffffffffffff16815260200190815260200160002054905092915050565b610928610fd2565b600073ffffffffffffffffffffffffffffffffffffffff168173ffffffffffffffffffffffffffffffffffffffff161415610998576040517f08c379a000000000000000000000000000000000000000000000000000000000815260040161098f90611669565b60405180910390fd5b6109a181611050565b50565b600033905090565b600073ffffffffffffffffffffffffffffffffffffffff168373ffffffffffffffffffffffffffffffffffffffff161415610a1c576040517f08c379a0000000000000000000000000000000000000000000000000000000008152600401610a1390611749565b60405180910390fd5b600073ffffffffffffffffffffffffffffffffffffffff168273ffffffffffffffffffffffffffffffffffffffff161415610a8c576040517f08c379a0000000000000000000000000000000000000000000000000000000008152600401610a8390611689565b60405180910390fd5b80600160008573ffffffffffffffffffffffffffffffffffffffff1673ffffffffffffffffffffffffffffffffffffffff16815260200190815260200160002060008473ffffffffffffffffffffffffffffffffffffffff1673ffffffffffffffffffffffffffffffffffffffff168152602001908152602001600020819055508173ffffffffffffffffffffffffffffffffffffffff168373ffffffffffffffffffffffffffffffffffffffff167f8c5be1e5ebec7d5bd14f71427d1e84f3dd0314c0f7b2291e5b200ac8c7c3b92583604051610b6a91906117a9565b60405180910390a3505050565b6000610b838484610899565b90507fffffffffffffffffffffffffffffffffffffffffffffffffffffffffffffffff8114610bfd5781811015610bef576040517f08c379a0000000000000000000000000000000000000000000000000000000008152600401610be6906116a9565b60405180910390fd5b610bfc84848484036109ac565b5b50505050565b600073ffffffffffffffffffffffffffffffffffffffff168373ffffffffffffffffffffffffffffffffffffffff161415610c73576040517f08c379a0000000000000000000000000000000000000000000000000000000008152600401610c6a90611729565b60405180910390fd5b600073ffffffffffffffffffffffffffffffffffffffff168273ffffffffffffffffffffffffffffffffffffffff161415610ce3576040517f08c379a0000000000000000000000000000000000000000000000000000000008152600401610cda90611649565b60405180910390fd5b610cee838383611116565b60008060008573ffffffffffffffffffffffffffffffffffffffff1673ffffffffffffffffffffffffffffffffffffffff16815260200190815260200160002054905081811015610d74576040517f08c379a0000000000000000000000000000000000000000000000000000000008152600401610d6b906116c9565b60405180910390fd5b8181036000808673ffffffffffffffffffffffffffffffffffffffff1673ffffffffffffffffffffffffffffffffffffffff16815260200190815260200160002081905550816000808573ffffffffffffffffffffffffffffffffffffffff1673ffffffffffffffffffffffffffffffffffffffff168152602001908152602001600020600082825401925050819055508273ffffffffffffffffffffffffffffffffffffffff168473ffffffffffffffffffffffffffffffffffffffff167fddf252ad1be2c89b69c2b068fc378daa952ba7f163c4a11628f55a4df523b3ef84604051610e6291906117a9565b60405180910390a3610e7584848461111b565b50505050565b600073ffffffffffffffffffffffffffffffffffffffff168273ffffffffffffffffffffffffffffffffffffffff161415610eeb576040517f08c379a0000000000000000000000000000000000000000000000000000000008152600401610ee290611789565b60405180910390fd5b610ef760008383611116565b8060026000828254610f0991906118a1565b92505081905550806000808473ffffffffffffffffffffffffffffffffffffffff1673ffffffffffffffffffffffffffffffffffffffff168152602001908152602001600020600082825401925050819055508173ffffffffffffffffffffffffffffffffffffffff16600073ffffffffffffffffffffffffffffffffffffffff167fddf252ad1be2c89b69c2b068fc378daa952ba7f163c4a11628f55a4df523b3ef83604051610fba91906117a9565b60405180910390a3610fce6000838361111b565b5050565b610fda6109a4565b73ffffffffffffffffffffffffffffffffffffffff16610ff861073c565b73ffffffffffffffffffffffffffffffffffffffff161461104e576040517f08c379a000000000000000000000000000000000000000000000000000000000815260040161104590611709565b60405180910390fd5b565b6000600560009054906101000a900473ffffffffffffffffffffffffffffffffffffffff16905081600560006101000a81548173ffffffffffffffffffffffffffffffffffffffff021916908373ffffffffffffffffffffffffffffffffffffffff1602179055508173ffffffffffffffffffffffffffffffffffffffff168173ffffffffffffffffffffffffffffffffffffffff167f8be0079c531659141344cd1fd0a4f28419497f9722a3daafe3b4186f6b6457e060405160405180910390a35050565b505050565b505050565b600061113361112e8461182d565b611808565b9050808382526020820190508285602086028201111561115257600080fd5b60005b85811015611182578161116888826111f8565b845260208401935060208301925050600181019050611155565b5050509392505050565b600061119f61119a84611859565b611808565b905080838252602082019050828560208602820111156111be57600080fd5b60005b858110156111ee57816111d48882611261565b8452602084019350602083019250506001810190506111c1565b5050509392505050565b60008135905061120781611df6565b92915050565b600082601f83011261121e57600080fd5b813561122e848260208601611120565b91505092915050565b600082601f83011261124857600080fd5b813561125884826020860161118c565b91505092915050565b60008135905061127081611e0d565b92915050565b60006020828403121561128857600080fd5b6000611296848285016111f8565b91505092915050565b600080604083850312156112b257600080fd5b60006112c0858286016111f8565b92505060206112d1858286016111f8565b9150509250929050565b6000806000606084860312156112f057600080fd5b60006112fe868287016111f8565b935050602061130f868287016111f8565b925050604061132086828701611261565b9150509250925092565b6000806040838503121561133d57600080fd5b600061134b858286016111f8565b925050602061135c85828601611261565b9150509250929050565b6000806040838503121561137957600080fd5b600083013567ffffffffffffffff81111561139357600080fd5b61139f8582860161120d565b925050602083013567ffffffffffffffff8111156113bc57600080fd5b6113c885828601611237565b9150509250929050565b6000602082840312156113e457600080fd5b60006113f284828501611261565b91505092915050565b61140481611928565b82525050565b6114138161193a565b82525050565b600061142482611885565b61142e8185611890565b935061143e81856020860161197d565b61144781611b18565b840191505092915050565b600061145f602383611890565b915061146a82611b29565b604082019050919050565b6000611482602683611890565b915061148d82611b78565b604082019050919050565b60006114a5602283611890565b91506114b082611bc7565b604082019050919050565b60006114c8601d83611890565b91506114d382611c16565b602082019050919050565b60006114eb602683611890565b91506114f682611c3f565b604082019050919050565b600061150e601583611890565b915061151982611c8e565b602082019050919050565b6000611531602083611890565b915061153c82611cb7565b602082019050919050565b6000611554602583611890565b915061155f82611ce0565b604082019050919050565b6000611577602483611890565b915061158282611d2f565b604082019050919050565b600061159a602583611890565b91506115a582611d7e565b604082019050919050565b60006115bd601f83611890565b91506115c882611dcd565b602082019050919050565b6115dc81611966565b82525050565b6115eb81611970565b82525050565b600060208201905061160660008301846113fb565b92915050565b6000602082019050611621600083018461140a565b92915050565b600060208201905081810360008301526116418184611419565b905092915050565b6000602082019050818103600083015261166281611452565b9050919050565b6000602082019050818103600083015261168281611475565b9050919050565b600060208201905081810360008301526116a281611498565b9050919050565b600060208201905081810360008301526116c2816114bb565b9050919050565b600060208201905081810360008301526116e2816114de565b9050919050565b6000602082019050818103600083015261170281611501565b9050919050565b6000602082019050818103600083015261172281611524565b9050919050565b6000602082019050818103600083015261174281611547565b9050919050565b600060208201905081810360008301526117628161156a565b9050919050565b600060208201905081810360008301526117828161158d565b9050919050565b600060208201905081810360008301526117a2816115b0565b9050919050565b60006020820190506117be60008301846115d3565b92915050565b60006040820190506117d960008301856115d3565b6117e660208301846115d3565b9392505050565b600060208201905061180260008301846115e2565b92915050565b6000611812611823565b905061181e82826119e2565b919050565b6000604051905090565b600067ffffffffffffffff82111561184857611847611ae9565b5b602082029050602081019050919050565b600067ffffffffffffffff82111561187457611873611ae9565b5b602082029050602081019050919050565b600081519050919050565b600082825260208201905092915050565b60006118ac82611966565b91506118b783611966565b9250827fffffffffffffffffffffffffffffffffffffffffffffffffffffffffffffffff038211156118ec576118eb611a5c565b5b828201905092915050565b600061190282611966565b915061190d83611966565b92508261191d5761191c611a8b565b5b828204905092915050565b600061193382611946565b9050919050565b60008115159050919050565b600073ffffffffffffffffffffffffffffffffffffffff82169050919050565b6000819050919050565b600060ff82169050919050565b60005b8381101561199b578082015181840152602081019050611980565b838111156119aa576000848401525b50505050565b600060028204905060018216806119c857607f821691505b602082108114156119dc576119db611aba565b5b50919050565b6119eb82611b18565b810181811067ffffffffffffffff82111715611a0a57611a09611ae9565b5b80604052505050565b6000611a1e82611966565b91507fffffffffffffffffffffffffffffffffffffffffffffffffffffffffffffffff821415611a5157611a50611a5c565b5b600182019050919050565b7f4e487b7100000000000000000000000000000000000000000000000000000000600052601160045260246000fd5b7f4e487b7100000000000000000000000000000000000000000000000000000000600052601260045260246000fd5b7f4e487b7100000000000000000000000000000000000000000000000000000000600052602260045260246000fd5b7f4e487b7100000000000000000000000000000000000000000000000000000000600052604160045260246000fd5b6000601f19601f8301169050919050565b7f45524332303a207472616e7366657220746f20746865207a65726f206164647260008201527f6573730000000000000000000000000000000000000000000000000000000000602082015250565b7f4f776e61626c653a206e6577206f776e657220697320746865207a65726f206160008201527f6464726573730000000000000000000000000000000000000000000000000000602082015250565b7f45524332303a20617070726f766520746f20746865207a65726f20616464726560008201527f7373000000000000000000000000000000000000000000000000000000000000602082015250565b7f45524332303a20696e73756666696369656e7420616c6c6f77616e6365000000600082015250565b7f45524332303a207472616e7366657220616d6f756e742065786365656473206260008201527f616c616e63650000000000000000000000000000000000000000000000000000602082015250565b7f496e76616c696420696e707574206c656e677468730000000000000000000000600082015250565b7f4f776e61626c653a2063616c6c6572206973206e6f7420746865206f776e6572600082015250565b7f45524332303a207472616e736665722066726f6d20746865207a65726f20616460008201527f6472657373000000000000000000000000000000000000000000000000000000602082015250565b7f45524332303a20617070726f76652066726f6d20746865207a65726f2061646460008201527f7265737300000000000000000000000000000000000000000000000000000000602082015250565b7f45524332303a2064656372656173656420616c6c6f77616e63652062656c6f7760008201527f207a65726f000000000000000000000000000000000000000000000000000000602082015250565b7f45524332303a206d696e7420746f20746865207a65726f206164647265737300600082015250565b611dff81611928565b8114611e0a57600080fd5b50565b611e1681611966565b8114611e2157600080fd5b5056fea264697066735822122062010d4651f0e40a84ad2a6db128e45eaac9c3a0e0beb2637e50c91938d52fb664736f6c63430008010033",
  "immutableReferences": {},
  "source": "// SPDX-License-Identifier: MIT\r\npragma solidity ^0.8.0;\r\n\r\nimport \"@openzeppelin/contracts/token/ERC20/ERC20.sol\";\r\nimport \"@openzeppelin/contracts/access/Ownable.sol\";\r\n\r\ncontract SDVToken is ERC20, Ownable {\r\n    uint256 public constant TOTAL_SUPPLY = 100_000;\r\n\r\n    event TokensAirdropped(address indexed user, uint256 amount);\r\n\r\n    event PointsExchanged(address indexed user, uint256 points, uint256 tokens);\r\n\r\n    constructor() ERC20(\"SDVToken\", \"SDV\") {\r\n        _mint(msg.sender, TOTAL_SUPPLY);\r\n    }\r\n\r\n    function airdropTokens(address[] memory _users, uint256[] memory _amounts) external onlyOwner {\r\n        require(_users.length == _amounts.length, \"Invalid input lengths\");\r\n\r\n        for (uint256 i = 0; i < _users.length; i++) {\r\n            _transfer(owner(), _users[i], _amounts[i]);\r\n            emit TokensAirdropped(_users[i], _amounts[i]);\r\n        }\r\n    }\r\n\r\n    function exchangePointsForTokens(uint256 _pointsToExchange) external {\r\n        uint256 tokenAmount = _pointsToExchange / 1000; \r\n        _mint(msg.sender, tokenAmount);\r\n\r\n        emit PointsExchanged(msg.sender, _pointsToExchange, tokenAmount);\r\n    }\r\n}\r\n",
  "sourcePath": "C:\\Users\\i\\Documents\\GitHub\\DSP\\contracts\\contracts\\SDVLoyaltyGroupToken.sol",
  "compiler": {
    "name": "solc",
    "version": "0.8.1+commit.df193b15.Emscripten.clang"
  },
  "schemaVersion": "3.4.16",
  "updatedAt": "2024-03-18T14:38:54.636Z",
  "networkType": "ethereum",
  "devdoc": {
    "kind": "dev",
    "methods": {
      "allowance(address,address)": {
        "details": "See {IERC20-allowance}."
      },
      "approve(address,uint256)": {
        "details": "See {IERC20-approve}. NOTE: If `amount` is the maximum `uint256`, the allowance is not updated on `transferFrom`. This is semantically equivalent to an infinite approval. Requirements: - `spender` cannot be the zero address."
      },
      "balanceOf(address)": {
        "details": "See {IERC20-balanceOf}."
      },
      "decimals()": {
        "details": "Returns the number of decimals used to get its user representation. For example, if `decimals` equals `2`, a balance of `505` tokens should be displayed to a user as `5.05` (`505 / 10 ** 2`). Tokens usually opt for a value of 18, imitating the relationship between Ether and Wei. This is the default value returned by this function, unless it's overridden. NOTE: This information is only used for _display_ purposes: it in no way affects any of the arithmetic of the contract, including {IERC20-balanceOf} and {IERC20-transfer}."
      },
      "decreaseAllowance(address,uint256)": {
        "details": "Atomically decreases the allowance granted to `spender` by the caller. This is an alternative to {approve} that can be used as a mitigation for problems described in {IERC20-approve}. Emits an {Approval} event indicating the updated allowance. Requirements: - `spender` cannot be the zero address. - `spender` must have allowance for the caller of at least `subtractedValue`."
      },
      "increaseAllowance(address,uint256)": {
        "details": "Atomically increases the allowance granted to `spender` by the caller. This is an alternative to {approve} that can be used as a mitigation for problems described in {IERC20-approve}. Emits an {Approval} event indicating the updated allowance. Requirements: - `spender` cannot be the zero address."
      },
      "name()": {
        "details": "Returns the name of the token."
      },
      "owner()": {
        "details": "Returns the address of the current owner."
      },
      "renounceOwnership()": {
        "details": "Leaves the contract without owner. It will not be possible to call `onlyOwner` functions. Can only be called by the current owner. NOTE: Renouncing ownership will leave the contract without an owner, thereby disabling any functionality that is only available to the owner."
      },
      "symbol()": {
        "details": "Returns the symbol of the token, usually a shorter version of the name."
      },
      "totalSupply()": {
        "details": "See {IERC20-totalSupply}."
      },
      "transfer(address,uint256)": {
        "details": "See {IERC20-transfer}. Requirements: - `to` cannot be the zero address. - the caller must have a balance of at least `amount`."
      },
      "transferFrom(address,address,uint256)": {
        "details": "See {IERC20-transferFrom}. Emits an {Approval} event indicating the updated allowance. This is not required by the EIP. See the note at the beginning of {ERC20}. NOTE: Does not update the allowance if the current allowance is the maximum `uint256`. Requirements: - `from` and `to` cannot be the zero address. - `from` must have a balance of at least `amount`. - the caller must have allowance for ``from``'s tokens of at least `amount`."
      },
      "transferOwnership(address)": {
        "details": "Transfers ownership of the contract to a new account (`newOwner`). Can only be called by the current owner."
      }
    },
    "version": 1
  },
  "userdoc": {
    "kind": "user",
    "methods": {},
    "version": 1
  }
}